:020000040800F2
:1000000060CA012041030008FF280008732300088C
:10001000FD2800082D0B00089732000800000000A2
:100020000000000000000000000000008102000845
:10003000D90D000800000000DD020008672F00084D
:100040005B0300085B0300085B0300085B03000818
:100050005B0300085B0300085B0300085B03000808
:100060005B0300085B0300085B0300085B030008F8
:100070005B0300085B0300085B0300085B030008E8
:100080005B0300085B0300085B030008000000003E
:100090000000000000000000000000005B030008FA
:1000A0005B030008213000085B0300085B030008C5
:1000B0005B0300085B0300085B0300085B030008A8
:1000C0005B0300085B0300085B0300085B03000898
:1000D0005B0300085B0300085B03000800000000EE
:1000E0005B0300085B0300085B03000800000000DE
:1000F0000000000000000000000000005B0300089A
:10010000000000005B0300085B0300085B030008BD
:1001100000000000000000000000000000000000DF
:100120005B0300085B030008290D00085B0300085F
:100130005B03000800000000000000000000000059
:100140000000000000000000000000005B03000849
:100150005B0300085B0300085B0300085B03000807
:100160005B0300085B0300080000000000000000C3
:10017000000000000000000000000000000000007F
:10018000000000005B030008000000000000000009
:100190005B0300085B03000800F002F800F061F860
:1001A0000AA090E8000C82448344AAF10107DA45D2
:1001B00001D100F056F8AFF2090EBAE80F0013F0C3
:1001C000010F18BFFB1A43F001031847444F060004
:1001D000644F06000A444FF0000C10F8013B13F086
:1001E000070408BF10F8014B1D1108BF10F8015B90
:1001F000641E05D010F8016B641E01F8016BF9D183
:1002000013F0080F1EBF10F8014BAD1C0C1B09D1D9
:100210006D1E58BF01F801CBFAD505E014F8016B4B
:1002200001F8016B6D1EF9D59142D6D370470000DD
:100230000023002400250026103A28BF78C1FBD8EF
:10024000520728BF30C148BF0B607047642900F0D7
:100250007B81002070471FB549F007FC1FBD10B51A
:1002600010BD00F003FB1146FFF7F5FF36F0A2FECC
:1002700000F021FB03B4FFF7F2FF03BC00F024FB06
:100280002C4B19680868B0E8F04F80F30988BFF379
:100290006F8F4FF0000080F311887047000000005E
:1002A00008480068006880F308884FF0000080F379
:1002B000148862B661B6BFF34F8FBFF36F8F00DF54
:1002C00000BF00BF08ED00E0DFF80C00016841F45A
:1002D00070010160704700BF88ED00E0EFF3098016
:1002E000BFF36F8F134B1A681EF0100F08BF20ED7D
:1002F000108A20E9F04F106009B44FF0500080F3ED
:100300001188BFF34F8FBFF36F8F47F0E5FE4FF0BB
:10031000000080F3118809BC19680868B0E8F04F44
:100320001EF0100F08BFB0EC108A80F30988BFF3ED
:100330006F8F7047CC040020EFF3058070470000FA
:100340000948804709480047FEE7FEE7FEE7FEE769
:10035000FEE7FEE7FEE7FEE7FEE7FEE704480549A5
:10036000054A064B7047000011300008990100084B
:1003700060C4012060CA012060C6012060C601205F
:1003800053EA020C00F069802DE9F04B4FF00006B3
:10039000002B1FBFB3FA83F503FA05F424FA05F620
:1003A0005E4012BF1643B2FA82F502FA05F4C5F1B7
:1003B00020051EBF22FA05FC44EA0C04203556EA4B
:1003C000044C4FEA144418BF641C4FF000084FF06F
:1003D0000009904271EB030C39D3002919BFB1FA1F
:1003E00081F701FA07F6B0FA80F700FA07F6C7F1CD
:1003F00020071EBF20FA07FC46EA0C062037B6FB92
:10040000F4FCA7EB0507103F07F01F0BCBF120060C
:100410000CFA0BFB2CFA06F644BFB3460026202F3D
:10042000A4BF5E464FF0000B5BEA060C08BF4FF01E
:10043000010B19EB0B09ABFB027C48EB0608C01B58
:1004400006FB02CC0BFB03CC71EB0C01C1E70B46A6
:10045000024641464846BDE8F08B13B54FF0000018
:100460004FF00001AFF30080BDE81C40704710B5AD
:100470004C1084EA530404D54042C1F1000138BF56
:10048000491E1B4204D55242C3F1000338BF5B1E14
:10049000FFF776FF14F0804F04D04042C1F1000115
:1004A00038BF491E14F0004F04D05242C3F100037C
:1004B00038BF5B1E10BD00000FB41CB5074B06AA69
:1004C0007B4469460090059800F08DF9002069464C
:1004D00000F09CF91CBC5DF814FB0000490300000F
:1004E0002DE9F0410E460446002020622046E168D6
:1004F000884730B3252805D0D4E901219047206AE8
:10050000401CF2E7E168204600278847050018D024
:10051000A5F14100192802D820354FF40067324672
:10052000294620462760FFF791FE40B1012804D0FC
:10053000F61D26F007060836D8E7361DD6E728460A
:10054000DAE7206ABDE8F0812DE9F0410646002493
:1005500010687529314616A510D0AFF30080002829
:1005600002DA404213A507E031688A0701D512A5D7
:1005700002E0490704D511A5012401E0AFF3008092
:1005800000210A2206F1240709E0B0FBF2FCB0FBCF
:10059000F2F302FB1C00303078541846491C002846
:1005A000F3D123462A463046BDE8F04100F0BCB8FE
:1005B000000000002D0000002B00000020000000C3
:1005C000032A40F2308010F0030C00F0158011F87F
:1005D000013BBCF1020F624498BF11F801CB00F857
:1005E000013B38BF11F8013BA2F1040298BF00F8AB
:1005F00001CB38BF00F8013B11F0030300F0258068
:10060000083AC0F0088051F8043B083A51F804CB8E
:10061000A0E80810F5E7121D5CBF51F8043B40F854
:10062000043BAFF30080D20724BF11F8013B11F85F
:1006300001CB48BF11F8012B24BF00F8013B00F8A3
:1006400001CB48BF00F8012B704710B5203AC0F02D
:100650000B80B1E81850203AA0E81850B1E81850C3
:10066000A0E81850BFF4F5AF5FEA027C24BFB1E800
:100670001850A0E8185044BF18C918C0BDE8104071
:100680005FEA827C24BF51F8043B40F8043B08BF7A
:100690007047D20728BF31F8023B48BF11F8012B41
:1006A00028BF20F8023B48BF00F8012B704702F03A
:1006B000FF0343EA032242EA024200F0AEB84FF0E1
:1006C000000200B5134694469646203922BFA0E8A2
:1006D0000C50A0E80C50B1F12001BFF4F7AF0907AE
:1006E00028BFA0E80C5048BF0CC05DF804EB89009F
:1006F00028BF40F8042B08BF704748BF20F8022BE2
:1007000011F0804F18BF00F8012B704770477047F9
:10071000704710B500F0A2F8006810BD10B504468F
:1007200000F09CF8046010BD2DE9F0470D46994695
:100730009246044600F124080168880604D5E06961
:1007400021F01001216000E00120A84201DD471BDB
:1007500000E00027A1697A1902EB0900081AA061DC
:100760002078C00602D42046AFF30080002608E0BF
:10077000D4E901211AF806009047206A401C761C33
:1007800020624E45F4DB2078C0060AD52046AFF340
:10079000008006E0D4E9012130209047206A401C07
:1007A0002062381EA7F10107F4DC07E0D4E901213B
:1007B00018F805009047206A401C2062281EA5F109
:1007C0000105F3DC2046AFF300802078000602D557
:1007D0000220BDE8F0870120FBE7000001694A1C08
:1007E00002610878704700B58FB0CDE90131002172
:1007F000059105497944CDE9031011466846FFF794
:100800006FFE0FB000BD0000E5FFFFFF0A6802F8B1
:10081000010B0A6070474FF000020429C0F01280FB
:1008200010F0030C3FF44DAFCCF1040CBCF1020FFF
:1008300018BF00F8012BA8BF20F8022BA1EB0C0178
:10084000FFF73FBF5FEAC17C24BF00F8012B00F82F
:10085000012B48BF00F8012B70470000004870478B
:10086000FCC3012000487047FCC301207546FFF718
:10087000F9FFAE4605006946534620F0070085465D
:1008800018B020B5FFF76AFDBDE820404FF0000624
:100890004FF000074FF000084FF0000B21F0070168
:1008A000AC46ACE8C009ACE8C009ACE8C009ACE8AB
:1008B000C0098D46704710B50446AFF3008020464E
:1008C000BDE81040FFF7D6BC01491820ABBEFEE7DB
:1008D000260002007047000010B5184810F06AFEAC
:1008E00028200AF09DFA00F0FDF8000721D41348F3
:1008F00010F0FAFE7021114810F0BBFE0F4810F006
:100900002BFFBE210D4810F0B4FE0C4810F024FF60
:1009100008210A4810F0ADFE084810F01DFF002124
:10092000064810F0A6FE054810F016FF034810F028
:10093000F7FE0A200AF074FA012010BD840400209A
:1009400070B506462DED028B84B00D460A245C4836
:1009500010F0CAFE70215A4810F08BFE584810F073
:10096000FBFEAC21564810F084FE554810F0F4FE12
:100970003321534810F07DFE514810F0EDFE002168
:100980004F4810F076FE4E4810F0E6FE4C4810F04E
:10099000C7FE50200AF044FA08E005200AF040FAA9
:1009A000641E14F0FF047AD000F09CF800F09AF86E
:1009B000000601D5002CF0D1414810F095FE7121C0
:1009C0003F4810F056FE3E4810F0C6FE3C4810F07E
:1009D0000FFE8DF800003A4810F033FE384810F052
:1009E00007FE8DF80100364810F02BFE344810F059
:1009F000FFFD8DF80200324810F023FE304810F061
:100A0000F7FD8DF803002E4810F01BFE2C4810F067
:100A1000EFFD8DF804002A4810F013FE284810F06E
:100A2000E7FD8DF80500264810F046FE244810F03A
:100A300077FE9DF801009DF80210000300EB011005
:100A40009DF8031000EB1110029048F096FD9FED09
:100A50001D1B53EC112B48F0A3FD9FED1C8B53EC99
:100A6000182B48F09DFD48F097FC28609DF8030086
:100A70009DF804100007000B00EB01209DF8051005
:100A80000844009048F079FD9FED121B53EC112BA8
:100A900048F086FD53EC182B48F082FD00E00DE095
:100AA0009FED0E1B53EC112B48F084FE48F074FCB4
:100AB0003060012004B0BDEC028B70BD0020F9E76E
:100AC00084040020000000000000594000000000E5
:100AD0000000B03E0000000000006940000000007F
:100AE0000000494010B50D4810F0FEFD71210B4883
:100AF00010F0BFFD094810F02FFE084810F078FDF7
:100B00000446064810F0D8FD044810F009FE2246BD
:100B100003A1002001F054FF204610BD84040020F2
:100B20007374617475733A2025780A00FEE70146F4
:100B3000F92000F0D7B8000030B5144887B001683C
:100B400041F001010160016801F0010105910168B6
:100B500041F00201016000684FF4004400F002001F
:100B600005900120CDE9004002900220084D03903D
:100B70006946284600F0A6FA01222146284600F0E0
:100B800096FB044810F016FD07B030BD3038024027
:100B90000000024074040020022000F05FB8000052
:100BA00008B504226946032000F01EF89DF80010E5
:100BB0009DF8010001F00F0140EA012105480160A4
:100BC0009DF802209DF8031002F00F0241EA022175
:100BD000416008BD6C04002010B5FFF7ADFFBDE813
:100BE00010400520FFF7A3BF2DE9F041044615464C
:100BF0000E46194810F078FD2A21174810F039FDEB
:100C0000154810F0A9FD2146134810F032FD124896
:100C100010F0A2FD104810F067FD2B210E4810F0D7
:100C200028FD0D4810F098FD00246F1E09E000BF5C
:100C300010F0DEFC3055BC4202DA074810F001FD2E
:100C4000641C0548AC42F3DB10F036FDBDE8F04112
:100C5000014810F065BD00007404002010B5044682
:100C6000134810F041FD2A21114810F002FD1048F0
:100C700010F072FD21460E4810F0FBFC0C4810F0FD
:100C80006BFD0B4810F030FD2B21094810F0F1FCF2
:100C9000074810F061FD064810F0AAFC044604481D
:100CA00010F00AFD024810F03BFD204610BD000088
:100CB0007404002070B50A4D4FF400440022214610
:100CC000284600F0F4FA0A200AF0AAF80122214688
:100CD000284600F0ECFABDE8704064200AF0A0B8A5
:100CE0000000024070B504460D460E4810F0FCFCB2
:100CF0002A210C4810F0BDFC0A4810F02DFD2146B9
:100D0000084810F0B6FC074810F026FD29460548B3
:100D100010F0AFFC034810F01FFDBDE87040014823
:100D200010F0FEBC74040020014800F059B8000027
:100D30003406002001681823CAB2103AB2FBF3F25D
:100D4000054B6FF30901032A9B5CC36500D9091D9C
:100D50008165084670470000C842060810B5014684
:100D600000208B698A6A4FF0C07453B1B3F5005FFD
:100D700015D072B1012A0CD0022A0AD0032A09D157
:100D800004E01AB1012A06D0022A03D1C96AC901B6
:100D900000D5012010BDC96AA142FAD010BD002AB9
:100DA000F7D0012AF2D0022AF3D0032AF3D010BDE3
:100DB00030B50468256825F48025256004686360E3
:100DC0008368402B036803D099600068C26030BD1F
:100DD0009A600068C16030BD704772B6FEE70000DF
:100DE0002DE9F84304464FF00009CDF80090634820
:100DF0004FF41651A56D0068B0FBF1F72E6894F81A
:100E00005C10082000FA01F131420FD021680A6815
:100E100052070BD50A6822F004020A6094F85C10AD
:100E20008840A860606D40F00100606594F85C1037
:100E30004FF0010808FA01F0304208D021684969F2
:100E4000090604D5A860606D40F00200606594F862
:100E50005C1004208840304208D021680968890766
:100E600004D5A860606D40F00400606594F85C10E3
:100E700010208840304218D021680968090714D52D
:100E8000A86020680168490304D50068000308D5FC
:100E9000A16C07E00168C90503D4016821F00801CD
:100EA0000160216C09B12046884794F85C1020202D
:100EB0008840304231D021680968C9062DD5A86024
:100EC00094F8350005282068016806D0490347D505
:100ED000006800031DD4616C1CE021F01601016064
:100EE0002068416921F080014161206C08B9A06C43
:100EF00020B12068016821F00801016094F85C10BD
:100F00003F208840A86084F8358084F83490216DB3
:100F10001FE0E16B09B120468847606D00282BD0A7
:100F2000606DC00714D0052084F835002068016882
:100F300021F0010101600098401C0090B84203D8E4
:100F400020680068C007F6D184F8358084F83490B2
:100F5000E16C002910D001B02046BDE8F0430847FD
:100F60000168C905D5D4016821F01001016084F839
:100F7000358084F83490CCE7BDE8F883CC050020B8
:100F80002DE9F041044600F097F906465CB10220D5
:100F900084F83500002584F834502068016821F079
:100FA000010101600DE00120BDE8F08100F084F94D
:100FB000801B052805D920206065032084F83500B2
:100FC000F2E720680068C007F0D122681168204865
:100FD0000140D4E901031843D4E9033633431843ED
:100FE00063691843A3691843E3691843236A1843E4
:100FF0000843616A042903D1D4E90B131943084358
:10100000106020684069666A20F0070130460E4390
:10101000012704280CD1A06A0643E06A40B12046AB
:10102000FFF79CFE20B14020606584F83570BAE778
:10103000206846612046FFF77DFE94F85C203F2142
:1010400091408160656584F835700020ACE7000050
:101050003F8010F02DE9F0410446866D90F8340091
:10106000002501280DD0012084F8340094F8357053
:101070000020012F07D084F8340002252846BDE85F
:10108000F0810220FBE7022784F835706065204676
:10109000FFF78EFE94F85C103F208840B060206817
:1010A000016841F016010160206C20B120680168E0
:1010B00041F0080101602068016841F00101016010
:1010C000DCE700002DE9F84FDFF8B8A10022012489
:1010D00003254FF00F090AF1040BAAF1040E00BF1B
:1010E0000B6804FA02F63340B34273D10F7907F06C
:1010F0000307012F01D0022F16D187684FEA42085B
:1011000005FA08FC27EA0C07D1F80CC00CFA08FC19
:101110004CEA070CC0F808C04768B7430E79C6F31D
:10112000001696403E4346600E79F643B6070DD052
:10113000C768560005FA06FC27EA0C07D1F808C074
:101140000CFA06FC4CEA070CC0F80CC00E7906F04D
:101150000306022E10D1D60800EB8608D8F82060CE
:1011600057074FEAD76C09FA0CF7BE430F6907FA25
:101170000CF73743C8F8207006684FEA420C05FAAE
:101180000CF7BE430F7907F0030707FA0CF7374354
:1011900007604E6816F4403F6DD03B4E376847F409
:1011A00080473760366822F0030706F480460096D1
:1011B000364E07EB060CDCF8086897073F0F09FA74
:1011C00007F826EA0806DFF8C880404503D14FF04B
:1011D00000081EE04FE0DFF8BC80404502D14FF030
:1011E000010816E0DFF8B080404502D14FF0020858
:1011F0000FE0DFF8A880404502D14FF0030808E077
:10120000DFF89C80404502D14FF0040801E04FF028
:10121000070808FA07F848EA0608CCF80888DAF858
:1012200000605746D1F804C09E435FEACC2C00D53D
:101230001E433E60DBF800605F46D1F804C09E4369
:101240005FEA8C2C00D51E433E60DEF800607746D6
:10125000D1F804C09E435FEA8C3C00D51E433E603B
:10126000084F083F3E68D1F804C09E435FEACC3C7B
:1012700000D51E433E60521C102AFFF431AFBDE87A
:10128000F88F0000083C0140443802400030014023
:10129000000002400004024000080240000C02402E
:1012A000001002400069084000D0012070470AB1D8
:1012B000816170470904FBE70148806870470000BE
:1012C000D00500200248816802781144816070478F
:1012D000D00500200B4810B5016841F40071016091
:1012E000016841F480610160016841F4807101602E
:1012F000032000F099F80F2000F006F800F04AF8FB
:10130000002010BD003C024030B505461C4887B0A7
:101310000024016841F001010160006806A900F0A5
:101320000100009001A800F02BF900F049F91549DF
:10133000154AB0FBF1F11548491E026040F2E73250
:10134000C0E90324C0E90114846100F071FD0400C8
:1013500012D10E4800F0AEFD04000DD1192000F0AE
:1013600035F8102D07D200222946192000F03CF84C
:101370000748056000E0012407B0204630BD0000AA
:101380004438024040420F0000000140DC060020CB
:10139000D40500200C4882B0016841F4804101600E
:1013A000006800F4804000900748001F016841F089
:1013B000805101600068002200F0805000900F21F1
:1013C000901E02B000F010B844380240002809DB3B
:1013D00000F01F02012191404009800000F1E0204F
:1013E000C0F8001170470000F0B40E4B1B680C46AB
:1013F000C3F30223C3F10705042D00D90425191DE9
:10140000072901D2002300E0DB1E012606FA05F1C0
:10141000491E214099409E40761E16403143F0BC43
:1014200002F0C6B80CED00E0064900F007020868BB
:101430004FF6FF03184040EA0220034A10430860B9
:10144000704700000CED00E00000FA052DE9F047C0
:101450000E46050065D0DFF81481D8F80000F7B219
:1014600000F00700B04207D288F80070D8F80000FA
:1014700000F00700B04254D128683D4C810712D5D6
:10148000400703D5206840F4E0502060287800072A
:1014900003D5206840F4604020602068A96820F0EF
:1014A000F000084320602878C0072DD030496868D4
:1014B0000839012812D0022813D0032811D0096856
:1014C000890700292DDA216821F0030101432160F9
:1014D000FFF7F2FE814641F2883A0EE0096889037F
:1014E000EFE709688901ECE7FFF7E6FEA0EB0901E9
:1014F000514502D90320BDE8F0872068696800F0F3
:101500000C00B0EB810FEFD1D8F80010404601F08D
:101510000701B14207D90770006800F00700B04228
:1015200001D00120E7E72878400705D52068E96861
:1015300020F4E050084320602878000706D5206892
:10154000296920F4604040EAC100206000F048F8BA
:101550002168084AC1F30311515CC840064908607C
:1015600006480068FFF7D0FE0020C4E7003C0240B8
:1015700008380240B0420608CC050020D4050020FF
:101580000F2202600C4A136803F0030343601368E0
:1015900003F0F0038360136803F4E053C360126840
:1015A0004FF4E05303EAD20202610448006800F0FD
:1015B000070008607047000008380240003C024005
:1015C0000448054900680968044AC1F34231515C86
:1015D000C8407047CC05002008380240C0420608C9
:1015E000154810B5006810F00C02144813D01449C7
:1015F000042A0FD0082A0ED10F4C241F226823681A
:1016000002F03F025B0207D52068C0F38810A0FB00
:10161000010106E0084610BD2168C1F38811A1FB55
:1016200000010023FEF7ACFE2168C1F30141491C13
:101630004900B0FBF1F010BD083802400024F4006E
:1016400040787D012DE9F84F04006ED02078DFF856
:101650004C93C007A9F104054AD009F104000168C0
:10166000C1F38101012908D00068C0F3810002287C
:101670000AD1D9F80000400206D52868800337D582
:1016800060680028E1D033E06068B0F5803F10D09A
:10169000B0F5A02F286810D020F48030286028688A
:1016A00020F4802028606068A8B1FFF705FE064698
:1016B0000DE0286840F48030F4E740F48020286092
:1016C000F7E700BFFFF7F8FD801B642873D8286890
:1016D0008003F7D50CE0FFF7EFFD064605E000BFFD
:1016E000FFF7EAFD801B6428F0D828688003F7D450
:1016F0002078DFF8AC8280074FF0000A3ED5A7487B
:10170000001D016811F00C0F08D00068C0F38100C3
:1017100002280BD1D9F80000400207D428688007BE
:1017200016D5E068012800D112E033E1E068B8B1D5
:101730000120C8F80000FFF7BFFD064605E000BF26
:10174000FFF7BAFD801B0228C0D828688007F7D5AC
:101750002868216920F0F80040EAC10028600DE007
:10176000C8F800A0FFF7A8FD064604E0FFF7A4FDB7
:10177000801B02281FD828688007F7D4207800072C
:1017800022D5864F87486169703771B101210160A8
:10179000FFF792FD064604E0FFF78EFD801B02284E
:1017A00009D838688007F7D50EE0C0F800A0FFF729
:1017B00083FD064605E082E0FFF77EFD801B0228E0
:1017C0007DD838688007F7D42078400768D5DFF8DF
:1017D000CCB100270BF13C0BDBF80000C0000BD4B0
:1017E000DBF8001041F08051CBF80010DBF800006E
:1017F000012700F0805000906B4E3068C00510D477
:10180000306840F480703060FFF756FD009005E0CE
:10181000FFF752FD0099401A022850D83068C005E1
:10182000F6D55E4EA0686C3601280FD005283068CA
:1018300010D020F001003060306820F004003060EB
:10184000A068B8B1FFF738FD00900FE0306840F0B5
:101850000100F4E740F004003060F7E7FFF72CFDEB
:101860000099411A41F28830814266D83068800779
:10187000F4D50EE0FFF720FD009007E0FFF71CFD18
:101880000099411A41F28830814256D83068800769
:10189000F4D42FB1DBF8001021F08051CBF8001008
:1018A000A069C8B33D49091D0968C1F38101022936
:1018B0004AD00228504607D0C8F8600000E03CE05B
:1018C000FFF7FAFC04463BE04746C8F86000FFF724
:1018D000F3FC064605E000BFFFF7EEFC801B022884
:1018E0002BD828688001F7D4D4E907010843A16AFE
:1018F0002E4A490802EB0141626A41EA821108431B
:1019000094F82C1040EA0161C9F8001001203866F3
:10191000FFF7D2FC044606E03EE000BFFFF7CCFC38
:10192000001B022809D828688001F7D534E000BFE1
:10193000FFF7C2FC001B022802D90320BDE8F88F84
:1019400028688001F4D427E00128F7D0D9F80000F6
:10195000E26900F4800191421CD1226A00F03F014B
:10196000914217D147F6C071626A0140B1EB821F04
:1019700010D1A26A4FF0FF3300F4403103EB520262
:10198000B1EB024F06D194F82C1000F07060B0EB70
:10199000016F01D00120D1E70020CFE704380240D9
:1019A00000004742800E4742007000400000FFFFE9
:1019B000704770B5040009D0606A002540B1256108
:1019C0006561A56294F8510040B10CE0012070BD42
:1019D0006068B0F5827FF4D0E561F2E784F850509A
:1019E000204600F045F8022084F851002068016884
:1019F00021F040010160A088218900F4827001F487
:101A000004410843A18901F400610843217C01F0ED
:101A100002010843217D01F001010843218B01F4FB
:101A200000710843217F01F03801084394F8201029
:101A300001F080010843218D01F400510843216821
:101A40000860A069042101EA104094F8241001F014
:101A500010010843216848602068C16921F40061D1
:101A6000C1616565012084F85100002070BD00004F
:101A700070B586B0064614216846FEF720FE204960
:101A8000306888423AD11F480025016841F48051EE
:101A90000160006800F4805005901A48143801680D
:101AA00041F0020101600068694600F00200059003
:101AB000282000900220CDE9010503200390052095
:101AC00004901148FFF7FEFA114C104820604FF0C7
:101AD000806060604020C4E9020500012061400090
:101AE00060618000C4E90605256220466562FFF753
:101AF00047FA08B1FFF771F9B464A66306B070BD88
:101B0000003001404438024000040240406402407A
:101B1000340600202DE9F84F984616468A460446BA
:101B2000FFF7CAFB814694F8510001281ED1BAF193
:101B3000000F73D0002E71D094F85000012815D0FA
:101B4000012784F85070032084F851000025656552
:101B5000C4F830A0A686E686A563A587E5876564F8
:101B60002564A068B0F5004F03D00CE00220BDE86A
:101B7000F88F2068016821F0400101602068016849
:101B800041F48041016020680168490603D401687E
:101B900041F040010160E068B0F5006F606803D07B
:101BA00048B3012E27D047E008B1012E1FD1206B8A
:101BB00021680088C86006E020688168890709D527
:101BC000216B0988C160206B801C2063E08E401E61
:101BD000E0860CE0FFF770FBA0EB0901414503D361
:101BE000B8F1FF3F03D035E0B8F1000F32D0E08EFE
:101BF0000028E1D123E0206B21680078087306E01B
:101C00002068816889070AD5216B09780173206BE8
:101C1000401C2063E08E401EE0860DE02BE0FFF7C5
:101C20004BFBA0EB0901414503D3B8F1FF3F03D0C3
:101C300010E0B8F1000F0DD0E08E0028E0D14A4648
:101C40004146204601F050F808B120206065A068A8
:101C500030B109E084F8517084F85050032086E7D1
:101C60002068C1688068009084F8517004F8505F63
:101C700060680028F3D0012079E7000070B50446C1
:101C800090F8510001281CD1C9B1C2B194F850009C
:101C9000012816D0012084F85000032084F8510058
:101CA000002565652163A286E286A56365642564D7
:101CB000A587E587A068B0F5004F04D00DE00120AE
:101CC00070BD022070BD2068016821F040010160F4
:101CD0002068016841F480410160A16C17480864E4
:101CE000A16C1748C863A16C1648C864A06C056550
:101CF000E38E2268216B0C32A06CFFF7ABF930B198
:101D0000606D40F01000606584F85050D7E720689F
:101D10000168490603D4016841F04001016084F87C
:101D200050502068416841F02001416020684168BE
:101D300041F002014160002070BD00007B2C0008D2
:101D4000852C0008592C0008064910B5884208D196
:101D5000082000F0ABFC04480068BDE8104018F013
:101D6000ADBF10BDDC0500205005002070474FF0CE
:101D7000E0210428086903D020F0040008617047BE
:101D800040F00400FAE710B5401EB0F1807F01D3A7
:101D9000012010BD4FF0E02460610F21601701F0B9
:101DA00007FC0020A06107202061002010BD7047C3
:101DB0007047000070B590F83C20012A2CD0012417
:101DC00080F83C40022280F83D2003685A689D68F4
:101DD00022F070060A6832435A60104B02689A4239
:101DE0000ED0B2F1804F0BD00D4B9A4208D00D4B64
:101DF0009A4205D00C4B9A4202D00C4B9A4204D125
:101E0000496825F080031943916080F83D40002126
:101E100080F83C10084670BD022070BD00000140F3
:101E20000004004000080040000C00400040014059
:101E300010B5040003D094F83D0010B107E0012074
:101E400010BD002084F83C00204600F01FF802205E
:101E500084F83D00211D206801F0E8F8012084F895
:101E6000460084F83E0084F83F0084F8400084F87F
:101E7000410084F8420084F8430084F8440084F868
:101E8000450084F83D00002010BD000008B5006842
:101E90000649884208D10648016841F00201016004
:101EA000006800F00200009008BD0000000400403F
:101EB0004038024090F83D10012901D001207047C0
:101EC000022180F83D100168CA6842F00102CA6030
:101ED00000680E4988420ED0B0F1804F0BD00C49FB
:101EE000884208D00B49884205D00B49884202D06D
:101EF0000A49884204D1816801F00701062903D00C
:101F0000016841F0010101600020704700000140BC
:101F10000004004000080040000C00400040014068
:101F200070B5044690F83C000025012817D0012622
:101F300084F83C60022084F83D002068826822F02A
:101F4000770222F47F4282600868502838D00DDC86
:101F500020284FD005DC90B3102811D14AE0022090
:101F600070BD302846D040280AD13BE060282FD0F1
:101F700070280DD0B0F5805F03D0B0F5005F12D0AF
:101F8000012584F83D60002084F83C00284670BD9F
:101F9000CB68D1E90121206801F0A5F820688168AB
:101FA00041F0770109E0CB68D1E90121206801F017
:101FB0009AF82068816841F480418160E1E719E086
:101FC000CA684968206801F043F95021206806E09A
:101FD000CA684968206801F04CF96021206801F066
:101FE0008CF8CEE7CA684968206801F031F94021D1
:101FF0002068F4E7226801461046F0E770472DE9B3
:10200000F04104460068C66805694FF00007A9075B
:1020100013D5B10711D5F91E016101202077206881
:1020200080698007204602D0FFF7E8FF04E000F057
:10203000A7F8204600F039F92777680716D570070A
:1020400014D521686FF00400086102202077206811
:10205000806910F4407F204602D0FFF7CFFF04E0F4
:1020600000F08EF8204600F020F92777280715D5D4
:10207000300713D521686FF008000861042020772D
:102080002068C0698007204602D0FFF7B7FF04E050
:1020900000F076F8204600F008F92777E80616D514
:1020A000F00614D521686FF0100008610820207731
:1020B0002068C06910F4407F204602D0FFF79EFFE1
:1020C00004E000F05DF8204600F0EFF82777E8071D
:1020D00008D0F00706D021686FF0010008612046A3
:1020E00000F03CF9280608D5300606D521686FF0C7
:1020F000800008612046FFF75AFE680608D5700682
:1021000006D521686FF040000861204600F030F9E4
:10211000A8060AD5B00608D521686FF0200008612E
:102120002046BDE8F041FFF743BEBDE8F081000066
:1021300010B586B0044614216846FEF7C0FA0D4972
:102140002068884214D10C480021026842F0020243
:102150000260006800F0020005900120009002205B
:10216000CDE90101CDE9031069460448FEF7AAFF55
:1021700006B010BD000400403038024000040240A8
:10218000704770B5044690F83C0000260D460128C3
:102190000FD0012084F83C006AB1042A1DD0082A1F
:1021A0002FD00C2A3FD00126002084F83C00304676
:1021B00070BD022070BD206800F0A8FF2068816912
:1021C00041F0080181612068816921F00401816189
:1021D000206881692A69114311E0206800F0BEFF80
:1021E0002068816941F4006181612068816921F47E
:1021F00080618161206881692A6941EA02218161E7
:10220000D2E7206800F0D6FF2068C16941F00801DC
:10221000C1612068C16921F00401C1612068C16900
:102220002A69114311E0206800F0F0FF2068C169BD
:1022300041F40061C1612068C16921F48061C1611C
:102240002068C1692A6941EA0221C161ACE710B581
:10225000040003D094F83D0010B107E0012010BD48
:10226000002084F83C00204600F01EF8022084F88C
:102270003D00211D206800F0D9FE012084F84600B1
:1022800084F83E0084F83F0084F8400084F8410060
:1022900084F8420084F8430084F8440084F8450040
:1022A00084F83D00002010BD7047704710B504460B
:1022B000022249B104290ED0082913D094F8410014
:1022C000012816D0012010BD94F83E000128F9D154
:1022D00084F83E200FE094F83F000128F2D184F802
:1022E0003F2008E094F840000128EBD184F840201A
:1022F00001E084F841200122206800F0E7FE124945
:102300002068884203D1426C42F400424264206853
:1023100088420ED0B0F1804F0BD00C49884208D0D3
:102320000B49884205D00B49884202D00A498842AD
:1023300004D1816801F00701062903D0016841F04A
:1023400001010160002010BD0000014000040040B8
:1023500000080040000C00400040014000680349B4
:10236000884201D1FEF7AEBF704700000000014077
:102370007047FEE738B508F03DFD3DF045F8144CD8
:102380002068C0688047012801D12168087000F0EA
:1023900087F800204FF48C73F0220146009000F083
:1023A00042F800F07DF9322000F096F9FEF714FCB7
:1023B000FEF780FC25F0AAFA2FF044F82FF05EF823
:1023C00044F00AFFBDE83840002045F067BD00003A
:1023D000480400202DE9F04107461C4615460E46EC
:1023E0002A2000F095F9380A00F0BAF9F8B200F0A6
:1023F000B7F9280A00F0B4F9E8B200F0B1F92B20DF
:1024000000F086F9300A00F0ABF9F0B200F0A8F95C
:10241000200A00F0A5F9E0B200F0A2F9BDE8F04111
:102420002C2000F075B92DE9F04780461F4603F1D6
:10243000130083B21646501E82B20C4601F11400FE
:1024400081B24046DDF82090FFF7C4FF0AE0454620
:1024500004E0484600F072F96D1CADB2B542F8D305
:10246000641CA4B2BC42F2D3BDE8F08770B55E1A1A
:10247000141A641C761C1433143174439BB289B251
:10248000049DFFF7A7FF102000F010F9A2B2294623
:10249000BDE870400148FFF7F1BB0000DC050020FB
:1024A00030B587B014216846FEF709F97A4801680B
:1024B00041F00201016000684FF4607400F0020016
:1024C00005900120CDE9004002900220734D039059
:1024D00069462846FEF7F6FD012221462846FEF70A
:1024E000E6FE0022A9152846FEF7E1FE0022802123
:1024F0002846FEF7DCFE642008F092FC01228021D1
:102500002846FEF7D4FE642008F08AFC112000F073
:10251000FFF8782008F084FCB22000F0F9F80C20D5
:1025200000F01EF90C2000F01BF9002000F018F953
:10253000332000F015F9332000F012F9352000F0B7
:10254000E7F8002000F00CF9362000F0E1F8002058
:1025500000F006F93A2000F0DBF8052000F000F961
:10256000B72000F0D5F8352000F0FAF8BB2000F0D5
:10257000CFF82D2000F0F4F8C02000F0C9F82C208E
:1025800000F0EEF8C22000F0C3F8012000F0E8F8F7
:10259000C32000F0BDF8152000F0E2F8C42000F0E0
:1025A000B7F8202000F0DCF8C62000F0B1F80F20CA
:1025B00000F0D6F8D02000F0ABF8A42000F0D0F85E
:1025C000A12000F0CDF8D62000F0A2F8A12000F064
:1025D000C7F8E02000F09CF8702000F0C1F805205A
:1025E00000F0BEF80A2000F0BBF80B2000F0B8F8AD
:1025F0000A2000F0B5F8272000F0B2F82F2000F0F4
:10260000AFF8442000F0ACF8472000F0A9F83720DC
:1026100000F0A6F8142000F0A3F8142000F0A0F8B1
:10262000292000F09DF82F2000F09AF8E12000F01A
:102630006FF8702000F094F8072000F091F80C205B
:1026400000F08EF8082000F08BF8082000F088F8E1
:10265000042000F085F82F2000F082F8332000F0ED
:102660007FF8462000F07CF8182000F079F815205B
:1026700000F076F8152000F073F82B2000F070F8C9
:102680002D2000F06DF8212000F042F807B029203D
:10269000BDE8304000F03CB8303802400004024051
:1026A00008210148FFF702BE94060020094A0828C5
:1026B000116808D0102805D1C001D060086840F426
:1026C0000060086070470020D060086820F4006057
:1026D000F7E70000DC050020411F5F2908D800EB68
:1026E000800080016421B0FBF1F002490968C863F1
:1026F000704700009406002001B54FF0FF3301221F
:1027000069460248FFF706FA08BD0000DC05002014
:1027100070B5094D06464FF4007400222146284644
:10272000FEF7C5FD3046FFF7E7FF21462846BDE826
:1027300070400122FEF7BBBD0004024010B5044604
:10274000012251020548FEF7B2FD200AFFF7D4FF2F
:10275000E0B2BDE81040FFF7CFBF00000004024028
:1027600010B50446012251020348FEF7A0FD2046A1
:10277000BDE81040FFF7C0BF00040240044827F046
:10278000B5F900BF33F052FD012034F048FFF9E7FE
:102790004D6F0308094808B5016841F480010160E4
:1027A0000068002200F48000009005213A20FEF726
:1027B0001BFEBDE808403A20FEF708BE3038024054
:1027C00010B545F07DF9044A0021044834F0F4FFC7
:1027D0000349086010BD0000809A04085B2F0008C0
:1027E000000000200D4808B5016841F004010160B7
:1027F000016801F004010091016841F002010160EB
:10280000016801F002010091016841F001010160DD
:10281000006800F00100009008BD00003038024060
:102820000F4810B50D4901604FF4827141600021DD
:102830008160C1604FF400720161C0E90512C1619D
:102840000162416281620A21C162FFF7B2F8002889
:1028500003D0BDE81040FEF7C0BA10BD0030014003
:10286000DC05002010B58EB000240794089409946C
:102870000A940B941C2168460C94FDF720FF1E4817
:102880001C49016040F23F11C0E901146321C0E915
:1028900003148461FFF7CCFA08B1FEF79EFA4FF4F7
:1028A0008050079007A91448FFF73AFB08B1FEF7DC
:1028B00094FA1148FFF7CBFC08B1FEF78EFA0B949F
:1028C0000BA90D480C94FFF775FA08B1FEF785FACD
:1028D0006020CDE900040294082269460648049469
:1028E000FFF74FFC08B1FEF778FA0348FFF720FC2A
:1028F0000EB010BD0004004094060020FEE7FEE785
:10290000C268406809B182617047110481617047F3
:102910000189006889B2FEF7C5BC8268006809B108
:102920008261704711048161704700002DE9F04118
:1029300007460B4815460E460078532801D000F094
:10294000ABFCEFF31184202080F311882A46314636
:10295000384600F007F8E1B281F31188BDE8F08154
:1029600044BF012070B50E46144900EB400001EB56
:10297000C0051446E86A183520B101280FD0022896
:1029800005D113E0284600F0B9FCA04201D2002492
:1029900011E022463146284600F0D6FD0BE02846DD
:1029A00000F0ACFCA042F4D20446F2E731462846DF
:1029B00000F09DFD0446204670BD000044BF01208C
:1029C0000FB408B504A900916A46039900F004F811
:1029D00001B05DF814FB00002DE9F04F82462DEDAB
:1029E000028B97B007A8029040204FF00009039097
:1029F000CDF81090CDE9059A93460C46484600BFA5
:102A000014F8011B002976D025290AD002A800F06D
:102A10004FFD05980028F3DA17B0BDEC028BBDE836
:102A2000F08F00250120217823291ED02B2919D0D1
:102A30002D2902D0302908D102E045F0010501E03E
:102A400045F00205641C0028EDD100272078A0F194
:102A500030010A290CD207EB870100EB4107641C07
:102A6000303FF3E745F00405ECE745F00805E9E7FA
:102A700020784FF0000846462E281BD114F8010F8D
:102A80002A2809D1DBF800004FF00108011DCBF81E
:102A90000010641C06680DE02078A0F130010A29BE
:102AA00008D206EB860100EB4106641C4FF00108DA
:102AB000303EF1E720786C280CD068280AD06628D0
:102AC0006CD00FDC58282FD007DC252861D0462891
:102AD00038D163E014F8010FEDE763280CD06428C7
:102AE00030D110E0702847D073282CD0752812D030
:102AF000782827D118E099E0DBF80000011DCBF819
:102B00000010017846E0DBF800003346011DCBF8E9
:102B10000010016882E0DBF800003346011DCBF8AD
:102B200000100A22016807E0DBF800003346011DAF
:102B3000CBF8001001681022CDE9007502A800BF93
:102B400000F04CFC70E0DBF80000021DCBF8002028
:102B5000056815B93DA54FF0000815F8011BE9B34C
:102B6000B8F1000F00D0CEB302A800F0A1FC059888
:102B7000761E0028F1DA57E0DBF800000822011D7C
:102B8000CBF800100168CDE900291346102202A8F5
:102B9000D6E7252102A800F08BFC45E0DBF8000019
:102BA000C01D20F0070000F10801CBF8001090EDE7
:102BB000000B51EC100B46F0EFFB08EE100AB5EEDF
:102BC000C08AF1EE10FA03D22D2102A800F070FCA9
:102BD000BDEEC80A10EE101A002900E024E000DA69
:102BE0004942CDE9007533460A2202A800F092FB63
:102BF0002E2102A800F05CFC9FED160A28EE000AC8
:102C0000BDEEC00A10EE100A002800DA40424FF470
:102C10007A7190FBF1F201FB12010323CDE90075FB
:102C20000A2202A800F076FB641CF2E600287FF777
:102C3000F3AE049820B1024607A95046FFF776FE8E
:102C4000DDE9041008440590E6E60000284E554CE6
:102C50004C29000000007A4410B5806B01684A6876
:102C600022F003024A60416D41F0100141650121EB
:102C700080F85110FEF79CFE10BD10B5806BFFF779
:102C800075F810BD38B50546846BFEF715FB024696
:102C900028680068C00523D42068416821F020011D
:102CA00041602068416821F00201416064212046B2
:102CB00000F01AF818B1606D40F020006065A0685F
:102CC000002118B92068C26880680090E186012060
:102CD00084F85100606D18B12046FEF769FE38BDDA
:102CE0002046FFF731F838BDF8B515460E460B46BD
:102CF000009204460122022100F02CF8A0B91348EA
:102D000013490068B0FBF1F04FF47A71484300902A
:102D10006068B0F5827F0DD13346002280212046C5
:102D2000009500F017F870B1606D40F0200060650C
:102D30000320F8BD009830B1401E009020688068E4
:102D4000C0430006F6D50020F8BD0000CC050020E9
:102D500000366E012DE9F8431E469146884604462A
:102D6000089DFEF7A9FA401B351AFEF7A5FA07469B
:102D700026480068C0F3CB3068430AE0701C09D0D5
:102D8000FEF79AFAC01BA8420FD275B10098B8B3EB
:102D9000401E00902068816838EA010033D000218D
:102DA0004945EBD10020BDE8F8832068416821F057
:102DB000E00141606068B0F5827F0BD1A068B0F59A
:102DC000004F02D0B0F5806F04D12068016821F077
:102DD00040010160A06AB0F5005F09D12068016878
:102DE00021F4005101602068016841F40051016044
:102DF000012084F85100002084F850000320D2E71D
:102E0000FFE70025C6E70121CAE70000CC05002046
:102E1000DFF8BC90DFF8BCA086B04FF47A7B0023CB
:102E20001A4604A9D9F8000034F034FC20BB9DF800
:102E3000100008BBDAF800005446017801291BD1C4
:102E4000026901A96846904723490098884213D82F
:102E50002249884210DC9DED010AB5EEC00AF1EE70
:102E600010FA09DB10EE101A1D4A914204DC2168A9
:102E70004860206880ED020A3CF010FA10EE108ADB
:102E80003CF072FA10EE104A404646F07DFD41ECEF
:102E9000100B3CF0D5F910EE100A46F075FD064611
:102EA0000F46204646F070FD04460D46404646F06B
:102EB0006BFD41EC100B8DE8F00053EC102B09A1D9
:102EC0000020FFF77DFD584634F0A9FBA7E700007E
:102ED00010000020480400200000A0C1000048426B
:102EE0000000C84250726573737572653A20252ED2
:102EF0003266206850612C2054656D706572617473
:102F00007572653A20252E326620A1E3432C2041BC
:102F10006C7469747564653A20252E3266206D0ADA
:102F20000000000043F00EBC70B5054621F0A0F98A
:102F30000446284621F066FB102C09D123F0B6FF89
:102F400024F0BAF9022803D1BDE8704034F098BCEF
:102F500070BD43F007BC704770474FF4FA642046D9
:102F600034F05DFBFBE710B54FF0E020006945F061
:102F7000AFFF012803D0BDE8104045F0F3BA10BD03
:102F800030B593B030216846FDF799FB14210CA8A9
:102F9000FDF795FB1C480024016841F08051016059
:102FA000006800F0805011901848016841F44041D9
:102FB00001600068022500F4404011900120039058
:102FC00010200490009506950820CDE90740642064
:102FD000CDE9090504200B906846FEF733FB08B1E4
:102FE00072B6FEE70F20CDE90C054FF48050CDE915
:102FF0000E4003210CA81094FEF728FA002801D0F7
:1030000072B6FEE713B030BD403802400070004099
:103010000248016841F470010160704788ED00E0EA
:103020000148FEF7ECBF0000DC060020F0B50268A6
:103030001F4B204C204D214E4FF0804C984207D022
:10304000604505D0A04203D0A84201D0B04203D1D0
:1030500022F070074A683A43984210D060450ED07B
:10306000A0420CD0A8420AD0B04208D0144CA042D2
:1030700005D0144CA04202D0134CA04203D122F43C
:103080004074CA6822434C6922F0800222438C6853
:10309000C4620C688462984201D1096901630168C5
:1030A00041F004010160012141610260F0BD0000B6
:1030B000000001400004004000080040000C0040F7
:1030C00000400140004401400048014010B501F0BB
:1030D0001F030121046A99408C430462016A9A40EB
:1030E0001143016210BD10B5846842EA032224F442
:1030F0007F440A432243826010BD826822F070023E
:103100000A4342F0070181607047000030B5036A4E
:10311000026A22F0010202624268846924F07305A7
:103120000C682C4323F002058B682B430A4DA84200
:103130000BD123F00805CB6822F440722B434D6974
:1031400023F0040315438A692A4342608461496875
:103150004163036230BD00000000014030B5026AE7
:10316000036A23F010030362436884690D6824F442
:10317000E64444EA05248D6822F0200242EA051262
:103180000B4DA8420ED1CD6822F0800242EA051212
:103190004D6923F4406343EA85038D6922F04002C0
:1031A00043EA85034360846149688163026230BDFC
:1031B0000000014030B5036A026A22F480720262A4
:1031C0004268C46923F4007324F073050C682C432F
:1031D0008D6843EA05230C4DA8420ED1CD6823F437
:1031E000006343EA05234D6922F4405242EA051286
:1031F0008D6923F4806342EA05124260C461496824
:10320000C163036230BD00000000014030B5046AB4
:10321000026A22F4805202624268C3690D6823F494
:10322000E64343EA05238D6824F4005444EA053458
:10323000064DA84204D14D6922F4804242EA85122B
:103240004260C36149680164046230BD000001400E
:1032500010B5036A046A24F001040462846924F04E
:10326000F00444EA021423F00A020A438461026271
:1032700010BD10B5036A046A24F010040462846966
:1032800023F0A00324F4704444EA023243EA01111B
:103290008261016210BDFEE710B5134CA8212046E3
:1032A000FDF70DFA03202061606110A0A06104F118
:1032B000A800E0614FF4806020620020A06260629C
:1032C000E0620AA1216604F5956161661021A1669C
:1032D0002067E06660670849C0F10F028A5C2254EB
:1032E000401C1028F8D310BD44BF01205465726DF6
:1032F000696E616C00000000E04206080269C16866
:103300008A4203D88068401A104400E0501A401ED8
:10331000704700002DE9FC5F0E008146DDE90C4797
:10332000C6F1000098469346824600D4084601251F
:1033300003E000BF90FBFBF06D1C5845FADAA8458E
:1033400000D9454624B1002E01DB780700D5641E64
:10335000B80702D5B8F1000F0FD0F8070DD164B14E
:10336000A5420AD220214846641E00F0A1F8D9F8EF
:103370000C000028F3DABDE8FC9FD9F80C00002807
:10338000F9DB002E02DA56462D2102E0780707D538
:103390002B21484600F08CF8D9F80C000028EADB15
:1033A00007F0030002280FD1B8F1000F0CD15CB177
:1033B000A54209D230214846641E00F079F8D9F8B8
:1033C0000C000028F3DAD6E7CDE9004743465A4619
:1033D0003146484600F002F8CDE700002DE9F84FED
:1033E0008246DDE90A4B0126984691460D4608467D
:1033F000374602E0B0FBF9F07F1C4845FAD2B845E9
:1034000000D947465FEACB7017D1B4B15FEA8B7041
:1034100002D5B8F1000F02D0202000900BE0302040
:10342000FBE75046641E009900F042F8DAF80C0001
:10343000002838DB0CB1A742F3D3DAF80C000028DF
:1034400031DB00BFB8F1010F02D9A8F1010803E098
:10345000B5FBF6F0484502D306FB09F6F2E7DFF8C4
:103460004C8000BFB5FBF6F000FB165518F80010B5
:10347000504600F01DF8DAF80C00002803DBB6FB1C
:10348000F9F6002EEED15FEACB700CD0002C0AD0FA
:10349000A74208D220215046641E00F009F8DAF84D
:1034A0000C000028F2DABDE8F88F0000F1420608AF
:1034B00010B50446D4E90130421C934205D3236879
:1034C0001954A260E068401CE060D4E90102824225
:1034D00009D121682069FFF729FAA168884203D041
:1034E0004FF0FF30E06010BD0020A06010BD2DE95E
:1034F000F047C4681746894606464FF00008306911
:10350000A04201D9051B02E0B168201A0D1AB0686B
:103510006D1E001BA84200D80546BD4200D33D46A3
:1035200070682A4620444946FDF74AF8B0687F1B78
:103530002C44A844A944A04200D10024F460002FE8
:10354000DDD14046BDE8F0872DE9F04104468846CC
:10355000D4E90207C51BE168606816460844B54215
:1035600006D94146FDF72CF8B819E060BDE8F081B6
:103570002A464146FDF724F8761B08EB0501324642
:103580006068FDF71DF8E660F0E74100080218BF2B
:1035900004200A0E18BF40F001004FF07F4232EACB
:1035A000010108BF40F00200012808BF0520704754
:1035B0000907090E002804DB00F1E02080F8001460
:1035C000704700F00F0000F1E02080F8141D7047F4
:1035D00010B510EE100A2DED068BB7EE001A10EEA6
:1035E000901AB0EE418A0022A0F5000CDFEDFE9AA1
:1035F0004FF00073BCF1FE4F4FF07F4403EB410CE2
:1036000080F0B481BCF1804FC0F02082F7490144C2
:103610009FEDF73AB1F5005F40F2D48200F58021CA
:10362000CB0C03F00F0101EE901AC3F307137F3B9D
:10363000A0EBC350B8EEE12A00EE100A1A44DFED09
:10364000ED2AF0EE411A42EE221AF0EE613A70EEE7
:10365000232A30EE632A12EE900A00F500606FF321
:103660000B0001EE900A73EEE13A33EE804AC1EEB0
:10367000223A22EE230A10EE100A00F500606FF3E2
:103680000B0000EE100A00EE612A00EE442A62EE02
:10369000232A70EE221A21EEA12ADFEDD73A02EE9C
:1036A000233A23EE023A20EE012A22EE811A03EE9B
:1036B000211A32EE010A10EE100A00F500606FF3D5
:1036C0000B0000EE100A72EE401A31EE812A9FEDD7
:1036D000CB1A60EE011A9FEDCA1A20EE011A9FED77
:1036E000C90A02EE001A31EE810A10EE100A00F546
:1036F00000606FF30B0000EE100AC34871EEC01AB1
:1037000031EE812A784400EBC10090ED003AD0ED13
:10371000011A100101EE100AF8EEC12A32EE211A48
:1037200031EE001A31EE031A31EE221A11EE100AB0
:1037300000F500606FF30B0009EE100A39EE621A13
:1037400031EE431A31EE400A30EE610A32EE40AA01
:1037500010EE900A002100F500606FF30B0008EEF8
:10376000900A084670EEE8AA4FF0000029EE280AF9
:1037700000F00C01F0EEC00A10EE900AB0F18B4F91
:103780000DDD10EE900AB4EB400F08D310EE100AD6
:103790004FF08B4262F31E0008EE900A13E069EED0
:1037A0002A0A38EEAA1A4AEE010A30EE201A11EE61
:1037B000100A00F500606FF30B0008EE900A30EE7F
:1037C000680A70EE209A0C204FF0000038EEA90A2B
:1037D000B5EEC00AF1EE10FA34BFFEEE000AF6EEC6
:1037E000000A30EE800ABDEEC00A10EE100A011188
:1037F00000EE101AF8EEC00A00EE100AB8EEC00A89
:1038000038EEC00A30EE290ADFED801A9FED801AEB
:1038100000EE211ADFED7F1A7F4900F00F0040EE25
:10382000011A21EE800A794401EB800191ED001A22
:103830007A49794401EB8001D1ED001A784901EE13
:10384000801A794401EB8000764990ED000A31EE50
:10385000001AB0EEE00A10EE100A884215DA10EEF7
:10386000100AB4EB400F10D39FED6F0A30EE800AC0
:10387000DFED6E0A20EE200A68EE010ABDEC068B31
:10388000BCEEC00A20EE200A10BD10EE100A6849F6
:10389000884243DA10EE100AB4EB400F3ED3BDEE7F
:1038A000E00A68EE010A10EE100A00EBD072511027
:1038B000C90501F17E5100EE101AA0EB6200C005AF
:1038C00060EE200A00F17E5000EE100A60EE808A61
:1038D00018EE900AB4EB400F0FD10220FCF71EFF48
:1038E00000F0BEF910EE101A18EE100ABDEC068BAF
:1038F00061F31E0000EE100A10BD18EE900A4000A1
:1039000011D018EE900AFFF740FE042808BF00F01F
:10391000AFF9B0EE680ABDEC068B10BDF5EEC00A3B
:10392000F1EE10FA0FD20220FCF7F8FE00F0A0F939
:1039300010EE101A18EE100ABDEC068B61F31E0093
:1039400000EE100A10BD0220FCF7E8FE00F088F936
:1039500010EE101AB0EE480A10EE100ABDEC068BFD
:1039600061F31E0000EE100A10BD00BFBCF1804FD5
:103970006CD300BF00F1FF43B3F1FE4F24D200BF70
:10398000B0EEC00A10EE100AC1F3C7537F2B0DDB57
:10399000972BBFF63BAEC3F196034FF0010C0CFA28
:1039A00003F3A3F1010C1CEA010F08D00120FCF77E
:1039B000B5FEBDEC068BBDE8104000F049B90B42E6
:1039C00018BFBFEE008A21E643001CBF4FF0807392
:1039D000B3EB400F34D96FF01A02DFED161A20EE68
:1039E000210A10EE100A27E000000000001080C03D
:1039F000ABAAAA3E0000803D7EE24C3E00B03842B9
:103A0000D49AB8BB3BAA3842FC0B0600FC5963377A
:103A1000C9FF753A1872313D9A0B0600CE0B0600AD
:103A20003E0B06000000FC420000FE420000004B7E
:103A3000000040430000004D10F0004FA0D1E5E52C
:103A4000A0F50003B3F1FE4F21D2DFE503EB410304
:103A5000B3F1007F11D3F5EEC00AF1EE10FA05D1F3
:103A6000430018BFB4EB400F76D883E701F0004164
:103A700041F0FC5100EE901A7CE7B3F1807F06D252
:103A800010EE903AA3F5000300EE903A72E720F0B2
:103A900000426FF0FF4C604C02EB0C03A34210D3CA
:103AA00021F000439C44A4450BD3B0F17E5F18BFC6
:103AB0005FEA410C50D0B2F1FF4F98BFB3F1FF4F16
:103AC00005D9BDEC068BBDE8104000F0BDB8B0F1E3
:103AD000FF4F0FD0C1F3C7527F2A09DB972A11DAB3
:103AE000C2F19602012303FA02F2531E0B4205D0E3
:103AF000002208E011F0004F55D128E00A4218BF1B
:103B0000012200D1022210F5000F13D028B3B0F12A
:103B1000004F26D010F1814F4FD04FF0FE42B2EB54
:103B2000400F94BF01200020012202EBE171884286
:103B300039D10CE011F0004F02D0012A38D032E028
:103B4000012A02BF9FED350ABDEC068B10BD9FED2B
:103B5000340ABDEC068B10BD2FE011F0004F0CD1E4
:103B600021E0B1F1FF4F1ED011F5000F05D011F08B
:103B7000004F15D00AB1012A08D00220FCF7CEFD73
:103B8000BDEC068BBDE8104000F054B80220FCF7F5
:103B9000C5FD00F04FF8BDEC068BB1EE400A10BD3C
:103BA0000AB1012A04D0B0EE690ABDEC068B10BD43
:103BB000BDEC068B9FED1B0A10BDBDEC068BB7EE6E
:103BC000000A10BD30EE410AB5EE001A9FED172A2B
:103BD00000EE413AB6EE001A60EE001A00EE431A0B
:103BE00061EEC11A9FED101A20EE011A20EE020AB2
:103BF0009FED0F2A01EE820A71EE001A11EE900A73
:103C000000F500606FF30B0009EE100A31EE491A5F
:103C100031EE00AA9CE50000FFFF3F00000080FF9E
:103C20000000807F0000008000B0B841D49A38BB0B
:103C30003BAAB841DFED030AB7EE001A81EE200A75
:103C4000704700000000000030EE200A70470000BE
:103C5000DFED020A80EEA00A7047000000000000BD
:103C60009FED020A20EE000A70470000000000707D
:103C70009FED020A20EE000A7047000000000010CD
:103C800070B5044600256FF02F0608E02068411C3F
:103C90002160007805EB850106EB4101451820689D
:103CA000007800F02CF80028F0D1284670BD70B5DF
:103CB00014460D461BB9114619F010F9034603FBD3
:103CC00005F0142C0ED0E11F03290AD8072C0DD0C3
:103CD000082C0DD0092C0DD00A2C0DD0002100EBA2
:103CE000810070BD590801FB050070BD0221F6E797
:103CF0000421F4E71021F2E74FF48071EFE7303848
:103D0000092801D801207047002070472DE9FC5F89
:103D10009B460CAB8A468146DDE9116093E81210A0
:103D2000DDE90F575FEA80784FF030031AD45EB1B7
:103D30005FEAC07808D000F00C0858EA0C0803D0FD
:103D4000761E01E00B55641CBC4204D2202CF9D332
:103D500001E00B55641C5FEAC07803D0B44201D285
:103D6000202CF6D35FEAC06825D55FEA40580AD414
:103D70004CB1BC4201D0B44205D1641E03D0102D19
:103D800003D1641E04E0102D02D0022D0AD00EE0F3
:103D9000850603D4202C1ED2782506E0202C1AD2CA
:103DA000582502E0202C16D262250D55641C202CCB
:103DB00011D20B55641C202C0DD2BCF1000F01D088
:103DC0002D2306E0430701D52B2302E0030702D58C
:103DD00020230B55641CCDE900BAC8461546814620
:103DE0008B46AA46800714D1274607E02A46DDE91C
:103DF00000316D1C2020C446E0477F1CB742F5D33C
:103E000007E02A466D1C641EDDE900311BF8040042
:103E1000C047002CF5D15FEA897006D409E02A4634
:103E2000DDE900316D1C2020C047A5EB0A00B0423F
:103E3000F5D32846BDE8FC9F2DE9F04F8FB0994699
:103E40008B46DDE91818DDE91C63DDE91A47924667
:103E50008646002209B923F01003580507AD00D5A6
:103E6000C9B1B1FBF4F004FB1010C0B20A2801D2B2
:103E7000303009E05FEA836C02D54FF0410C01E07D
:103E80004FF0610C60440A38B1FBF4F1A854521CA5
:103E900009B1202AE5D3CDF80880CDE90563CDE945
:103EA0000052CDE903474B46524659467046FFF74C
:103EB0002DFF0FB0BDE8F08F2DE9FF4F8FB01CAC88
:103EC000DDE9239594E8030820AC94E8C0040024BD
:103ED00050EA010201D125F010056A050DF11C0818
:103EE00002D550EA010217D032463B46FCF748FAA9
:103EF000D2B20A2A01D2303206E0AB0601D5412304
:103F000000E061231A440A3A08F80420641C50EACD
:103F1000010201D0202CE7D3CDE90084CDF808B010
:103F2000CDE90595CDE9036A0FAF97E80F00FFF7DC
:103F3000EDFE13B0BDE8F08F9A4200D2885470476E
:103F400070473EF003BD70B5054620F091F9044678
:103F5000284620F057FB102C09D122F0A7FF23F0B0
:103F6000ABF9022803D1BDE8704033F089BC70BDC5
:103F70003EF002BD7047704770B5054620F078F9F5
:103F80000446284620F03EFB0A2C04D1BDE87040D0
:103F9000014833F09BBC70BD34040020FEB51646CA
:103FA0000D4604000DD11AA21DA120A08DE8070026
:103FB000264B4FF4997226A1032025F02BFD12F019
:103FC000F1FFA5B1201E20D03246294601F020FA8B
:103FD00000280BD06168006915F0F2F80646216CE4
:103FE00028468847E1680844E0603046FEBD08A2E4
:103FF00026A10EA08DE80700144B40F2331214A145
:10400000032025F007FD12F0CDFF0020FEBD0000CB
:104010004E554C4C20706F696E7465720000000044
:104020006C727520213D204E554C4C0041737365D8
:104030007274656420617420657870726573736949
:104040006F6E3A2025732028257329000F1D06085E
:104050002E2E5C4D6964646C6577617265735C6C6F
:1040600076676C5C7372635C6D6973635C636163D8
:1040700068655C636C6173735C6C765F63616368D5
:10408000655F6C72755F72622E6300006B657920EC
:10409000213D204E554C4C002DE9FF4114460E4663
:1040A00005460A461F4621466846DDF8288012F07C
:1040B0007CFC00281BD0019861682268411A08FB2B
:1040C00001500099891A0D18009831683844441A33
:1040D000684612F058FC002107E0625C6B5C1A44F1
:1040E000FF2A00D9FF226254491C8142F5D3BDE862
:1040F000FF8110B5002440B101F002F9B0F5803F16
:1041000003D20C2800D80C200446204610BD000025
:104110002DE9F04F064691B0D6E90170804696F839
:1041200021B03568F0680F90D6E906400E90D6E9C8
:1041300004A009900AA816F034FA96F8220008B1F3
:104140000020C9E0BAF1000F05D0BBF1FD0F4FF020
:10415000000066D28DE0BBF1FD0F4FF0000017D2DA
:104160001CE000260CE000BF04EB460005EB460116
:104170000088ADF804000AAA019815F003FE761C29
:10418000BE42F1DB0F9805440E98044409F101008A
:1041900081464045E5DB11B0BDE8F08F81464045E2
:1041A000F9DA002613E000BF04EB46000088ADF802
:1041B00004009DF8051011FB0BF0000A8DF80500B6
:1041C00005EB46010AAA019815F0DCFD761CBE42FB
:1041D000EADB0F9805440E98044409F10100DDE77D
:1041E000002614E004EB46000088ADF808009DF8B6
:1041F00009101AF8060011FB00F0000A8DF80900FA
:1042000005EB46010AAA029815F0BCFD761CBE42D9
:10421000E8DB0F98099905440E988A44044409F193
:10422000010081464045DBDBB5E7002617E000BF13
:1042300004EB46000088ADF808009DF809101AF854
:10424000060011FB00F101FB0BF1080C8DF80900D1
:1042500005EB46010AAA029815F094FD761CBE42B1
:10426000E6DB0F98099905440E988A44044409F145
:10427000010081464045D8DB8DE700201EE000BFED
:1042800004EB4900BAF1000F0088ADF8080027D010
:104290009DF809201AF8090012FB00F101FB0BF14F
:1042A0005FEA11408DF8090096F8222005EB4900DD
:1042B0000AAB029904F01EF809F101008146B842E8
:1042C000DEDBBAF1000F01D009998A440F9805444A
:1042D0000E9804440398401C03904045CDDB5AE7F8
:1042E0009DF8091011FB0BF0000ADBE72DE9F04FF8
:1042F000064695B0D6E90170804696F821B035683B
:10430000F0680E90D6E906400C90D6E904900A9029
:1043100096F8220020B110A816F057F90020D0E03E
:10432000B9F1000F05D0BBF1FD0F4FF0000064D2D2
:1043300089E0BBF1FD0F4FF0000019D21EE000BF75
:104340004FF000094E460BE004EB460005EB8901F7
:10435000427814F8160015F0B2FF09F10109761C35
:10436000BE42F1DB0E9805440C9804440AF10100AA
:1043700082464045E4DB15B0BDE8F08F82464045FB
:10438000F9DA4FF000094E460FE000BF04EB46009B
:10439000417811FB0BF0020A05EB890114F81600B5
:1043A00015F08DFF09F10109761CBE42EEDB0E9877
:1043B00005440C9804440AF10100DFE74FF0000ABD
:1043C000564610E004EB4600417819F8060011FB50
:1043D00000F0020A05EB8A0114F8160015F06FFFD1
:1043E0000AF1010A761CBE42ECDB0E980A990544DC
:1043F0000C98894404440BF1010083464045DDDB01
:10440000B9E700BF4FF0000A564612E004EB460041
:10441000417819F8060011FB00F000FB0BF0020CCC
:1044200005EB8A0114F8160015F049FF0AF1010A9C
:10443000761CBE42EADB0E980A9905440C98894422
:1044400004440598401C05904045DBDB93E70020C1
:10445000039028E014F81A100298B9F1000F61F3E4
:10446000174061F30F2061F3070004EB4A012CD0E1
:10447000039A4B7819F8021013FB01F101FB0BF1C1
:104480005FEA114161F31F600290039896F82220C1
:1044900005EB800010AB029903F07AFF0398401CF3
:1044A00003900AF101008246B842D3DBB9F1000F54
:1044B00001D00A9881440E9805440C98044405984C
:1044C000401C05904045C2DB55E74A7812FB0BF1D2
:1044D000090AD7E72DE9F04F054687B0D5E901670E
:1044E00090F821B000680090E8680290D5E9064095
:1044F0000390D5E904900490686AC11700EB5171EC
:1045000021F00701A0EB010A95F8220008B1002074
:1045100029E1B9F1000F05D0BBF1FD0F4FF000000C
:1045200070D2E2E0BBF1FD0F4FF000002ED233E07D
:104530004FF0000845461FE008EB0A018B46009843
:104540000AF05FFCC0EB00208DF8040004EB45008E
:1045500001A9427814F8150015F0CEFE9DF804006C
:1045600059467F28009802D93AF04EFC01E006F047
:10457000EBF808F101086D1CB542DDDB02990098EB
:10458000084400900398044409F101008146B842B0
:10459000CEDB07B0BDE8F08F8146B842F9DA4FF0C4
:1045A0000008454623E000BF08EB0A01019100988E
:1045B0000AF027FCC0EB00208DF8100004EB45004A
:1045C000417811FB0BF0020A14F8150004A915F04C
:1045D00093FE9DF810007F28DDE9000102D93AF032
:1045E00013FC01E006F0B0F808F101086D1CB542BB
:1045F000DADB00990298084400900398044409F11A
:104600000100C9E735E000BF4FF00008454624E04F
:1046100008EB0A01019100980AF0F3FBC0EB0020BF
:104620008DF8140004EB4500417819F8050011FBE2
:1046300000F0020A14F8150005A915F05DFE9DF8BA
:1046400014007F28DDE9000102D93AF0DDFB01E02A
:1046500006F07AF808F101086D1CB542D8DB029922
:1046600000980844009003980499044489440BF18D
:1046700001008346B842C7DB8BE700BF4FF000085C
:10468000454626E008EB0A01019100980AF0B9FBC3
:10469000C0EB00208DF8140004EB4500417819F8B8
:1046A000050011FB00F101FB0BF10A0C14F81500D9
:1046B00005A915F021FE9DF814007F28DDE9000111
:1046C00002D93AF0A1FB01E006F03EF808F101083A
:1046D0006D1CB542D6DB02990098084400900398FF
:1046E0000499044406988944401C0690B842C5DBEE
:1046F0004FE70020059026E014F818100198B9F152
:10470000000F61F3174061F30F2061F3070004EB22
:1047100048012CD04B7819F8081013FB01F101FB6C
:104720000BF1090C61F31F600190059895F8223098
:1047300000EB0A01DDE9000203F0B8FE0598401C19
:10474000059008F101008046B042D5DBB9F1000FB9
:1047500001D0049989440099029808440090039874
:1047600004440698401C0690B842C2DB11E74A7820
:1047700012FB0BF1090AD5E72DE9F04F064691B07F
:10478000D6E90170804696F821B03568F0680F9040
:10479000D6E906400D90D6E904900B9096F82200D9
:1047A00008B10020C7E0B9F1000F05D0BBF1FD0F43
:1047B0004FF0000063D288E0BBF1FD0F4FF0000026
:1047C00018D21DE04FF000094E460BE004EB460006
:1047D00005EB0901427814F8160015F09BFD09F16C
:1047E0000109761CBE42F1DB0F9805440D98044484
:1047F0000AF1010082464045E4DB11B0BDE8F08FCC
:1048000082464045F9DA4FF000094E460FE000BFFE
:1048100004EB4600417811FB0BF0020A05EB09019D
:1048200014F8160015F076FD09F10109761CBE4258
:10483000EEDB0F9805440D9804440AF10100DFE710
:104840004FF0000A564610E004EB4600417819F894
:10485000060011FB00F0020A05EB0A0114F816002D
:1048600015F058FD0AF1010A761CBE42ECDB0F98E8
:104870000B9905440D98894404440BF101008346CB
:104880004045DDDBB9E700BF4FF0000A564612E0B5
:1048900004EB4600417819F8060011FB00F101FB1A
:1048A0000BF10A0C05EB0A0114F8160015F032FDA5
:1048B0000AF1010A761CBE42EADB0F980B99054407
:1048C0000D98894404440498401C04904045DBDB67
:1048D00093E70020039020E014F81A100098B9F133
:1048E000000F61F3174061F30F2061F3070026D03A
:1048F000039A19F8022012FB0BF1090A61F31F60F9
:104900000090039896F822202844009903F04CFE6A
:104910000398401C03900AF101008246B842DBDB99
:10492000B9F1000F01D00B9881440F9805440D9800
:1049300004440498401C04904045CADB5DE76BF3D7
:104940001F60DDE72DE9F04F064687B0D6E901701C
:10495000814696F821B03468F0680290D6E9065096
:104960000190D6E904A0039096F8220008B1002037
:1049700065E1BAF1000F05D0BBF1FD0F4FF000006B
:1049800067D28CE0BBF1FD0F4FF000001AD21FE0A0
:104990000026B0460EE000BF05EB480034F81610C4
:1049A000427815F8180015F00FFC24F8160008F1ED
:1049B0000108761CBE42EFDB0298044401980544CE
:1049C0000AF1010082464845E2DB07B0BDE8F08FFE
:1049D00082464845F9DA0026B04610E005EB48006B
:1049E000417811FB0BF0020A34F8161015F8180084
:1049F00015F0EAFB24F8160008F10108761CBE4207
:104A0000ECDB02980444019805440AF10100DFE759
:104A10000026B04613E000BF05EB480041781AF8C5
:104A2000060011FB00F0020A34F8161015F8180001
:104A300015F0CAFB24F8160008F10108761CBE42E6
:104A4000EADB0298044401980544039882440BF180
:104A5000010083464845DBDBB7E70026B04614E09B
:104A600005EB480041781AF8060011FB00F101FB44
:104A70000BF10A0C34F8161015F8180015F0A4FB09
:104A800024F8160008F10108761CBE42E8DB029803
:104A9000044401980544039882440098401C009007
:104AA0004845DADB91E700BF4FF000084046049428
:104AB000B6E0009815F810104FEAD10E880896F865
:104AC0002210012911D002292CD003295AD00429FF
:104AD00072D0C8B25CA1CDE90010634B4FF42572CF
:104AE0006249022024F096FF6FE7049931F818100C
:104AF0000EEBD1221F2A00D31F224FF6FF7303EAC9
:104B0000C222C1F3451318443F2800D33F2002EBD3
:104B1000401082B201F01F0101EB0E001F2869D383
:104B20001F2067E0049A32F81820CEEBD22100292A
:104B300000DC00214FF6FF7303EAC121C2F34513E5
:104B4000181A002800DC002001EB401081B202F0AE
:104B50001F02A2EB0E00002800DC0020084480B2F7
:104B6000BAF1000F48D01AF80820BBF1FD0F4DD262
:104B7000009905EB4101497812FB01F101FB0BF1B2
:104B80000A0C43E0049931F81810CB0A13FB0EF21B
:104B900053094FF6FF7202EAC322C1F3451313FB18
:104BA00000F0800902EB401001F01F0212FB0EF131
:104BB00000EB5110D3E7FFE7049931F81830CEEB42
:104BC000D321002901DCAEEBD3214FF6FF7202EABC
:104BD000C12CC3F34512111A002900DC811A0CEB19
:104BE000411082B203F01F01A1EB0E00002801DC8E
:104BF000AEEB01001044B2E70099BBF1FD0F05EBED
:104C000041014A7802D212FB0BF10A0A34F818105B
:104C100015F09AF824F81800009808F10108001D12
:104C20000090B845FFF645AF0298BAF1000F044472
:104C30000198054401D003998A440598401C0590C9
:104C40004845FFF631AFC0E64E6F74207375707043
:104C50006F7274656420626C656E64206D6F64654C
:104C60003A2025640000000091D90508CC480608C8
:104C70002DE9F04F064687B0D6E90170814696F8D7
:104C800021B03468F0680290D6E906500190D6E968
:104C900004A0039096F8220008B1002083E1BAF145
:104CA000000F05D0BBF1FD0F4FF0000076D2A1E060
:104CB000BBF1FD0F4FF000001FD224E00026B046EC
:104CC00013E000BF34F8160015F0F0FC014605EBC8
:104CD0004800427815F8180015F0A6FA15F0E6FC21
:104CE00024F8160008F10108761CBE42EADB02989F
:104CF0000444019805440AF1010082464845DDDB81
:104D000007B0BDE8F08F82464845F9DA0026B04684
:104D100016E000BF34F8160015F0C8FC014605EB9C
:104D20004800427812FB0BF0020A15F8180015F043
:104D30007BFA15F0BBFC24F8160008F10108761C7C
:104D4000BE42E7DB02980444019805440AF10100E1
:104D5000D9E70026B04617E034F8160015F0A6FC97
:104D6000014605EB48001AF80620407810FB02F0D7
:104D7000020A15F8180015F057FA15F097FC24F8F8
:104D8000160008F10108761CBE42E5DB0298039983
:104D9000044401988A4405440BF1010083464845C8
:104DA000D7DBADE70026B0461AE000BF34F81600A6
:104DB00015F07CFC014605EB480042781AF8060025
:104DC00012FB00F000FB0BF0020C15F8180015F0B8
:104DD0002BFA15F06BFC24F8160008F10108761C7C
:104DE000BE42E3DB02980399044401988A440544D7
:104DF0000098401C00904845D4DB81E739462046A6
:104E000004941DF0DFFD4FF000084046BCE0009820
:104E100096F8221015F810004FEAD00E80080129EC
:104E200011D002292DD003295BD0042973D0C9B237
:104E300065A0CDE900016C4B4FF42A726B4902204A
:104E400024F0E8FD5CE7049A32F818100EEBD1224A
:104E50001F2A00D31F224FF6FF7303EAC222C1F3B9
:104E6000451318443F2800D33F2002EB401082B284
:104E700001F01F0101EB0E001F2800D31F2010447A
:104E80001CE0049A32F81820CEEBD223002B00DC71
:104E900000234FF6FF7101EAC321C2F34513181A2C
:104EA000002800DC002001EB401002F01F02A2EB02
:104EB0000E0180B2002900DC0021084480B2BAF162
:104EC000000F4AD01AF80820BBF1FD0F71D300BFC4
:104ED00034F8181014F038FF15F0E8FB24F8180027
:104EE0004EE0049A32F81810CB0A13FB0EF2530965
:104EF0004FF6FF7202EAC322C1F3451313FB00F021
:104F0000800902EB401001F01F0212FB0EF100EBD2
:104F10005110D3E7FFE7049931F81830CEEBD321D5
:104F2000002901DCAEEBD3214FF6FF7202EAC12269
:104F3000C3F3451CACEB0001002901DCA0EB0C0124
:104F400002EB411003F01F01A1EB0E0280B2002A18
:104F500001DCAEEB01021044B0E70099BBF1FD0F9C
:104F600005EB41014A78B3D212FB0BF15FEA112243
:104F700034F8181014F0E8FE15F098FB24F8180027
:104F8000009808F10108001D0090B845FFF63FAFFA
:104F90000298BAF1000F04440198054401D0039827
:104FA00082440598401C05904845FFF627AFA7E6C8
:104FB000FFE7009905EB4101497812FB01F202FB82
:104FC0000BF2120CD4E700004E6F742073757070F2
:104FD0006F7274656420626C656E64206D6F6465C9
:104FE0003A2025640000000062DA0508104906082E
:104FF0002DE9F34F064685B0D6E90170804696F854
:1050000021B03568F0680190D6E906400090D6E9F5
:105010000490039096F8220008B10020CAE0B9F18C
:10502000000F05D0BBF1FD0F4FF0000063D288E008
:10503000BBF1FD0F4FF0000018D21DE04FF000094A
:105040004E460BE004EB460005EB0901427814F8EC
:10505000160015F019F90698761C8144BE42F1DB62
:1050600001980544009804440AF101008246404535
:10507000E4DB07B0BDE8F08F82464045F9DA4FF037
:1050800000094E460FE000BF04EB4600417811FBDB
:105090000BF0020A05EB090114F8160015F0F4F8FC
:1050A0000698761C8144BE42EEDB019805440098C8
:1050B00004440AF10100DFE74FF0000A564610E011
:1050C00004EB4600417819F8060011FB00F0020AD3
:1050D00005EB0A0114F8160015F0D6F80698761CB0
:1050E0008244BE42ECDB0198039905440098894450
:1050F00004440BF1010083464045DDDBB9E700BF06
:105100004FF0000A564612E004EB4600417819F8C9
:10511000060011FB00F000FB0BF0020C05EB0A018E
:1051200014F8160015F0B0F80699761C8A44BE42B1
:10513000EADB0198039905440098894404440298E5
:10514000401C02904045DBDB93E70020029023E007
:1051500014F81A00B9F1000F60F3070160F30F2192
:1051600060F3174104EB4A0029D04378029819F8FC
:10517000000013FB00F000FB0BF0000C60F31F615C
:10518000029896F82220284403F07AFA06990298A9
:10519000084402900AF101008246B842D8DBB9F116
:1051A000000F01D0039989440198054400980444F4
:1051B0000498401C014604904045C6DB59E74278FC
:1051C00012FB0BF0000AD9E77CB54D1E04462942BC
:1051D0000DD009A11848CDE9000100F12001174BBD
:1051E0004FF4F672032024F015FC11F0DBFE04EA04
:1051F0000500201A7CBD000030203D3D2028616C58
:1052000069676E20262028616C69676E202D203129
:10521000292920262620226D75737420616C696708
:105220006E20746F206120706F776572206F66202A
:1052300074776F2200000000D88E00089E210608B7
:105240001CB544184A1E641E944311420CD007A199
:1052500016A0CDE900011C4B4FF4FA721BA10320EC
:1052600024F0D8FB11F09EFE20461CBD30203D3DB1
:105270002028616C69676E20262028616C69676E42
:10528000202D2031292920262620226D7573742097
:10529000616C69676E20746F206120706F77657232
:1052A000206F662074776F220000000041737365E1
:1052B00072746564206174206578707265737369B7
:1052C0006F6E3A2025730000A92106082E2E5C4D32
:1052D0006964646C6577617265735C6C76676C5C3D
:1052E0007372635C7374646C69625C6275696C741C
:1052F000696E5C6C765F746C73662E6300000000F0
:105300007CB54E1E0C46054631420DD00849094871
:10531000CDE9000100F12001074B4FF4F3720320A7
:1053200024F078FB11F03EFE2819401EB0437CBDEE
:10533000F8510008D88E0008952106083EB5442093
:1053400024F0DAFB040005D04422002124F063FDA0
:1053500020463EBD0BA20FA111A08DE80700184BFF
:10536000C02218A1032024F055FB11F01BFE24A03D
:105370000090134BC22213A1032024F04BFB00200A
:105380003EBD00004F7574206F66206D656D6F72B5
:105390007900000072657320213D204E554C4C0071
:1053A00041737365727465642061742065787072EE
:1053B000657373696F6E3A20257320282573290061
:1053C0002D1D06082E2E5C4D6964646C6577617234
:1053D00065735C6C76676C5C7372635C6D69736338
:1053E0005C63616368655C636C6173735C6C765F5E
:1053F00063616368655F6C72755F72622E63000043
:105400006D616C6C6F63206661696C65640000009F
:105410002DE9F04186B00D4604000CD12BA22FA13E
:1054200031A08DE80700384B982238A1032024F0E2
:10543000F1FA11F0B7FD75B3002C3AD004F1280051
:10544000294680462CF0D4F9039000283BD0076908
:105450006168384613F0B4FE06462946384662684D
:1054600024F01EFC04F1340024F0F5F90490002827
:1054700023D0042203A924F013FC204603990AF048
:1054800047FA042204A924F00BFC21463046626846
:1054900013F086FF17E0FFE70CA22BA112A08DE806
:1054A0000700194B992219A1032024F0B3FA11F037
:1054B00079FD002006B0BDE8F081404603992CF04C
:1054C0005BF8002003900398F4E700004E554C4C25
:1054D00020706F696E746572000000006C72752038
:1054E000213D204E554C4C004173736572746564C8
:1054F0002061742065787072657373696F6E3A20ED
:1055000025732028257329001E1D06082E2E5C4DAC
:105510006964646C6577617265735C6C76676C5CFA
:105520007372635C6D6973635C63616368655C631C
:105530006C6173735C6C765F63616368655F6C72EA
:10554000755F72622E6300006B657920213D204EED
:10555000554C4C00FEB50F460121002504462E4651
:10556000C16309E028A12EF0B9F808B16D1C02E072
:10557000E06B401CE063761C57F8260010B1017800
:105580000029EFD1A06BA8423DD0206B002610B1BE
:105590001FF0D6FD2663606B10B11FF0D1FD66636E
:1055A000280124F0A9FA206300280DD117A21BA11D
:1055B00021A08DE80700284B40F2153227A10320D7
:1055C00024F028FA11F0EEFC680024F095FA6063EC
:1055D00000280DD10DA231A117A08DE807001E4BA8
:1055E00040F217321DA1032024F014FA11F0DAFC66
:1055F000206B08B1606B00B900256A000021606B68
:1056000024F009FCA563FEBD0A0000004F7574205C
:105610006F66206D656D6F727900000062746E6D4B
:105620002D3E627574746F6E5F61726561732021C7
:105630003D204E554C4C0000417373657274656497
:105640002061742065787072657373696F6E3A209B
:1056500025732028257329002A2D06082E2E5C4D3F
:105660006964646C6577617265735C6C76676C5CA9
:105670007372635C776964676574735C6275747474
:105680006F6E6D61747269785C6C765F627574744C
:105690006F6E6D61747269782E63000062746E6D56
:1056A0002D3E6374726C5F6269747320213D204EDD
:1056B000554C4C003EB5C07A00F00F00062808D2C9
:1056C000DFE800F00705030303030C4602E014467D
:1056D00000E0402404EB4400C01C20F00305E01C63
:1056E00020F0030028440C3024F006FA38B100F111
:1056F0000C01016029180C31C0E901143EBD07A25C
:105700000AA10EA08DE80700144B702214A10320FB
:1057100024F080F911F046FC00203EBD4F75742046
:105720006F66206D656D6F72790000006974656D3C
:1057300020213D204E554C4C000000004173736504
:105740007274656420617420657870726573736922
:105750006F6E3A202573202825732900EED60508A0
:105760002E2E5C4D6964646C6577617265735C6C48
:1057700076676C5C7372635C647261775C73775C90
:105780006C765F647261775F73775F677261642EB6
:105790006300000070B5044690F85C10E26B880767
:1057A000606C04D420B1431C18D0401E6064A8B9BA
:1057B0000AB1880712D52146194824F0F1F800F003
:1057C00031F8216909B120468847616909B120464D
:1057D00088472046BDE870401FF0B2BC21F00800A9
:1057E00084F85C00D4E90C1500238D4200DD6B1AAF
:1057F000256C5B1B6363002A10D0830702D4A36B64
:105800005B42636343105B1C63F3410084F85C00FC
:10581000E36A606A6362E163C4E90B0270BD000081
:10582000C8BD002070B5174C012504F1AC0084F808
:10583000A45023F0EBFF0028D4F8A80004D0A8B1AE
:10584000BDE8704030F046BE18B1BDE8704030F0A1
:10585000A7BD94F8A600002807D000220A491046E8
:1058600016F0B2F8002084F8A60070BD94F8A600E7
:105870000028FAD100220449104615F0D9FD84F819
:10588000A65070BD1CBD0020E95900082DE9F04765
:10589000544D95F8A50038B15FF0000085F8A500DB
:1058A0005048AC30814690E00120F7E7206D30F0A1
:1058B000C9FB94F85C10C9071ED0606D30F0C2FBC4
:1058C0000146A06D421C1AD0884218D8091A94F8D3
:1058D0005C0020F0010084F85C00626B114461639D
:1058E00095F8A51029B120F0040000BF84F85C00F1
:1058F00005E040F00400F9E7616B0844606330F0B4
:10590000A7FB2065002085F8A40094F85C00C1077F
:1059100062D195F8A510C0F380028A425CD061F391
:10592000820084F85C0001071ED4616B002948DB0B
:10593000C00609D4A16939B120468847616A01448B
:105940006162E16A0844E062204634F077FBE16876
:1059500009B12046884794F85C0040F0080084F8BC
:105960005C00204634F07CF9606B002829DB216B59
:105970008046884200DD6163216A2046676B884764
:105980000646A06AB0420DD0A662626812B13146E6
:105990002068904795F8A400B0B9A2682AB13146B2
:1059A0002046904795F8A40070B9606BB84202D1C8
:1059B0004046C4F83480216B884202DB2046FFF762
:1059C000E9FE95F8A40038B1484623F01FFF040013
:1059D0007FF46CAFBDE8F0872146484623F028FFEE
:1059E000F5E700001CBD00200020FFF74FBF0000BE
:1059F0002DE9F043C469ADB00546816E26680022EA
:105A00000AA820F003FC012819D11598002813D00A
:105A10000088C0F307200E2817D0062815D00AA842
:105A200020F04CFB5BA06B4B40F2F72200906AA188
:105A3000022023F0EFFFABE00AA820F03FFB73A0A9
:105A4000644B4FF43C720090F1E71598583525AF40
:105A500001891FFA81F92ECD87E82E0040680022C7
:105A6000010C491E83B20091114606A85B1E11F07D
:105A7000EEF800252B46092206A925A8009510F06E
:105A8000CDFD04F114000FC887E80F0025AA06A970
:105A900021A810F08AFF002857D01D951E951F954C
:105AA000209520682699808880B2401E1F902298F9
:105AB000401A401E20901DA9206816F0A1FB2699CF
:105AC0002498401A401C1E902068691E406801EB13
:105AD000104020901DA9206816F092FB259921986E
