:020000040800F2
:1000000078CB0120410300086F2B00081D25000854
:100010006D2B0008850B0008033500080000000068
:100020000000000000000000000000008102000845
:10003000310E000800000000DD020008D331000886
:100040005B0300085B0300085B0300085B03000818
:100050005B0300085B0300085B0300085B03000808
:100060005B0300085B030008330E00085B03000815
:100070005B0300085B0300085B0300085B030008E8
:100080005B0300085B0300085B030008000000003E
:10009000000000000000000000000000390E000811
:1000A0005B0300088D3200085B0300085B03000857
:1000B0005B0300085B0300085B0300085B030008A8
:1000C0005B0300085B0300085B0300085B03000898
:1000D0005B0300085B0300085B03000800000000EE
:1000E0005B0300085B0300085B03000800000000DE
:1000F0000000000000000000000000005B0300089A
:10010000000000005B0300085B0300085B030008BD
:1001100000000000000000000000000000000000DF
:100120005B0300085B030008810D00085B03000807
:100130005B03000800000000000000000000000059
:100140000000000000000000000000005B03000849
:100150005B0300085B0300085B0300085B03000807
:100160005B0300085B0300080000000000000000C3
:10017000000000000000000000000000000000007F
:10018000000000005B030008000000000000000009
:100190005B0300085B03000800F002F800F061F860
:1001A0000AA090E8000C82448344AAF10107DA45D2
:1001B00001D100F056F8AFF2090EBAE80F0013F0C3
:1001C000010F18BFFB1A43F001031847B87F060060
:1001D000D87F06000A444FF0000C10F8013B13F0E2
:1001E000070408BF10F8014B1D1108BF10F8015B90
:1001F000641E05D010F8016B641E01F8016BF9D183
:1002000013F0080F1EBF10F8014BAD1C0C1B09D1D9
:100210006D1E58BF01F801CBFAD505E014F8016B4B
:1002200001F8016B6D1EF9D59142D6D370470000DD
:100230000023002400250026103A28BF78C1FBD8EF
:10024000520728BF30C148BF0B607047642900F0D7
:100250007B81002070471FB54BF0BBFD1FBD10B563
:1002600010BD00F02FFB1146FFF7F5FF38F0AAFA9A
:1002700000F04DFB03B4FFF7F2FF03BC00F050FBAE
:100280002C4B19680868B0E8F04F80F30988BFF379
:100290006F8F4FF0000080F311887047000000005E
:1002A00008480068006880F308884FF0000080F379
:1002B000148862B661B6BFF34F8FBFF36F8F00DF54
:1002C00000BF00BF08ED00E0DFF80C00016841F45A
:1002D00070010160704700BF88ED00E0EFF3098016
:1002E000BFF36F8F134B1A681EF0100F08BF20ED7D
:1002F000108A20E9F04F106009B44FF0500080F3ED
:100300001188BFF34F8FBFF36F8F49F0A5FF4FF0F8
:10031000000080F3118809BC19680868B0E8F04F44
:100320001EF0100F08BFB0EC108A80F30988BFF3ED
:100330006F8F704774050020EFF305807047000051
:100340000948804709480047FEE7FEE7FEE7FEE769
:10035000FEE7FEE7FEE7FEE7FEE7FEE704480549A5
:10036000054A064B704700007D32000899010008DD
:1003700078C5012078CB012078C7012078C70120FB
:1003800053EA020C00F069802DE9F04B4FF00006B3
:10039000002B1FBFB3FA83F503FA05F424FA05F620
:1003A0005E4012BF1643B2FA82F502FA05F4C5F1B7
:1003B00020051EBF22FA05FC44EA0C04203556EA4B
:1003C000044C4FEA144418BF641C4FF000084FF06F
:1003D0000009904271EB030C39D3002919BFB1FA1F
:1003E00081F701FA07F6B0FA80F700FA07F6C7F1CD
:1003F00020071EBF20FA07FC46EA0C062037B6FB92
:10040000F4FCA7EB0507103F07F01F0BCBF120060C
:100410000CFA0BFB2CFA06F644BFB3460026202F3D
:10042000A4BF5E464FF0000B5BEA060C08BF4FF01E
:10043000010B19EB0B09ABFB027C48EB0608C01B58
:1004400006FB02CC0BFB03CC71EB0C01C1E70B46A6
:10045000024641464846BDE8F08B13B54FF0000018
:100460004FF00001AFF30080BDE81C40704710B5AD
:100470004C1084EA530404D54042C1F1000138BF56
:10048000491E1B4204D55242C3F1000338BF5B1E14
:10049000FFF776FF14F0804F04D04042C1F1000115
:1004A00038BF491E14F0004F04D05242C3F100037C
:1004B00038BF5B1E10BD00000FB41CB5074B06AA69
:1004C0007B4469460090059800F0B9F90020694620
:1004D00000F0C8F91CBC5DF814FB0000A10300008B
:1004E0002DE9F0410E460446002020622046E168D6
:1004F000884730B3252805D0D4E901219047206AE8
:10050000401CF2E7E168204600278847050018D024
:10051000A5F14100192802D820354FF40067324672
:10052000294620462760FFF791FE40B1012804D0FC
:10053000F61D26F007060836D8E7361DD6E728460A
:10054000DAE7206ABDE8F0812DE9F0410646002493
:1005500010687529314616A510D0AFF30080002829
:1005600002DA404213A507E031688A0701D512A5D7
:1005700002E0490704D511A5012401E0AFF3008092
:1005800000210A2206F1240709E0B0FBF2FCB0FBCF
:10059000F2F302FB1C00303078541846491C002846
:1005A000F3D123462A463046BDE8F04100F0E8B8D2
:1005B000000000002D0000002B00000020000000C3
:1005C00040EA010310B59B070FD1042A0DD310C8D0
:1005D00008C9121F9C42F8D020BA19BA884201D922
:1005E000012010BD4FF0FF3010BD1AB1D30703D06A
:1005F000521C07E0002010BD10F8013B11F8014B20
:100600001B1B07D110F8013B11F8014B1B1B01D13B
:10061000921EF1D1184610BD032A40F2308010F02E
:10062000030C00F0158011F8013BBCF1020F62448D
:1006300098BF11F801CB00F8013B38BF11F8013B1E
:10064000A2F1040298BF00F801CB38BF00F8013BCB
:1006500011F0030300F02580083AC0F0088051F83B
:10066000043B083A51F804CBA0E80810F5E7121D46
:100670005CBF51F8043B40F8043BAFF30080D20765
:1006800024BF11F8013B11F801CB48BF11F8012B31
:1006900024BF00F8013B00F801CB48BF00F8012B54
:1006A000704710B5203AC0F00B80B1E81850203ADE
:1006B000A0E81850B1E81850A0E81850BFF4F5AF02
:1006C0005FEA027C24BFB1E81850A0E8185044BF8C
:1006D00018C918C0BDE810405FEA827C24BF51F8F9
:1006E000043B40F8043B08BF7047D20728BF31F8ED
:1006F000023B48BF11F8012B28BF20F8023B48BF3E
:1007000000F8012B704702F0FF0343EA032242EA9C
:10071000024200F0AEB84FF0000200B51346944616
:100720009646203922BFA0E80C50A0E80C50B1F149
:100730002001BFF4F7AF090728BFA0E80C5048BF5D
:100740000CC05DF804EB890028BF40F8042B08BFFB
:10075000704748BF20F8022B11F0804F18BF00F8F7
:10076000012B704770477047704710B500F0A2F832
:10077000006810BD10B5044600F09CF8046010BD80
:100780002DE9F0470D4699469246044600F12408AB
:100790000168880604D5E06921F01001216000E0BD
:1007A0000120A84201DD471B00E00027A1697A195A
:1007B00002EB0900081AA0612078C00602D4204686
:1007C000AFF30080002608E0D4E901211AF8060002
:1007D0009047206A401C761C20624E45F4DB20784E
:1007E000C0060AD52046AFF3008006E0D4E9012117
:1007F00030209047206A401C2062381EA7F1010774
:10080000F4DC07E0D4E9012118F805009047206ADC
:10081000401C2062281EA5F10105F3DC2046AFF341
:1008200000802078000602D50220BDE8F087012074
:10083000FBE7000001694A1C02610878704700B5B7
:100840008FB0CDE901310021059105497944CDE909
:10085000031011466846FFF743FE0FB000BD0000CD
:10086000E5FFFFFF0A6802F8010B0A6070474FF0CE
:1008700000020429C0F0128010F0030C3FF44DAFC9
:10088000CCF1040CBCF1020F18BF00F8012BA8BF7B
:1008900020F8022BA1EB0C01FFF73FBF5FEAC17C00
:1008A00024BF00F8012B00F8012B48BF00F8012BF2
:1008B000704700000048704714C501200048704789
:1008C00014C501207546FFF7F9FFAE4605006946DD
:1008D000534620F00700854618B020B5FFF73EFDCF
:1008E000BDE820404FF000064FF000074FF0000831
:1008F0004FF0000B21F00701AC46ACE8C009ACE8B2
:10090000C009ACE8C009ACE8C0098D46704710B515
:100910000446AFF300802046BDE81040FFF7AABCB4
:1009200001491820ABBEFEE7260002007047000018
:1009300010B5184811F070FF28200AF097FF00F05A
:10094000FDF8000721D4134812F000F87021114877
:1009500011F0C1FF0F4812F031F8BE210D4811F01F
:10096000BAFF0C4812F02AF808210A4811F0B3FF28
:10097000084812F023F80021064811F0ACFF0548A2
:1009800012F01CF8034811F0FDFF0A200AF06EFF78
:10099000002010BDD804002070B506462DED028B56
:1009A00084B00D460A245C4811F0D0FF70215A48EB
:1009B00011F091FF584812F001F8AC21564811F09F
:1009C0008AFF554811F0FAFF3321534811F083FF95
:1009D000514811F0F3FF00214F4811F07CFF4E48C1
:1009E00011F0ECFF4C4811F0CDFF50200AF03EFF13
:1009F00008E005200AF03AFF641E14F0FF047AD0E4
:100A000000F09CF800F09AF8000601D5002CF0D117
:100A1000414811F09BFF71213F4811F05CFF3E48B7
:100A200011F0CCFF3C4811F015FF8DF800003A485A
:100A300011F039FF384811F00DFF8DF801003648EC
:100A400011F031FF344811F005FF8DF802003248F3
:100A500011F029FF304811F0FDFE8DF803002E48FB
:100A600011F021FF2C4811F0F5FE8DF804002A4802
:100A700011F019FF284811F0EDFE8DF80500264809
:100A800011F04CFF244811F07DFF9DF801009DF806
:100A90000210000300EB01109DF8031000EB111091
:100AA00002904AF01DFF9FED1D1B53EC112B4AF0E5
:100AB0002BFF9FED1C8B53EC182B4AF025FF4AF0BF
:100AC000DDFC28609DF803009DF804100007000B72
:100AD00000EB01209DF80510084400904AF000FF4B
:100AE0009FED121B53EC112B4AF00EFF53EC182B09
:100AF0004AF00AFF00E00DE09FED0E1B53EC112BB6
:100B00004BF00CF84AF0BAFC3060002004B0BDECA9
:100B1000028B70BD0120F9E7D8040020000000001E
:100B200000005940000000000000B03E000000003E
:100B300000006940000000000000494010B50D4869
:100B400011F004FF71210B4811F0C5FE094811F0A6
:100B500035FF084811F07EFE0446064811F0DEFE1F
:100B6000044811F00FFF224603A1002002F060F8B4
:100B7000204610BDD80400207374617475733A2048
:100B800025780A00FEE70146F92000F0D7B80000FA
:100B900030B5144887B0016841F001010160016877
:100BA00001F001010591016841F002010160006856
:100BB0004FF4004400F0020005900120CDE9004010
:100BC00002900220084D03906946284600F0B8FACA
:100BD00001222146284600F0A8FB044811F01CFE23
:100BE00007B030BD3038024000000240C804002089
:100BF000022000F05FB8000008B504226946032017
:100C000000F01EF89DF800109DF8010001F00F01A2
:100C100040EA0121054801609DF802209DF803107B
:100C200002F00F0241EA0221416008BDC004002029
:100C300010B5FFF7ADFFBDE810400520FFF7A3BFDB
:100C40002DE9F041044615460E46194811F07EFE86
:100C50002A21174811F03FFE154811F0AFFE21463A
:100C6000134811F038FE124811F0A8FE104811F098
:100C70006DFE2B210E4811F02EFE0D4811F09EFE48
:100C800000246F1E09E000BF11F0E4FD3055BC42A6
:100C900002DA074811F007FE641C0548AC42F3DB9A
:100CA00011F03CFEBDE8F041014811F06BBE0000C0
:100CB000C804002010B50446134811F047FE2A214D
:100CC000114811F008FE104811F078FE21460E4838
:100CD00011F001FE0C4811F071FE0B4811F036FEC8
:100CE0002B21094811F0F7FD074811F067FE06486F
:100CF00011F0B0FD0446044811F010FE024811F056
:100D000041FE204610BD0000C804002070B50A4D09
:100D10004FF4004400222146284600F006FB0A203A
:100D20000AF0A4FD01222146284600F0FEFABDE8A3
:100D3000704064200AF09ABD0000024070B504467D
:100D40000D460E4811F002FE2A210C4811F0C3FD99
:100D50000A4811F033FE2146084811F0BCFD07484F
:100D600011F02CFE2946054811F0B5FD034811F09D
:100D700025FEBDE87040014811F004BEC804002003
:100D8000014800F05FB80000DC060020016818236D
:100D9000CAB2103AB2FBF3F2054B6FF30901032A12
:100DA0009B5CC36500D9091D81650846704700003A
:100DB000BC72060810B5014600208B698A6A4FF0A4
:100DC000C07453B1B3F5005F15D072B1012A0CD0D5
:100DD000022A0AD0032A09D104E01AB1012A06D056
:100DE000022A03D1C96AC90100D5012010BDC96A10
:100DF000A142FAD010BD002AF7D0012AF2D0022A6F
:100E0000F3D0032AF3D010BD30B50468256825F46B
:100E100080252560046863608368402B036803D0E5
:100E200099600068C26030BD9A600068C16030BDE2
:100E30007047102000F078B9202000F075B972B624
:100E4000FEE700002DE9F84304464FF00009CDF815
:100E5000009063484FF41651A56D0068B0FBF1F7A0
:100E60002E6894F85C10082000FA01F131420FD08E
:100E700021680A6852070BD50A6822F004020A604A
:100E800094F85C108840A860606D40F001006065D7
:100E900094F85C104FF0010808FA01F0304208D0D5
:100EA00021684969090604D5A860606D40F0020018
:100EB000606594F85C1004208840304208D02168B6
:100EC0000968890704D5A860606D40F0040060657A
:100ED00094F85C1010208840304218D021680968CE
:100EE000090714D5A86020680168490304D5006883
:100EF000000308D5A16C07E00168C90503D40168A7
:100F000021F008010160216C09B12046884794F85E
:100F10005C1020208840304231D021680968C90621
:100F20002DD5A86094F8350005282068016806D002
:100F3000490347D5006800031DD4616C1CE021F013
:100F4000160101602068416921F080014161206C37
:100F500008B9A06C20B12068016821F00801016087
:100F600094F85C103F208840A86084F8358084F8AD
:100F70003490216D1FE0E16B09B120468847606D18
:100F800000282BD0606DC00714D0052084F83500F0
:100F90002068016821F0010101600098401C009068
:100FA000B84203D820680068C007F6D184F83580BD
:100FB00084F83490E16C002910D001B02046BDE8DF
:100FC000F04308470168C905D5D4016821F0100134
:100FD000016084F8358084F83490CCE7BDE8F8836C
:100FE000740600202DE9F041044600F0A3F90646FE
:100FF0005CB1022084F83500002584F83450206864
:10100000016821F0010101600DE00120BDE8F081DF
:1010100000F090F9801B052805D920206065032089
:1010200084F83500F2E720680068C007F0D1226834
:10103000116820480140D4E901031843D4E903367C
:101040003343184363691843A3691843E36918439A
:10105000236A18430843616A042903D1D4E90B13B6
:1010600019430843106020684069666A20F0070150
:1010700030460E43012704280CD1A06A0643E06ADB
:1010800040B12046FFF796FE20B14020606584F80D
:101090003570BAE7206846612046FFF777FE94F87E
:1010A0005C203F2191408160656584F835700020A7
:1010B000ACE700003F8010F02DE9F0410446866D5A
:1010C00090F83400002501280DD0012084F8340068
:1010D00094F835700020012F07D084F834000225E1
:1010E0002846BDE8F0810220FBE7022784F835702E
:1010F00060652046FFF788FE94F85C103F2088402A
:10110000B0602068016841F016010160206C20B1D8
:101110002068016841F0080101602068016841F021
:1011200001010160DCE77047044910B50A6802421A
:1011300002D00860FFF7F7FF10BD0000143C01402B
:101140002DE9F84FDFF8B8A10022012403254FF064
:101150000F090AF1040BAAF1040E00BF0B6804FA90
:1011600002F63340B34273D10F7907F00307012F22
:1011700001D0022F16D187684FEA420805FA08FC11
:1011800027EA0C07D1F80CC00CFA08FC4CEA070C53
:10119000C0F808C04768B7430E79C6F300169640FA
:1011A0003E4346600E79F643B6070DD0C768560039
:1011B00005FA06FC27EA0C07D1F808C00CFA06FC71
:1011C0004CEA070CC0F80CC00E7906F00306022E9C
:1011D00010D1D60800EB8608D8F8206057074FEAF0
:1011E000D76C09FA0CF7BE430F6907FA0CF73743BF
:1011F000C8F8207006684FEA420C05FA0CF7BE43A7
:101200000F7907F0030707FA0CF7374307604E68BA
:1012100016F4403F6DD03B4E376847F48047376047
:10122000366822F0030706F480460096364E07EB38
:10123000060CDCF8086897073F0F09FA07F826EA5A
:101240000806DFF8C880404503D14FF000081EE0D3
:101250004FE0DFF8BC80404502D14FF0010816E0B6
:10126000DFF8B080404502D14FF002080FE0DFF810
:10127000A880404502D14FF0030808E0DFF89C80C9
:10128000404502D14FF0040801E04FF0070808FA8A
:1012900007F848EA0608CCF80888DAF800605746EC
:1012A000D1F804C09E435FEACC2C00D51E433E60BB
:1012B000DBF800605F46D1F804C09E435FEA8C2CE7
:1012C00000D51E433E60DEF800607746D1F804C0CA
:1012D0009E435FEA8C3C00D51E433E60084F083FAA
:1012E0003E68D1F804C09E435FEACC3C00D51E4363
:1012F0003E60521C102AFFF431AFBDE8F88F0000A9
:10130000083C0140443802400030014000000240E7
:101310000004024000080240000C0240001002409D
:101320000069084000D0012070470AB18161704710
:101330000904FBE701488068704700007806002038
:101340000248816802781144816070477806002065
:101350000B4810B5016841F400710160016841F467
:1013600080610160016841F480710160032000F038
:1013700099F80F2000F006F800F04AF8002010BDA0
:10138000003C024030B505461C4887B00024016887
:1013900041F001010160006806A900F00100009021
:1013A00001A800F02BF900F049F91549154AB0FBE6
:1013B000F1F11548491E026040F2E732C0E903240A
:1013C000C0E90114846100F071FD040012D10E48DF
:1013D00000F0AEFD04000DD1192000F035F8102DFD
:1013E00007D200222946192000F03CF80748056082
:1013F00000E0012407B0204630BD00004438024020
:1014000040420F0000000140840700207C060020BD
:101410000C4882B0016841F480410160006800F42A
:10142000804000900748001F016841F08051016032
:101430000068002200F0805000900F21901E02B042
:1014400000F010B844380240002809DB00F01F0209
:10145000012191404009800000F1E020C0F8001116
:1014600070470000F0B40E4B1B680C46C3F3022318
:10147000C3F10705042D00D90425191D072901D240
:10148000002300E0DB1E012606FA05F1491E21407B
:1014900099409E40761E16403143F0BC02F0BEB922
:1014A0000CED00E0064900F0070208684FF6FF0364
:1014B000184040EA0220034A1043086070470000C9
:1014C0000CED00E00000FA052DE9F0470E4605009E
:1014D00065D0DFF81481D8F80000F7B200F00700FB
:1014E000B04207D288F80070D8F8000000F007007A
:1014F000B04254D128683D4C810712D5400703D52E
:10150000206840F4E05020602878000703D5206868
:1015100040F4604020602068A96820F0F000084393
:1015200020602878C0072DD0304968680839012824
:1015300012D0022813D0032811D009688907002986
:101540002DDA216821F0030101432160FFF7F2FE4B
:10155000814641F2883A0EE009688903EFE709689D
:101560008901ECE7FFF7E6FEA0EB0901514502D93E
:101570000320BDE8F0872068696800F00C00B0EB3C
:10158000810FEFD1D8F80010404601F00701B142B9
:1015900007D90770006800F00700B04201D00120B1
:1015A000E7E72878400705D52068E96820F4E0508F
:1015B000084320602878000706D52068296920F4B0
:1015C000604040EAC100206000F048F82168084A05
:1015D000C1F30311515CC840064908600648006821
:1015E000FFF7D0FE0020C4E7003C0240083802406C
:1015F000A4720608740600207C0600200F220260F8
:101600000C4A136803F003034360136803F0F0030C
:101610008360136803F4E053C36012684FF4E0532F
:1016200003EAD20202610448006800F00700086083
:101630007047000008380240003C02400448054959
:1016400000680968044AC1F34231515CC8407047E0
:101650007406002008380240B4720608154810B518
:10166000006810F00C02144813D01449042A0FD05B
:10167000082A0ED10F4C241F2268236802F03F0273
:101680005B0207D52068C0F38810A0FB010106E0CB
:10169000084610BD2168C1F38811A1FB0001002399
:1016A000FEF76EFE2168C1F30141491C4900B0FB01
:1016B000F1F010BD083802400024F40040787D01AC
:1016C0002DE9F84F04006ED02078DFF84C93C00766
:1016D000A9F104054AD009F104000168C1F38101B0
:1016E000012908D00068C0F3810002280AD1D9F886
:1016F0000000400206D52868800337D560680028BE
:10170000E1D033E06068B0F5803F10D0B0F5A02F95
:10171000286810D020F480302860286820F48020C9
:1017200028606068A8B1FFF705FE06460DE028684E
:1017300040F48030F4E740F480202860F7E700BFF1
:10174000FFF7F8FD801B642873D828688003F7D55D
:101750000CE0FFF7EFFD064605E000BFFFF7EAFDEE
:10176000801B6428F0D828688003F7D42078DFF83D
:10177000AC8280074FF0000A3ED5A748001D0168E3
:1017800011F00C0F08D00068C0F3810002280BD1C3
:10179000D9F80000400207D42868800716D5E06811
:1017A000012800D112E033E1E068B8B10120C8F8A7
:1017B0000000FFF7BFFD064605E000BFFFF7BAFDDA
:1017C000801B0228C0D828688007F7D528682169BF
:1017D00020F0F80040EAC10028600DE0C8F800A041
:1017E000FFF7A8FD064604E0FFF7A4FD801B0228D2
:1017F0001FD828688007F7D42078000722D5864FA5
:1018000087486169703771B101210160FFF792FD6E
:10181000064604E0FFF78EFD801B022809D83868D1
:101820008007F7D50EE0C0F800A0FFF783FD06465D
:1018300005E082E0FFF77EFD801B02287DD8386836
:101840008007F7D42078400768D5DFF8CCB10027AF
:101850000BF13C0BDBF80000C0000BD4DBF80010F0
:1018600041F08051CBF80010DBF80000012700F0B8
:10187000805000906B4E3068C00510D4306840F442
:1018800080703060FFF756FD009005E0FFF752FDD5
:101890000099401A022850D83068C005F6D55E4E2F
:1018A000A0686C3601280FD00528306810D020F0D1
:1018B00001003060306820F004003060A068B8B1EA
:1018C000FFF738FD00900FE0306840F00100F4E7CA
:1018D00040F004003060F7E7FFF72CFD0099411A53
:1018E00041F28830814266D830688007F4D50EE036
:1018F000FFF720FD009007E0FFF71CFD0099411A5B
:1019000041F28830814256D830688007F4D42FB134
:10191000DBF8001021F08051CBF80010A069C8B3AB
:101920003D49091D0968C1F3810102294AD00228F5
:10193000504607D0C8F8600000E03CE0FFF7FAFC32
:1019400004463BE04746C8F86000FFF7F3FC064654
:1019500005E000BFFFF7EEFC801B02282BD82868AB
:101960008001F7D4D4E907010843A16A2E4A490847
:1019700002EB0141626A41EA8211084394F82C109B
:1019800040EA0161C9F8001001203866FFF7D2FC77
:10199000044606E03EE000BFFFF7CCFC001B022837
:1019A00009D828688001F7D534E000BFFFF7C2FCF2
:1019B000001B022802D90320BDE8F88F28688001A7
:1019C000F4D427E00128F7D0D9F80000E26900F448
:1019D000800191421CD1226A00F03F01914217D14F
:1019E00047F6C071626A0140B1EB821F10D1A26A52
:1019F0004FF0FF3300F4403103EB5202B1EB024FE2
:101A000006D194F82C1000F07060B0EB016F01D09B
:101A10000120D1E70020CFE7043802400000474210
:101A2000800E4742007000400000FFFF704770B515
:101A3000040009D0606A002540B125616561A56296
:101A400094F8510040B10CE0012070BD6068B0F521
:101A5000827FF4D0E561F2E784F85050204600F030
:101A600045F8022084F851002068016821F0400107
:101A70000160A088218900F4827001F404410843C8
:101A8000A18901F400610843217C01F002010843AF
:101A9000217D01F001010843218B01F4007108430D
:101AA000217F01F03801084394F8201001F08001F3
:101AB0000843218D01F40051084321680860A069A2
:101AC000042101EA104094F8241001F010010843A9
:101AD000216848602068C16921F40061C1616565C1
:101AE000012084F85100002070BD000070B586B060
:101AF000064614216846FEF70EFE204930688842EB
:101B00003AD11F480025016841F480510160006806
:101B100000F4805005901A481438016841F0020121
:101B200001600068694600F00200059028200090DE
:101B30000220CDE9010503200390052004901148FF
:101B4000FFF7FEFA114C104820604FF08060606093
:101B50004020C4E90205000120614000606180006E
:101B6000C4E90605256220466562FFF73BFA08B125
:101B7000FFF765F9B464A66306B070BD003001409C
:101B8000443802400004024040640240DC06002069
:101B90002DE9F84F984616468A460446FFF7CAFBD9
:101BA000814694F8510001281ED1BAF1000F73D07C
:101BB000002E71D094F85000012815D0012784F828
:101BC0005070032084F8510000256565C4F830A0EA
:101BD000A686E686A563A587E58765642564A06873
:101BE000B0F5004F03D00CE00220BDE8F88F20686C
:101BF000016821F0400101602068016841F48041E2
:101C0000016020680168490603D4016841F0400181
:101C10000160E068B0F5006F606803D048B3012E42
:101C200027D047E008B1012E1FD1206B2168008822
:101C3000C86006E020688168890709D5216B09889A
:101C4000C160206B801C2063E08E401EE0860CE0AB
:101C5000FFF770FBA0EB0901414503D3B8F1FF3F4B
:101C600003D035E0B8F1000F32D0E08E0028E1D18A
:101C700023E0206B21680078087306E02068816803
:101C800089070AD5216B09780173206B401C2063FA
:101C9000E08E401EE0860DE02BE0FFF74BFBA0EB53
:101CA0000901414503D3B8F1FF3F03D010E0B8F17B
:101CB000000F0DD0E08E0028E0D14A464146204674
:101CC00001F04AF908B120206065A06830B109E050
:101CD00084F8517084F85050032086E72068C1686A
:101CE0008068009084F8517004F8505F60680028A4
:101CF000F3D0012079E7000070B5044690F8510058
:101D000001281CD1C9B1C2B194F85000012816D0E5
:101D1000012084F85000032084F8510000256565F7
:101D20002163A286E286A56365642564A587E587AD
:101D3000A068B0F5004F04D00DE0012070BD022076
:101D400070BD2068016821F04001016020680168D1
:101D500041F480410160A16C17480864A16C1748E8
:101D6000C863A16C1648C864A06C0565E38E226840
:101D7000216B0C32A06CFFF79FF930B1606D40F021
:101D80001000606584F85050D7E720680168490664
:101D900003D4016841F04001016084F8505020688C
:101DA000416841F0200141602068416841F0020132
:101DB0004160002070BD0000EB2E0008F52E0008E9
:101DC000C92E0008064910B5884208D1082000F045
:101DD0009DFD04480068BDE810401AF0E5BA10BD4A
:101DE00084060020F805002070474FF0E021042809
:101DF000086903D020F004000861704740F0040037
:101E0000FAE710B5401EB0F1807F01D3012010BD6C
:101E10004FF0E02460610F21601701F0FFFC00200B
:101E2000A06107202061002010BD704770470000AE
:101E300070B590F83C20012A2CD0012480F83C4059
:101E4000022280F83D2003685A689D6822F07006DF
:101E50000A6832435A60104B02689A420ED0B2F1BF
:101E6000804F0BD00D4B9A4208D00D4B9A4205D0B3
:101E70000C4B9A4202D00C4B9A4204D1496825F08F
:101E800080031943916080F83D40002180F83C10A8
:101E9000084670BD022070BD0000014000040040F3
:101EA00000080040000C00400040014010B5040054
:101EB00003D094F83D0010B107E0012010BD0020D0
:101EC00084F83C00204600F01FF8022084F83D0012
:101ED000211D206801F0E0F9012084F8460084F813
:101EE0003E0084F83F0084F8400084F8410084F804
:101EF000420084F8430084F8440084F8450084F8E4
:101F00003D00002010BD000008B500680649884269
:101F100008D10648016841F002010160006800F044
:101F20000200009008BD000000040040403802405C
:101F300090F83D10012901D001207047022180F85E
:101F40003D100168CA6842F00102CA6000680E498B
:101F500088420ED0B0F1804F0BD00C49884208D097
:101F60000B49884205D00B49884202D00A49884271
:101F700004D1816801F00701062903D0016841F00E
:101F80000101016000207047000001400004004092
:101F900000080040000C00400040014070B50446BD
:101FA00090F83C000025012817D0012684F83C60F9
:101FB000022084F83D002068826822F0770222F433
:101FC0007F4282600868502838D00DDC20284FD02E
:101FD00005DC90B3102811D14AE0022070BD3028F2
:101FE00046D040280AD13BE060282FD070280DD081
:101FF000B0F5805F03D0B0F5005F12D0012584F802
:102000003D60002084F83C00284670BDCB68D1E9D3
:102010000121206801F09DF92068816841F0770175
:1020200009E0CB68D1E90121206801F092F920682C
:10203000816841F480418160E1E719E0CA6849683C
:10204000206801F03BFA5021206806E0CA68496820
:10205000206801F044FA6021206801F084F9CEE79D
:10206000CA684968206801F029FA40212068F4E72D
:10207000226801461046F0E770472DE9F04104461A
:102080000068C66805694FF00007A90713D5B107B6
:1020900011D5F91E01610120207720688069800731
:1020A000204602D0FFF7E8FF04E000F0A7F8204642
:1020B00000F039F92777680716D5700714D521681D
:1020C0006FF004000861022020772068806910F416
:1020D000407F204602D0FFF7CFFF04E000F08EF8EB
:1020E000204600F020F92777280715D5300713D5AB
:1020F00021686FF008000861042020772068C0691B
:102100008007204602D0FFF7B7FF04E000F076F822
:10211000204600F008F92777E80616D5F00614D512
:1021200021686FF010000861082020772068C069DE
:1021300010F4407F204602D0FFF79EFF04E000F03D
:102140005DF8204600F0EFF82777E80708D0F007A1
:1021500006D021686FF001000861204600F03CF9CC
:10216000280608D5300606D521686FF08000086182
:102170002046FFF75AFE680608D5700606D5216886
:102180006FF040000861204600F030F9A8060AD53B
:10219000B00608D521686FF0200008612046BDE830
:1021A000F041FFF743BEBDE8F081000010B586B0F6
:1021B000044614216846FEF7AEFA0D4920688842AD
:1021C00014D10C480021026842F00202026000684B
:1021D00000F002000590012000900220CDE90101ED
:1021E000CDE9031069460448FEF7AAFF06B010BD0A
:1021F000000400403038024000040240704770B5CF
:10220000044690F83C0000260D4601280FD001201E
:1022100084F83C006AB1042A1DD0082A2FD00C2A69
:102220003FD00126002084F83C00304670BD0220DB
:1022300070BD206801F0A0F82068816941F00801B4
:1022400081612068816921F00401816120688169D0
:102250002A69114311E0206801F0B6F8206881690D
:1022600041F4006181612068816921F480618161AC
:10227000206881692A6941EA02218161D2E72068E8
:1022800001F0CEF82068C16941F00801C161206801
:10229000C16921F00401C1612068C1692A69114343
:1022A00011E0206801F0E8F82068C16941F400619C
:1022B000C1612068C16921F48061C1612068C16980
:1022C0002A6941EA0221C161ACE710B5040003D0DC
:1022D00094F83D0010B107E0012010BD002084F803
:1022E0003C00204600F01EF8022084F83D00211D2D
:1022F000206800F0D1FF012084F8460084F83E00F9
:1023000084F83F0084F8400084F8410084F84200DB
:1023100084F8430084F8440084F8450084F83D00C4
:10232000002010BD7047704710B50446022249B125
:1023300004290ED0082913D094F84100012816D0A2
:10234000012010BD94F83E000128F9D184F83E2008
:102350000FE094F83F000128F2D184F83F2008E014
:1023600094F840000128EBD184F8402001E084F883
:1023700041200122206800F0DFFF124920688842D6
:1023800003D1426C42F400424264206888420ED07D
:10239000B0F1804F0BD00C49884208D00B498842DD
:1023A00005D00B49884202D00A49884204D181688D
:1023B00001F00701062903D0016841F00101016025
:1023C000002010BD00000140000400400008004053
:1023D000000C00400040014000680349884201D1E0
:1023E000FEF7AEBF704700000000014070470000DC
:1023F0000E4D0F4E0F4C00BF0EF080FE0068A8423D
:1024000010D10CF074FE2069007801280AD10CF07C
:1024100048FE316800F024F8C0B2411EDB2901D229
:1024200021694870322037F000FAE5E77C0100208E
:102430001C0000205C0400201CB5064806A10069B1
:1024400042786846FEF738F804486946C06828F0C4
:102450003DF91CBD5C040020256400007C010020C7
:1024600070B504460D462B4812F04DFB10B12948BB
:1024700009F02AFA2748203012F045FB18B1254808
:10248000203009F021FA2348403012F03CFB18B10B
:102490002048403009F018FA21461E480CF0CCFEC6
:1024A0001C48294620300CF0C7FE1A481A4CD0E9C7
:1024B000032191422CD38268914229D342689142F0
:1024C00026D94269914223D38269914220D3C069BF
:1024D00081421DD90F48A11C203002690888131AB7
:1024E000B3F5D57F14D3488092B20A80101A4EF605
:1024F000602191FBF0F1074840300CF09DFE05484B
:102500004030C16921B10721001D00F008F820709A
:10251000207870BDF007002042050020FEE710B5CE
:1025200000231A4604E050F82240521C2344D2B241
:102530008A42F8D3B3FBF1F0C0B210BD38B509F050
:102540007FF912F0CFFC204C2068C068804701253D
:10255000012801D120680570A068406880470128E3
:1025600001D1A0680570E06840688047012801D16A
:10257000E0680570206940688047012804D120691F
:10258000057020698068804700F0BAF800204FF499
:102590008C73F0220146009000F075F800F0B0F95D
:1025A000322000F0C9F9FEF743FBFEF7AFFB26F03F
:1025B00023FD30F02FFB30F049FB46F09FFEBDE8D5
:1025C0003840002047F02ABD5C0400200D4C00205C
:1025D00012F0C4FC012802D0022806D101E00AA1B1
:1025E00000E00DA1002000F023FB10212046FEF7A3
:1025F00097FE02460CA1002000F01AFB012037F0E4
:1026000014F9E4E7000002404B657931205072650F
:10261000737365640A0000004B657932205072655F
:10262000737365640A0000006B6579323A25640AA9
:10263000000000002DE9F04107461C4615460E46F5
:102640002A2000F095F9380A00F0BAF9F8B200F043
:10265000B7F9280A00F0B4F9E8B200F0B1F92B207C
:1026600000F086F9300A00F0ABF9F0B200F0A8F9FA
:10267000200A00F0A5F9E0B200F0A2F9BDE8F041AF
:102680002C2000F075B92DE9F04780461F4603F174
:10269000130083B21646501E82B20C4601F114009C
:1026A00081B24046DDF82090FFF7C4FF0AE04546BE
:1026B00004E0484600F072F96D1CADB2B542F8D3A3
:1026C000641CA4B2BC42F2D3BDE8F08770B55E1AB8
:1026D000141A641C761C1433143174439BB289B2EF
:1026E000049DFFF7A7FF102000F010F9A2B22946C1
:1026F000BDE870400148FFF7FFBA000084060020E3
:1027000030B587B014216846FEF705F87A480168AD
:1027100041F00201016000684FF4607400F00200B3
:1027200005900120CDE9004002900220734D0390F6
:1027300069462846FEF704FD012221462846FEF799
:10274000F4FD0022A9152846FEF7EFFD00228021A6
:102750002846FEF7EAFD642009F088F8012280216E
:102760002846FEF7E2FD642009F080F8112000F011
:10277000FFF8782009F07AF8B22000F0F9F80C2080
:1027800000F01EF90C2000F01BF9002000F018F9F1
:10279000332000F015F9332000F012F9352000F055
:1027A000E7F8002000F00CF9362000F0E1F80020F6
:1027B00000F006F93A2000F0DBF8052000F000F9FF
:1027C000B72000F0D5F8352000F0FAF8BB2000F073
:1027D000CFF82D2000F0F4F8C02000F0C9F82C202C
:1027E00000F0EEF8C22000F0C3F8012000F0E8F895
:1027F000C32000F0BDF8152000F0E2F8C42000F07E
:10280000B7F8202000F0DCF8C62000F0B1F80F2067
:1028100000F0D6F8D02000F0ABF8A42000F0D0F8FB
:10282000A12000F0CDF8D62000F0A2F8A12000F001
:10283000C7F8E02000F09CF8702000F0C1F80520F7
:1028400000F0BEF80A2000F0BBF80B2000F0B8F84A
:102850000A2000F0B5F8272000F0B2F82F2000F091
:10286000AFF8442000F0ACF8472000F0A9F837207A
:1028700000F0A6F8142000F0A3F8142000F0A0F84F
:10288000292000F09DF82F2000F09AF8E12000F0B8
:102890006FF8702000F094F8072000F091F80C20F9
:1028A00000F08EF8082000F08BF8082000F088F87F
:1028B000042000F085F82F2000F082F8332000F08B
:1028C0007FF8462000F07CF8182000F079F81520F9
:1028D00000F076F8152000F073F82B2000F070F867
:1028E0002D2000F06DF8212000F042F807B02920DB
:1028F000BDE8304000F03CB83038024000040240EF
:1029000008210148FFF710BD3C070020094A0828AC
:10291000116808D0102805D1C001D060086840F4C3
:102920000060086070470020D060086820F40060F4
:10293000F7E7000084060020411F5F2908D800EB5C
:10294000800080016421B0FBF1F002490968C8638E
:10295000704700003C07002001B54FF0FF33012213
:1029600069460248FFF714F908BD000084060020FC
:1029700070B5094D06464FF40074002221462846E2
:10298000FEF7D3FC3046FFF7E7FF21462846BDE8B7
:1029900070400122FEF7C9BC0004024010B5044695
:1029A000012251020548FEF7C0FC200AFFF7D4FFC0
:1029B000E0B2BDE81040FFF7CFBF000000040240C6
:1029C00010B50446012251020348FEF7AEFC204632
:1029D000BDE81040FFF7C0BF00040240074828F0E0
:1029E000FBFB00224FF47A71054834F041FF00BF31
:1029F00035F004F8012036F018FFF9E75D87030889
:102A000021B40208094808B5016841F48001016059
:102A10000068002200F48000009005213A20FEF7B3
:102A200021FDBDE808403A20FEF70EBD30380240D7
:102A300010B547F0D7F8044A0021044836F05CFF8F
:102A40000349086010BD0000E8BD0408C731000854
:102A5000000000200D4808B5016841F00401016044
:102A6000016801F004010091016841F00201016078
:102A7000016801F002010091016841F0010101606B
:102A8000006800F00100009008BD000030380240EE
:102A90000F4810B50D4901604FF48271416000216B
:102AA0008160C1604FF400720161C0E90512C1612B
:102AB0000162416281620A21C162FEF7B8FF00280B
:102AC00003D0BDE81040FEF7BAB910BD0030014098
:102AD0008406002010B58EB0002407940894099451
:102AE0000A940B941C2168460C94FDF714FE1E48B2
:102AF0001C49016040F23F11C0E901146321C0E9A3
:102B000003148461FFF7D2F908B1FEF798F94FF486
:102B10008050079007A91448FFF740FA08B1FEF764
:102B20008EF91148FFF7D1FB08B1FEF788F90B9435
:102B30000BA90D480C94FFF77BF908B1FEF77FF95C
:102B40006020CDE9000402940822694606480494F6
:102B5000FFF755FB08B1FEF772F90348FFF726FBB4
:102B60000EB010BD000400403C070020FEE7FEE769
:102B7000C268406809B18261704711048161704781
:102B80000189006889B2FEF7CBBB8268006809B191
:102B90008261704711048161704700002DE9F041A6
:102BA00007460B4815460E460078532801D000F022
:102BB000A9FCEFF31184202080F311882A463146C6
:102BC000384600F007F8E1B281F31188BDE8F081E2
:102BD0005CC0012070B50E46144900EB400001EBCB
:102BE000C0051446E86A183520B101280FD0022824
:102BF00005D113E0284600F0B7FCA04201D2002422
:102C000011E022463146284600F0D4FD0BE028466C
:102C100000F0AAFCA042F4D20446F2E7314628466E
:102C200000F09BFD0446204670BD00005CC0012002
:102C30000FB408B504A900916A46039900F004F89E
:102C400001B05DF814FB00002DE9F04F82462DED38
:102C5000028B97B007A8029040204FF00009039024
:102C6000CDF81090CDE9059A93460C46484600BF32
:102C700014F8011B002976D025290AD002A800F0FB
:102C80004DFD05980028F3DA17B0BDEC028BBDE8C6
:102C9000F08F00250120217823291ED02B2919D05F
:102CA0002D2902D0302908D102E045F0010501E0CC
:102CB00045F00205641C0028EDD100272078A0F122
:102CC00030010A290CD207EB870100EB4107641C95
:102CD000303FF3E745F00405ECE745F00805E9E788
:102CE00020784FF0000846462E281BD114F8010F1B
:102CF0002A2809D1DBF800004FF00108011DCBF8AC
:102D00000010641C06680DE02078A0F130010A294B
:102D100008D206EB860100EB4106641C4FF0010867
:102D2000303EF1E720786C280CD068280AD066285D
:102D30006CD00FDC58282FD007DC252861D046281E
:102D400038D163E014F8010FEDE763280CD0642854
:102D500030D110E0702847D073282CD0752812D0BD
:102D6000782827D118E099E0DBF80000011DCBF8A6
:102D70000010017846E0DBF800003346011DCBF877
:102D80000010016882E0DBF800003346011DCBF83B
:102D900000100A22016807E0DBF800003346011D3D
:102DA000CBF8001001681022CDE9007502A800BF21
:102DB00000F04AFC70E0DBF80000021DCBF80020B8
:102DC000056815B93DA54FF0000815F8011BE9B3DA
:102DD000B8F1000F00D0CEB302A800F09FFC059818
:102DE000761E0028F1DA57E0DBF800000822011D0A
:102DF000CBF800100168CDE900291346102202A883
:102E0000D6E7252102A800F089FC45E0DBF80000A8
:102E1000C01D20F0070000F10801CBF8001090ED74
:102E2000000B51EC100B48F029FB08EE100AB5EE30
:102E3000C08AF1EE10FA03D22D2102A800F06EFC38
:102E4000BDEEC80A10EE101A002900E024E000DAF6
:102E50004942CDE9007533460A2202A800F090FBF2
:102E60002E2102A800F05AFC9FED160A28EE000A57
:102E7000BDEEC00A10EE100A002800DA40424FF4FE
:102E80007A7190FBF1F201FB12010323CDE9007589
:102E90000A2202A800F074FB641CF2E600287FF707
:102EA000F3AE049820B1024607A95046FFF776FE1C
:102EB000DDE9041008440590E6E60000284E554C74
:102EC0004C29000000007A4410B5806B01684A6804
:102ED00022F003024A60416D41F010014165012179
:102EE00080F85110FEF7A2FD10BD10B5806BFEF703
:102EF0007BFF10BD38B50546846BFEF71BFA024612
:102F000028680068C00523D42068416821F02001AA
:102F100041602068416821F002014160642120463F
:102F200000F01AF818B1606D40F020006065A068EC
:102F3000002118B92068C26880680090E1860120ED
:102F400084F85100606D18B12046FEF76FFD38BD62
:102F50002046FEF737FF38BDF8B515460E460B463E
:102F6000009204460122022100F02CF8A0B9134877
:102F700013490068B0FBF1F04FF47A7148430090B8
:102F80006068B0F5827F0DD1334600228021204653
:102F9000009500F017F870B1606D40F0200060659A
:102FA0000320F8BD009830B1401E00902068806872
:102FB000C0430006F6D50020F8BD000074060020CE
:102FC00000366E012DE9F8431E46914688460446B8
:102FD000089DFEF7AFF9401B351AFEF7ABF907461F
:102FE00026480068C0F3CB3068430AE0701C09D063
:102FF000FEF7A0F9C01BA8420FD275B10098B8B374
:10300000401E00902068816838EA010033D000211A
:103010004945EBD10020BDE8F8832068416821F0E4
:10302000E00141606068B0F5827F0BD1A068B0F527
:10303000004F02D0B0F5806F04D12068016821F004
:1030400040010160A06AB0F5005F09D12068016805
:1030500021F4005101602068016841F400510160D1
:10306000012084F85100002084F850000320D2E7AA
:10307000FFE70025C6E70121CAE70000740600202B
:103080003B4D3C4C88B000BF0EF038F80068A842B9
:1030900020D120680178012965D1026901A968461B
:1030A00090473549009888425DD8344988425ADCB7
:1030B0009DED010AB5EEC00AF1EE10FA53DB10EEF9
:1030C000101A2F4A91424EDC21684860206880ED3A
:1030D000020A48E00EF012F800682A49884242D1FC
:1030E000E0680078012832D104AA03A902A813F0ED
:1030F00059FB07AA06A905A813F080FBBDF91C100F
:10310000BDF91800CDE90001BDF91430BDF910205A
:10311000BDF90C10BDF9080013F06CFAB5EEC00A49
:10312000F1EE10FA03D2DFED180A30EE200AB5EE08
:10313000C00AF1EE10FA0ADB10EE100A13498842B9
:1031400005DCBCEEC00AE16810EE100A4880A068F9
:103150000078012807D13EF03FF9BDEEC00AA16812
:1031600010EE100A4880642036F05FFB8CE7000008
:10317000440100205C0400200000A0C1000048427F
:103180000000C8422C0200200000B4430000B443F9
:1031900045F06ABB70B5054622F0E0FB04462846C0
:1031A00022F0A6FD102C09D125F0F6F925F0FAFB46
:1031B000022803D1BDE8704036F002BC70BD45F076
:1031C00063BB704770474FF4FA64204636F02DFB1E
:1031D000FBE710B54FF0E020006947F0EBFE012857
:1031E00003D0BDE8104047F07DBA10BD30B593B0B4
:1031F00030216846FDF78FFA14210CA8FDF78BFAF1
:103200001C480024016841F080510160006800F012
:10321000805011901848016841F4404101600068F5
:10322000022500F4404011900120039010200490EA
:10323000009506950820CDE907406420CDE90905F1
:1032400004200B906846FEF73BFA08B172B6FEE721
:103250000F20CDE90C054FF48050CDE90E4003213D
:103260000CA81094FEF730F9002801D072B6FEE7E2
:1032700013B030BD40380240007000400248016881
:1032800041F470010160704788ED00E00148FEF7ED
:10329000F4BE000084070020F0B502681F4B204CEC
:1032A000204D214E4FF0804C984207D0604505D00C
:1032B000A04203D0A84201D0B04203D122F070074F
:1032C0004A683A43984210D060450ED0A0420CD0D4
:1032D000A8420AD0B04208D0144CA04205D0144CE9
:1032E000A04202D0134CA04203D122F44074CA6819
:1032F00022434C6922F0800222438C68C4620C682D
:103300008462984201D109690163016841F00401B6
:103310000160012141610260F0BD00000000014038
:103320000004004000080040000C00400040014044
:10333000004401400048014010B501F01F03012185
:10334000046A99408C430462016A9A401143016205
:1033500010BD10B5846842EA032224F47F440A4376
:103360002243826010BD826822F070020A4342F05C
:10337000070181607047000030B5036A026A22F0DD
:10338000010202624268846924F073050C682C43D0
:1033900023F002058B682B430A4DA8420BD123F082
:1033A0000805CB6822F440722B434D6923F00403D7
:1033B00015438A692A434260846149684163036214
:1033C00030BD00000000014030B5026A036A23F0FE
:1033D00010030362436884690D6824F4E64444EAF8
:1033E00005248D6822F0200242EA05120B4DA84206
:1033F0000ED1CD6822F0800242EA05124D6923F415
:10340000406343EA85038D6922F0400243EA850365
:103410004360846149688163026230BD00000140FD
:1034200030B5036A026A22F4807202624268C4699B
:1034300023F4007324F073050C682C438D6843EA71
:1034400005230C4DA8420ED1CD6823F4006343EA56
:1034500005234D6922F4405242EA05128D6923F496
:10346000806342EA05124260C4614968C163036235
:1034700030BD00000000014030B5046A026A22F449
:10348000805202624268C3690D6823F4E64343EA4E
:1034900005238D6824F4005444EA0534064DA842FF
:1034A00004D14D6922F4804242EA85124260C36130
:1034B00049680164046230BD0000014010B5036A30
:1034C000046A24F001040462846924F0F00444EAEC
:1034D000021423F00A020A438461026210BD10B58F
:1034E000036A046A24F010040462846923F0A003D0
:1034F00024F4704444EA023243EA01118261016219
:1035000010BDFEE710B5134CA8212046FDF703F9C6
:1035100003202061606110A0A06104F1A800E061B7
:103520004FF4806020620020A0626062E0620AA125
:10353000216604F5956161661021A1662067E06649
:1035400060670849C0F10F028A5C2254401C1028B1
:10355000F8D310BD5CC001205465726D696E616C5A
:1035600000000000D47206080269C1688A4203D8CC
:103570008068401A104400E0501A401E7047000056
:103580002DE9FC5F0E008146DDE90C47C6F1000025
:1035900098469346824600D40846012503E000BFC2
:1035A00090FBFBF06D1C5845FADAA84500D945465A
:1035B00024B1002E01DB780700D5641EB80702D5C0
:1035C000B8F1000F0FD0F8070DD164B1A5420AD2AF
:1035D00020214846641E00F0A1F8D9F80C0000280C
:1035E000F3DABDE8FC9FD9F80C000028F9DB002EC7
:1035F00002DA56462D2102E0780707D52B214846EE
:1036000000F08CF8D9F80C000028EADB07F0030082
:1036100002280FD1B8F1000F0CD15CB1A54209D23C
:1036200030214846641E00F079F8D9F80C000028D3
:10363000F3DAD6E7CDE9004743465A4631464846D5
:1036400000F002F8CDE700002DE9F84F8246DDE9F1
:103650000A4B0126984691460D460846374602E039
:10366000B0FBF9F07F1C4845FAD2B84500D947466F
:103670005FEACB7017D1B4B15FEA8B7002D5B8F1B5
:10368000000F02D0202000900BE03020FBE75046D6
:10369000641E009900F042F8DAF80C00002838DBCC
:1036A0000CB1A742F3D3DAF80C00002831DB00BFDD
:1036B000B8F1010F02D9A8F1010803E0B5FBF6F05B
:1036C000484502D306FB09F6F2E7DFF84C8000BF5D
:1036D000B5FBF6F000FB165518F80010504600F048
:1036E0001DF8DAF80C00002803DBB6FBF9F6002E13
:1036F000EED15FEACB700CD0002C0AD0A74208D2E2
:1037000020215046641E00F009F8DAF80C00002869
:10371000F2DABDE8F88F0000E572060810B504463D
:10372000D4E90130421C934205D323681954A260A6
:10373000E068401CE060D4E90102824209D12168BE
:103740002069FFF72BFAA168884203D04FF0FF30C1
:10375000E06010BD0020A06010BD2DE9F047C468F6
:103760001746894606464FF000083069A04201D945
:10377000051B02E0B168201A0D1AB0686D1E001B0F
:10378000A84200D80546BD4200D33D4670682A468F
:1037900020444946FCF740FFB0687F1B2C44A844F6
:1037A000A944A04200D10024F460002FDDD140469E
:1037B000BDE8F0872DE9F04104468846D4E90207C8
:1037C000C51BE168606816460844B54206D9414603
:1037D000FCF722FFB819E060BDE8F0812A464146B7
:1037E000FCF71AFF761B08EB050132466068FCF710
:1037F00013FFE660F0E74100080218BF04200A0E3C
:1038000018BF40F001004FF07F4232EA010108BFCB
:1038100040F00200012808BF052070470907090E83
:10382000002804DB00F1E02080F80014704700F06D
:103830000F0000F1E02080F8141D704710EE100A10
:1038400010B510EE901A4FF0684202EB40032DEDD8
:10385000028BB3F1654F3CBF02EB4102B2F1654F01
:103860007CD200BFC0F3C753C1F3C7529A1A1B2AB8
:1038700009DD10F0004F14BF9FED6E0A9FED6E0A38
:10388000BDEC028B10BD12F11A0F1BDA11F0004FC4
:1038900009D010F0004F0CBF9FED680A9FED680A39
:1038A000BDEC028B10BD80EE208A18EE100AFFF7E7
:1038B000A2FF042808BF00F0C9FDB0EE480ABDEC25
:1038C000028B10BD4200B2EB410F37D910F0004F10
:1038D00019BFDFED5C1A9FED5C1ADFED5C1A9FEDFE
:1038E0005C1AB0EE602A0A46F1EE400A80F0004110
:1038F000B0EE420A10460A1A5200B2F1807F34D26A
:10390000484010F0004FDFED532A9FED533A1DBFA2
:10391000BEEE002A71EEE21A31EE431AB6EE002A2C
:1039200004BF71EEA21A31EE031AF0EE402A42EE05
:10393000602A40EE020A82EEA02A18E011F0004F41
:1039400004BF9FED461AF0EE411AD4D010F0004F9C
:103950001CBFDFED431A9FED431A00E026E004BFD1
:10396000DFED411A9FED411AC5E780EE202A22EED5
:10397000020ADFED3F0ADFED3F2ABDEC028B40EE8D
:10398000202ADFED3D0A40EE220ADFED3C2A40EE20
:10399000202ADFED3B0A40EE220A22EE000A00EE6A
:1039A000201A31EE020A30EE210A10BD4FF07F429C
:1039B000B2EB400F28BFB2EB410F05D2BDEC028B3A
:1039C000BDE8104000F02FBD40EA01035B0008BFD6
:1039D00041F0FF410BD0B2EB400F08BFB2EB410FFB
:1039E00008D120F0804000EE100A21F0804100EE66
:1039F000901A37E7B2EB400F12BF5FEA410240F086
:103A0000FF4001F000413FF42DAF4A0092EA40032D
:103A10003FF528AF002AACBF9FED1A1A9FED1A1A86
:103A200020EE010A60EE810A10EE100A10EE901AE4
:103A300018E70000DB0FC9BFDB0FC93FDB0F4940B0
:103A4000DB0F49C00000C9BF22AAFDB90000C93F71
:103A500022AAFD390060ED3EC30ACE370000000007
:103A6000000049C022AA7DBA0000494022AA7D3A3E
:103A70002DAD65BD8FB8D53D0FB511BE61C84C3EAB
:103A8000A8AAAABE0000804F0000802F10EE101AD6
:103A900008B5444A6846B2EB410F28D94FF0E640DA
:103AA000B0EB410F94BF00204FF0FF300090009822
:103AB000002861DB60EE000A10F0010F45D010F025
:103AC000020FDFED391A9FED391A00EEE11ADFED32
:103AD000381A40EE811A21EEA01AF0EE400A40EEAC
:103AE000010A08BFF1EE600AB0EE600A08BD314B72
:103AF00021F0004293423CD911F0004FDFED2E0A35
:103B000020EE201ADFED2D0A19BF31EE601A71EE9A
:103B1000200A31EE201A71EE600ABDEEE01A11EEB5
:103B2000100A9FED271A00F0030000EEC10A9FED76
:103B3000251A009000EEC10A9FED231A00EEC10A7B
:103B40009FED221A00EEC10AB1E79FED211A9FED09
:103B5000210A10F0020F00EE810A9FED1F1A00EEFD
:103B6000801AB7EE000A00EE810A18BFB1EE400AD3
:103B700008BD00F073FC9AE710EE100A4000B0F1A7
:103B80007F4F3CBFB7EE000A08BD07D14FF00100E0
:103B9000FCF7F0FDBDE8084000F048BCBDE8084077
:103BA00000F03EBCB61F927E336D4C39DA82083C81
:103BB000A0AA2ABE490E494683F9223F0000004BC5
:103BC0000000C93F00A0FD390020A2331A61342C47
:103BD000B93AB2BACA9F2A3DDDFFFFBE10B510EE5A
:103BE000100A2DED068BB7EE001A10EE901AB0EE0B
:103BF000418A0022A0F5000CDFEDFE9A4FF0007321
:103C0000BCF1FE4F4FF07F4403EB410C80F0B481D8
:103C1000BCF1804FC0F02082F74901449FEDF73A94
:103C2000B1F5005F40F2D48200F58021CB0C03F0A7
:103C30000F0101EE901AC3F307137F3BA0EBC350B3
:103C4000B8EEE12A00EE100A1A44DFEDED2AF0EE9C
:103C5000411A42EE221AF0EE613A70EE232A30EE5B
:103C6000632A12EE900A00F500606FF30B0001EE7C
:103C7000900A73EEE13A33EE804AC1EE223A22EE28
:103C8000230A10EE100A00F500606FF30B0000EE3F
:103C9000100A00EE612A00EE442A62EE232A70EE3A
:103CA000221A21EEA12ADFEDD73A02EE233A23EEC3
:103CB000023A20EE012A22EE811A03EE211A32EE98
:103CC000010A10EE100A00F500606FF30B0000EE21
:103CD000100A72EE401A31EE812A9FEDCB1A60EE87
:103CE000011A9FEDCA1A20EE011A9FEDC90A02EED1
:103CF000001A31EE810A10EE100A00F500606FF331
:103D00000B0000EE100AC34871EEC01A31EE812A92
:103D1000784400EBC10090ED003AD0ED011A10019B
:103D200001EE100AF8EEC12A32EE211A31EE001A25
:103D300031EE031A31EE221A11EE100A00F500607E
:103D40006FF30B0009EE100A39EE621A31EE431AD6
:103D500031EE400A30EE610A32EE40AA10EE900ACF
:103D6000002100F500606FF30B0008EE900A084692
:103D700070EEE8AA4FF0000029EE280A00F00C01CE
:103D8000F0EEC00A10EE900AB0F18B4F0DDD10EE90
:103D9000900AB4EB400F08D310EE100A4FF08B429C
:103DA00062F31E0008EE900A13E069EE2A0A38EE6C
:103DB000AA1A4AEE010A30EE201A11EE100A00F596
:103DC00000606FF30B0008EE900A30EE680A70EEA8
:103DD000209A0C204FF0000038EEA90AB5EEC00A78
:103DE000F1EE10FA34BFFEEE000AF6EE000A30EEF5
:103DF000800ABDEEC00A10EE100A011100EE101A82
:103E0000F8EEC00A00EE100AB8EEC00A38EEC00A9A
:103E100030EE290ADFED801A9FED801A00EE211A9C
:103E2000DFED7F1A7F4900F00F0040EE011A21EE0E
:103E3000800A794401EB800191ED001A7A497944B6
:103E400001EB8001D1ED001A784901EE801A794426
:103E500001EB8000764990ED000A31EE001AB0EED9
:103E6000E00A10EE100A884215DA10EE100AB4EBE0
:103E7000400F10D39FED6F0A30EE800ADFED6E0A1F
:103E800020EE200A68EE010ABDEC068BBCEEC00AEB
:103E900020EE200A10BD10EE100A6849884243DA6D
:103EA00010EE100AB4EB400F3ED3BDEEE00A68EE10
:103EB000010A10EE100A00EBD0725110C90501F191
:103EC0007E5100EE101AA0EB6200C00560EE200AE1
:103ED00000F17E5000EE100A60EE808A18EE900A23
:103EE000B4EB400F0FD10220FCF744FC00F0A6FA1F
:103EF00010EE101A18EE100ABDEC068B61F31E00CE
:103F000000EE100A10BD18EE900A400011D018EE15
:103F1000900AFFF770FC042808BF00F097FAB0EE93
:103F2000680ABDEC068B10BDF5EEC00AF1EE10FA82
:103F30000FD20220FCF71EFC00F088FA10EE101AD7
:103F400018EE100ABDEC068B61F31E0000EE100A9D
:103F500010BD0220FCF70EFC00F070FA10EE101AF3
:103F6000B0EE480A10EE100ABDEC068B61F31E009D
:103F700000EE100A10BD00BFBCF1804F6CD300BF33
:103F800000F1FF43B3F1FE4F24D200BFB0EEC00AF0
:103F900010EE100AC1F3C7537F2B0DDB972BBFF632
:103FA0003BAEC3F196034FF0010C0CFA03F3A3F1FF
:103FB000010C1CEA010F08D00120FCF7DBFBBDEC73
:103FC000068BBDE8104000F031BA0B4218BFBFEEBF
:103FD000008A21E643001CBF4FF08073B3EB400F13
:103FE00034D96FF01A02DFED161A20EE210A10EE16
:103FF000100A27E000000000001080C0ABAAAA3E13
:104000000000803D7EE24C3E00B03842D49AB8BBFE
:104010003BAA3842E4350600FC596337C9FF753ABC
:104020001872313D82350600B63506002635060089
:104030000000FC420000FE420000004B0000404334
:104040000000004D10F0004FA0D1E5E5A0F5000301
:10405000B3F1FE4F21D2DFE503EB4103B3F1007F63
:1040600011D3F5EEC00AF1EE10FA05D1430018BFE6
:10407000B4EB400F76D883E701F0004141F0FC51EA
:1040800000EE901A7CE7B3F1807F06D210EE903AF2
:10409000A3F5000300EE903A72E720F000426FF0C3
:1040A000FF4C604C02EB0C03A34210D321F0004301
:1040B0009C44A4450BD3B0F17E5F18BF5FEA410C6E
:1040C00050D0B2F1FF4F98BFB3F1FF4F05D9BDEC0F
:1040D000068BBDE8104000F0A6B9B0F1FF4F0FD03D
:1040E000C1F3C7527F2A09DB972A11DAC2F196027F
:1040F000012303FA02F2531E0B4205D0002208E00E
:1041000011F0004F55D128E00A4218BF012200D11A
:10411000022210F5000F13D028B3B0F1004F26D0C3
:1041200010F1814F4FD04FF0FE42B2EB400F94BFE1
:1041300001200020012202EBE171884239D10CE01C
:1041400011F0004F02D0012A38D032E0012A02BF1C
:104150009FED350ABDEC068B10BD9FED340ABDEC1A
:10416000068B10BD2FE011F0004F0CD121E0B1F112
:10417000FF4F1ED011F5000F05D011F0004F15D0E4
:104180000AB1012A08D00220FCF7F4FABDEC068B34
:10419000BDE8104000F03AB90220FCF7EBFA00F05D
:1041A00035F9BDEC068BB1EE400A10BD0AB1012A0B
:1041B00004D0B0EE690ABDEC068B10BDBDEC068BD9
:1041C0009FED1B0A10BDBDEC068BB7EE000A10BDBB
:1041D00030EE410AB5EE001A9FED172A00EE413A83
:1041E000B6EE001A60EE001A00EE431A61EEC11A34
:1041F0009FED101A20EE011A20EE020A9FED0F2A01
:1042000001EE820A71EE001A11EE900A00F50060CC
:104210006FF30B0009EE100A31EE491A31EE00AAD5
:104220009CE50000FFFF3F00000080FF0000807F52
:104230000000008000B0B841D49A38BB3BAAB84116
:1042400000B510EE101A2DED028B81B0524A68466F
:10425000B2EB410F2ED94FF0E640B0EB410F94BFC7
:1042600000204FF0FF3000900098B0EE408A002808
:104270006ADB10F0010F4BD068EE080A9FED471A79
:104280009FED470A00EE810A9FED461A10F0020FDB
:1042900000EE801AB7EE000A00EE810A02BF01B0FC
:1042A000BDEC028B00BD00BF01B0B1EE400ABDEC19
:1042B000028B00BD3C4B21F00042934241D911F0EA
:1042C000004FDFED3A0A20EE201ADFED390A19BF60
:1042D00031EE601A71EE200A31EE201A71EE600A9A
:1042E000BDEEE01A11EE100A9FED321A00F0030045
:1042F00000EEC10A9FED301A009000EEC10A9FED5A
:104300002F1A00EEC10A9FED2E1A00EEC10AABE78C
:1043100028EE080A9FED2B1ADFED2B0A10F0020F92
:1043200040EE410A9FED291A00EE201A61EE000AC4
:10433000B0EE480A08EE200AB6D101B0BDEC028BFF
:1043400000BD00F08BF88FE718EE100A4000B0F1C6
:104350007F4F0DD218EE100AFFF74DFA042808BF60
:1043600000F074F8B0EE480A01B0BDEC028B00BD5D
:1043700009D10120FCF7FEF901B0BDEC028B5DF81C
:1043800004EB00F053B801B0B0EE480ABDEC028B6C
:104390005DF804EB00F044B8B61F927EB93AB2BAA9
:1043A000CA9F2A3DDDFFFFBE490E494683F9223FE1
:1043B0000000004B0000C93F00A0FD390020A233DF
:1043C0001A61342C336D4C39DA82083CA0AA2ABE1B
:1043D00010B52DED028BB1EEC08A18EE100A20F058
:1043E0000040C0F1FF40C00F0AD010EE100A20F0CC
:1043F0000040C0F1FF40C00F04BF0120FCF7BAF934
:10440000B0EE480ABDEC028B10BD0000DFED030AE0
:10441000B7EE001A81EE200A70470000000000008D
:1044200030EE000A704730EE200A7047DFED020AD6
:1044300080EEA00A70470000000000009FED020A15
:1044400020EE000A70470000000000709FED020A95
:1044500020EE000A70470000000000102DE9F00176
:104460004FF07F42B2EB410F9FBF4FF0FF31016031
:10447000BDE8F00170474FF0004242EA0123C1F36A
:10448000C752783A551112F01F0C434CCCF120065C
:104490007C44C1F3C752A2F178024FEA621204EBE6
:1044A000820254F8254008BFD2E9015612D055685F
:1044B00004FA0CF425FA06F73C43976805FA0CF564
:1044C00027FA06F8D26807FA0CFCF24045EA08051C
:1044D0004CEA0206A4FB034CA5FB0352A6FB0363B4
:1044E0001D449D4234BF012600261319334416B1E2
:1044F000934202D903E0934201D2012200E000225C
:10450000624402F1200C9206DC0C42EA443200EED6
:10451000102A5B03DFED210AF8EEC01A00EE103A14
:104520004FEA9C1C11F0004FB8EE400AC0F800C0E2
:1045300020EE201A00EE105ADFED190AB8EE400AFC
:1045400020EE200A71EE810A70EE800A10EE902AA9
:1045500002F500626FF30B0200EE902A70EEE11A92
:1045600031EEC11ADFED101A30EE411A9FED0D0A3F
:1045700020EE800A01EE210A9FED0C1A00EE810A5E
:1045800004BFBDE8F0017047CCF180510160BDE887
:10459000F001B1EE400A7047A42F0600000000367B
:1045A0000000802C22AAFD29DB0FC92F0000C92F93
:1045B00070B5044600256FF02F0608E02068411C06
:1045C0002160007805EB850106EB41014518206864
:1045D000007800F02CF80028F0D1284670BD70B5A6
:1045E00014460D461BB9114619F0EEFF034603FBB6
:1045F00005F0142C0ED0E11F03290AD8072C0DD08A
:10460000082C0DD0092C0DD00A2C0DD0002100EB68
:10461000810070BD590801FB050070BD0221F6E75D
:104620000421F4E71021F2E74FF48071EFE730380E
:10463000092801D801207047002070472DE9FC5F50
:104640009B460CAB8A468146DDE9116093E8121067
:10465000DDE90F575FEA80784FF030031AD45EB17E
:104660005FEAC07808D000F00C0858EA0C0803D0C4
:10467000761E01E00B55641CBC4204D2202CF9D3F9
:1046800001E00B55641C5FEAC07803D0B44201D24C
:10469000202CF6D35FEAC06825D55FEA40580AD4DB
:1046A0004CB1BC4201D0B44205D1641E03D0102DE0
:1046B00003D1641E04E0102D02D0022D0AD00EE0BA
:1046C000850603D4202C1ED2782506E0202C1AD291
:1046D000582502E0202C16D262250D55641C202C92
:1046E00011D20B55641C202C0DD2BCF1000F01D04F
:1046F0002D2306E0430701D52B2302E0030702D553
:1047000020230B55641CCDE900BAC84615468146E6
:104710008B46AA46800714D1274607E02A46DDE9E2
:1047200000316D1C2020C446E0477F1CB742F5D302
:1047300007E02A466D1C641EDDE900311BF8040009
:10474000C047002CF5D15FEA897006D409E02A46FB
:10475000DDE900316D1C2020C047A5EB0A00B04206
:10476000F5D32846BDE8FC9F2DE9F04F8FB0994660
:104770008B46DDE91818DDE91C63DDE91A4792462E
:104780008646002209B923F01003580507AD00D56D
:10479000C9B1B1FBF4F004FB1010C0B20A2801D279
:1047A000303009E05FEA836C02D54FF0410C01E044
:1047B0004FF0610C60440A38B1FBF4F1A854521C6C
:1047C00009B1202AE5D3CDF80880CDE90563CDE90C
:1047D0000052CDE903474B46524659467046FFF713
:1047E0002DFF0FB0BDE8F08F2DE9FF4F8FB01CAC4F
:1047F000DDE9239594E8030820AC94E8C004002484
:1048000050EA010201D125F010056A050DF11C08DE
:1048100002D550EA010217D032463B46FBF7B0FD05
:10482000D2B20A2A01D2303206E0AB0601D54123CA
:1048300000E061231A440A3A08F80420641C50EA94
:10484000010201D0202CE7D3CDE90084CDF808B0D7
:10485000CDE90595CDE9036A0FAF97E80F00FFF7A3
:10486000EDFE13B0BDE8F08F9A4200D28854704735
:10487000704740F0FDB870B5054621F06FF804466A
:10488000284621F035FA102C09D123F085FE24F0BA
:1048900089F8022803D1BDE8704035F091B870BDA9
:1048A00040F0FCB87047704770B5054621F056F8E7
:1048B0000446284621F01CFA0A2C04D1BDE87040B9
:1048C000014835F0A3B870BD48040020FEB5164677
:1048D0000D4604000DD11AA21DA120A08DE80700ED
:1048E000264B4FF4997226A1032026F009FC13F001
:1048F000CFFEA5B1201E20D03246294601F020FA75
:1049000000280BD06168006915F0D0FF0646216CC5
:1049100028468847E1680844E0603046FEBD08A2AA
:1049200026A10EA08DE80700144B40F2331214A10B
:10493000032026F0E5FB13F0ABFE0020FEBD0000D7
:104940004E554C4C20706F696E746572000000000B
:104950006C727520213D204E554C4C00417373659F
:104960007274656420617420657870726573736910
:104970006F6E3A202573202825732900034D060801
:104980002E2E5C4D6964646C6577617265735C6C36
:1049900076676C5C7372635C6D6973635C6361639F
:1049A00068655C636C6173735C6C765F636163689C
:1049B000655F6C72755F72622E6300006B657920B3
:1049C000213D204E554C4C002DE9FF4114460E462A
:1049D00005460A461F4621466846DDF8288013F042
:1049E0005AFB00281BD0019861682268411A08FB15
:1049F00001500099891A0D18009831683844441AFA
:104A0000684613F036FB002107E0625C6B5C1A44D9
:104A1000FF2A00D9FF226254491C8142F5D3BDE828
:104A2000FF8110B5002440B101F002F9B0F5803FDC
:104A300003D20C2800D80C200446204610BD0000EC
:104A40002DE9F04F064691B0D6E90170804696F800
:104A500021B03568F0680F90D6E906400E90D6E98F
:104A600004A009900AA817F012F996F8220008B1DC
:104A70000020C9E0BAF1000F05D0BBF1FD0F4FF0E7
:104A8000000066D28DE0BBF1FD0F4FF0000017D2A1
:104A90001CE000260CE000BF04EB460005EB4601DD
:104AA0000088ADF804000AAA019816F0E1FC761C13
:104AB000BE42F1DB0F9805440E98044409F1010051
:104AC00081464045E5DB11B0BDE8F08F81464045A9
:104AD000F9DA002613E000BF04EB46000088ADF8C9
:104AE00004009DF8051011FB0BF0000A8DF805007D
:104AF00005EB46010AAA019816F0BAFC761CBE42E4
:104B0000EADB0F9805440E98044409F10100DDE743
:104B1000002614E004EB46000088ADF808009DF87C
:104B200009101AF8060011FB00F0000A8DF80900C0
:104B300005EB46010AAA029816F09AFC761CBE42C2
:104B4000E8DB0F98099905440E988A44044409F15A
:104B5000010081464045DBDBB5E7002617E000BFDA
:104B600004EB46000088ADF808009DF809101AF81B
:104B7000060011FB00F101FB0BF1080C8DF8090098
:104B800005EB46010AAA029816F072FC761CBE429A
:104B9000E6DB0F98099905440E988A44044409F10C
:104BA000010081464045D8DB8DE700201EE000BFB4
:104BB00004EB4900BAF1000F0088ADF8080027D0D7
:104BC0009DF809201AF8090012FB00F101FB0BF116
:104BD0005FEA11408DF8090096F8222005EB4900A4
:104BE0000AAB029904F01EF809F101008146B842AF
:104BF000DEDBBAF1000F01D009998A440F98054411
:104C00000E9804440398401C03904045CDDB5AE7BE
:104C10009DF8091011FB0BF0000ADBE72DE9F04FBE
:104C2000064695B0D6E90170804696F821B0356801
:104C3000F0680E90D6E906400C90D6E904900A90F0
:104C400096F8220020B110A817F035F80020D0E027
:104C5000B9F1000F05D0BBF1FD0F4FF0000064D299
:104C600089E0BBF1FD0F4FF0000019D21EE000BF3C
:104C70004FF000094E460BE004EB460005EB8901BE
:104C8000427814F8160016F090FE09F10109761C1E
:104C9000BE42F1DB0E9805440C9804440AF1010071
:104CA00082464045E4DB15B0BDE8F08F82464045C2
:104CB000F9DA4FF000094E460FE000BF04EB460062
:104CC000417811FB0BF0020A05EB890114F816007C
:104CD00016F06BFE09F10109761CBE42EEDB0E9860
:104CE00005440C9804440AF10100DFE74FF0000A84
:104CF000564610E004EB4600417819F8060011FB17
:104D000000F0020A05EB8A0114F8160016F04DFEB9
:104D10000AF1010A761CBE42ECDB0E980A990544A2
:104D20000C98894404440BF1010083464045DDDBC7
:104D3000B9E700BF4FF0000A564612E004EB460008
:104D4000417819F8060011FB00F000FB0BF0020C93
:104D500005EB8A0114F8160016F027FE0AF1010A85
:104D6000761CBE42EADB0E980A9905440C988944E9
:104D700004440598401C05904045DBDB93E7002088
:104D8000039028E014F81A100298B9F1000F61F3AB
:104D9000174061F30F2061F3070004EB4A012CD0A8
:104DA000039A4B7819F8021013FB01F101FB0BF188
:104DB0005FEA114161F31F600290039896F8222088
:104DC00005EB800010AB029903F07AFF0398401CBA
:104DD00003900AF101008246B842D3DBB9F1000F1B
:104DE00001D00A9881440E9805440C980444059813
:104DF000401C05904045C2DB55E74A7812FB0BF199
:104E0000090AD7E72DE9F04F054687B0D5E90167D4
:104E100090F821B000680090E8680290D5E906405B
:104E20000390D5E904900490686AC11700EB5171B2
:104E300021F00701A0EB010A95F8220008B100203B
:104E400029E1B9F1000F05D0BBF1FD0F4FF00000D3
:104E500070D2E2E0BBF1FD0F4FF000002ED233E044
:104E60004FF0000845461FE008EB0A018B4600980A
:104E70000BF0B7F8C0EB00208DF8040004EB450000
:104E800001A9427814F8150016F0ACFD9DF8040055
:104E900059467F28009802D93CF056F801E006F008
:104EA000EBF808F101086D1CB542DDDB02990098B2
:104EB000084400900398044409F101008146B84277
:104EC000CEDB07B0BDE8F08F8146B842F9DA4FF08B
:104ED0000008454623E000BF08EB0A010191009855
:104EE0000BF07FF8C0EB00208DF8100004EB4500BC
:104EF000417811FB0BF0020A14F8150004A916F012
:104F000071FD9DF810007F28DDE9000102D93CF019
:104F10001BF801E006F0B0F808F101086D1CB5427D
:104F2000DADB00990298084400900398044409F1E0
:104F30000100C9E735E000BF4FF00008454624E016
:104F400008EB0A01019100980BF04BF8C0EB002030
:104F50008DF8140004EB4500417819F8050011FBA9
:104F600000F0020A14F8150005A916F03BFD9DF8A3
:104F700014007F28DDE9000102D93BF0E5FF01E0E4
:104F800006F07AF808F101086D1CB542D8DB0299E9
:104F900000980844009003980499044489440BF154
:104FA00001008346B842C7DB8BE700BF4FF0000823
:104FB000454626E008EB0A01019100980BF011F834
:104FC000C0EB00208DF8140004EB4500417819F87F
:104FD000050011FB00F101FB0BF10A0C14F81500A0
:104FE00005A916F0FFFC9DF814007F28DDE90001FB
:104FF00002D93BF0A9FF01E006F03EF808F10108F4
:105000006D1CB542D6DB02990098084400900398C5
:105010000499044406988944401C0690B842C5DBB4
:105020004FE70020059026E014F818100198B9F118
:10503000000F61F3174061F30F2061F3070004EBE9
:1050400048012CD04B7819F8081013FB01F101FB33
:105050000BF1090C61F31F600190059895F822305F
:1050600000EB0A01DDE9000203F0B8FE0598401CE0
:10507000059008F101008046B042D5DBB9F1000F80
:1050800001D004998944009902980844009003983B
:1050900004440698401C0690B842C2DB11E74A78E7
:1050A00012FB0BF1090AD5E72DE9F04F064691B046
:1050B000D6E90170804696F821B03568F0680F9007
:1050C000D6E906400D90D6E904900B9096F82200A0
:1050D00008B10020C7E0B9F1000F05D0BBF1FD0F0A
:1050E0004FF0000063D288E0BBF1FD0F4FF00000ED
:1050F00018D21DE04FF000094E460BE004EB4600CD
:1051000005EB0901427814F8160016F079FC09F154
:105110000109761CBE42F1DB0F9805440D9804444A
:105120000AF1010082464045E4DB11B0BDE8F08F92
:1051300082464045F9DA4FF000094E460FE000BFC5
:1051400004EB4600417811FB0BF0020A05EB090164
:1051500014F8160016F054FC09F10109761CBE4241
:10516000EEDB0F9805440D9804440AF10100DFE7D7
:105170004FF0000A564610E004EB4600417819F85B
:10518000060011FB00F0020A05EB0A0114F81600F4
:1051900016F036FC0AF1010A761CBE42ECDB0F98D1
:1051A0000B9905440D98894404440BF10100834692
:1051B0004045DDDBB9E700BF4FF0000A564612E07C
:1051C00004EB4600417819F8060011FB00F101FBE1
:1051D0000BF10A0C05EB0A0114F8160016F010FC8E
:1051E0000AF1010A761CBE42EADB0F980B990544CE
:1051F0000D98894404440498401C04904045DBDB2E
:1052000093E70020039020E014F81A100098B9F1F9
:10521000000F61F3174061F30F2061F3070026D000
:10522000039A19F8022012FB0BF1090A61F31F60BF
:105230000090039896F822202844009903F04CFE31
:105240000398401C03900AF101008246B842DBDB60
:10525000B9F1000F01D00B9881440F9805440D98C7
:1052600004440498401C04904045CADB5DE76BF39E
:105270001F60DDE72DE9F04F064687B0D6E90170E3
:10528000814696F821B03468F0680290D6E906505D
:105290000190D6E904A0039096F8220008B10020FE
:1052A00065E1BAF1000F05D0BBF1FD0F4FF0000032
:1052B00067D28CE0BBF1FD0F4FF000001AD21FE067
:1052C0000026B0460EE000BF05EB480034F816108B
:1052D000427815F8180016F0EDFA24F8160008F1D7
:1052E0000108761CBE42EFDB029804440198054495
:1052F0000AF1010082464845E2DB07B0BDE8F08FC5
:1053000082464845F9DA0026B04610E005EB480031
:10531000417811FB0BF0020A34F8161015F818004A
:1053200016F0C8FA24F8160008F10108761CBE42EF
:10533000ECDB02980444019805440AF10100DFE720
:105340000026B04613E000BF05EB480041781AF88C
:10535000060011FB00F0020A34F8161015F81800C8
:1053600016F0A8FA24F8160008F10108761CBE42CF
:10537000EADB0298044401980544039882440BF147
:10538000010083464845DBDBB7E70026B04614E062
:1053900005EB480041781AF8060011FB00F101FB0B
:1053A0000BF10A0C34F8161015F8180016F082FAF2
:1053B00024F8160008F10108761CBE42E8DB0298CA
:1053C000044401980544039882440098401C0090CE
:1053D0004845DADB91E700BF4FF0000840460494EF
:1053E000B6E0009815F810104FEAD10E880896F82C
:1053F0002210012911D002292CD003295AD00429C6
:1054000072D0C8B25CA1CDE90010634B4FF4257295
:105410006249022025F074FE6FE7049931F81810F4
:105420000EEBD1221F2A00D31F224FF6FF7303EA8F
:10543000C222C1F3451318443F2800D33F2002EB9A
:10544000401082B201F01F0101EB0E001F2869D34A
:105450001F2067E0049A32F81820CEEBD2210029F1
:1054600000DC00214FF6FF7303EAC121C2F34513AC
:10547000181A002800DC002001EB401081B202F075
:105480001F02A2EB0E00002800DC0020084480B2BE
:10549000BAF1000F48D01AF80820BBF1FD0F4DD229
:1054A000009905EB4101497812FB01F101FB0BF179
:1054B0000A0C43E0049931F81810CB0A13FB0EF2E2
:1054C00053094FF6FF7202EAC322C1F3451313FBDF
:1054D00000F0800902EB401001F01F0212FB0EF1F8
:1054E00000EB5110D3E7FFE7049931F81830CEEB09
:1054F000D321002901DCAEEBD3214FF6FF7202EA83
:10550000C12CC3F34512111A002900DC811A0CEBDF
:10551000411082B203F01F01A1EB0E00002801DC54
:10552000AEEB01001044B2E70099BBF1FD0F05EBB3
:1055300041014A7802D212FB0BF10A0A34F8181022
:1055400015F078FF24F81800009808F10108001DF4
:105550000090B845FFF645AF0298BAF1000F044439
:105560000198054401D003998A440598401C059090
:105570004845FFF631AFC0E64E6F7420737570700A
:105580006F7274656420626C656E64206D6F646513
:105590003A202564000000008509060844790608C1
:1055A0002DE9F04F064687B0D6E90170814696F89E
:1055B00021B03468F0680290D6E906500190D6E92F
:1055C00004A0039096F8220008B1002083E1BAF10C
:1055D000000F05D0BBF1FD0F4FF0000076D2A1E027
:1055E000BBF1FD0F4FF000001FD224E00026B046B3
:1055F00013E000BF34F8160016F0CEFB014605EBB1
:105600004800427815F8180016F084F916F0C4FB2B
:1056100024F8160008F10108761CBE42EADB029865
:105620000444019805440AF1010082464845DDDB47
:1056300007B0BDE8F08F82464845F9DA0026B0464B
:1056400016E000BF34F8160016F0A6FB014605EB85
:105650004800427812FB0BF0020A15F8180016F009
:1056600059F916F099FB24F8160008F10108761C88
:10567000BE42E7DB02980444019805440AF10100A8
:10568000D9E70026B04617E034F8160016F084FB80
:10569000014605EB48001AF80620407810FB02F09E
:1056A000020A15F8180016F035F916F075FB24F803
:1056B000160008F10108761CBE42E5DB029803994A
:1056C000044401988A4405440BF10100834648458F
:1056D000D7DBADE70026B0461AE000BF34F816006D
:1056E00016F05AFB014605EB480042781AF806000E
:1056F00012FB00F000FB0BF0020C15F8180016F07E
:1057000009F916F049FB24F8160008F10108761C87
:10571000BE42E3DB02980399044401988A4405449D
:105720000098401C00904845D4DB81E7394620466C
:1057300004941EF0BDFC4FF000084046BCE0009809
:1057400096F8221015F810004FEAD00E80080129B3
:1057500011D002292DD003295BD0042973D0C9B2FE
:1057600065A0CDE900016C4B4FF42A726B49022011
:1057700025F0C6FC5CE7049A32F818100EEBD12233
:105780001F2A00D31F224FF6FF7303EAC222C1F380
:10579000451318443F2800D33F2002EB401082B24B
:1057A00001F01F0101EB0E001F2800D31F20104441
:1057B0001CE0049A32F81820CEEBD223002B00DC38
:1057C00000234FF6FF7101EAC321C2F34513181AF3
:1057D000002800DC002001EB401002F01F02A2EBC9
:1057E0000E0180B2002900DC0021084480B2BAF129
:1057F000000F4AD01AF80820BBF1FD0F71D300BF8B
:1058000034F8181015F016FE16F0C6FA24F8180031
:105810004EE0049A32F81810CB0A13FB0EF253092B
:105820004FF6FF7202EAC322C1F3451313FB00F0E7
:10583000800902EB401001F01F0212FB0EF100EB99
:105840005110D3E7FFE7049931F81830CEEBD3219C
:10585000002901DCAEEBD3214FF6FF7202EAC12230
:10586000C3F3451CACEB0001002901DCA0EB0C01EB
:1058700002EB411003F01F01A1EB0E0280B2002ADF
:1058800001DCAEEB01021044B0E70099BBF1FD0F63
:1058900005EB41014A78B3D212FB0BF15FEA11220A
:1058A00034F8181015F0C6FD16F076FA24F8180032
:1058B000009808F10108001D0090B845FFF63FAFC1
:1058C0000298BAF1000F04440198054401D00398EE
:1058D00082440598401C05904845FFF627AFA7E68F
:1058E000FFE7009905EB4101497812FB01F202FB49
:1058F0000BF2120CD4E700004E6F742073757070B9
:105900006F7274656420626C656E64206D6F64658F
:105910003A20256400000000560A06088879060827
:105920002DE9F34F064685B0D6E90170804696F81A
:1059300021B03568F0680190D6E906400090D6E9BC
:105940000490039096F8220008B10020CAE0B9F153
:10595000000F05D0BBF1FD0F4FF0000063D288E0CF
:10596000BBF1FD0F4FF0000018D21DE04FF0000911
:105970004E460BE004EB460005EB0901427814F8B3
:10598000160015F0F7FF0698761C8144BE42F1DB45
:1059900001980544009804440AF1010082464045FC
:1059A000E4DB07B0BDE8F08F82464045F9DA4FF0FE
:1059B00000094E460FE000BF04EB4600417811FBA2
:1059C0000BF0020A05EB090114F8160015F0D2FFDE
:1059D0000698761C8144BE42EEDB0198054400988F
:1059E00004440AF10100DFE74FF0000A564610E0D8
:1059F00004EB4600417819F8060011FB00F0020A9A
:105A000005EB0A0114F8160015F0B4FF0698761C91
:105A10008244BE42ECDB0198039905440098894416
:105A200004440BF1010083464045DDDBB9E700BFCC
:105A30004FF0000A564612E004EB4600417819F890
:105A4000060011FB00F000FB0BF0020C05EB0A0155
:105A500014F8160015F08EFF0699761C8A44BE4293
:105A6000EADB0198039905440098894404440298AC
:105A7000401C02904045DBDB93E70020029023E0CE
:105A800014F81A00B9F1000F60F3070160F30F2159
:105A900060F3174104EB4A0029D04378029819F8C3
:105AA000000013FB00F000FB0BF0000C60F31F6123
:105AB000029896F82220284403F07AFA0699029870
:105AC000084402900AF101008246B842D8DBB9F1DD
:105AD000000F01D0039989440198054400980444BB
