:020000040800F2
:1000000020510020F90200089B210008F71C00087D
:10001000992100083D080008632600080000000040
:10002000000000000000000000000000390200088D
:10003000C9080008000000009502000831230008EC
:100040001303000813030008130300081303000838
:100050001303000813030008130300081303000828
:100060001303000813030008130300081303000818
:100070001303000813030008130300081303000808
:100080001303000813030008130300080000000016
:100090000000000000000000000000001303000842
:1000A00013030008ED2300081303000813030008DE
:1000B00013030008130300081303000813030008C8
:1000C00013030008130300081303000813030008B8
:1000D00013030008130300081303000800000000C6
:1000E00013030008130300081303000800000000B6
:1000F00000000000000000000000000013030008E2
:100100000000000013030008130300081303000895
:1001100000000000000000000000000000000000DF
:100120001303000813030008410800081303000824
:1001300013030008000000000000000000000000A1
:100140000000000000000000000000001303000891
:100150001303000813030008130300081303000827
:100160001303000813030008000000000000000053
:10017000000000000000000000000000000000007F
:100180000000000013030008000000000000000051
:10019000130300081303000800F002F800F03CF815
:1001A0000AA090E8000C82448344AAF10107DA45D2
:1001B00001D100F031F8AFF2090EBAE80F0013F0E8
:1001C000010F18BFFB1A43F0010318471C4500003C
:1001D0003C450000103A24BF78C878C1FAD85207CD
:1001E00024BF30C830C144BF04680C6070470000B1
:1001F0000023002400250026103A28BF78C1FBD830
:10020000520728BF30C148BF0B6070471FB504F0CC
:1002100039FA1FBD10B510BD00F0D0F91146FFF737
:10022000F5FF02F061FB00F0EEF903B4FFF7F2FF17
:1002300003BC00F0F5F900002C4B19680868B0E821
:10024000F04F80F30988BFF36F8F4FF0000080F309
:10025000118870470000000008480068006880F3BB
:1002600008884FF0000080F3148862B661B6BFF3CF
:100270004F8FBFF36F8F00DF00BF00BF08ED00E0BE
:10028000DFF80C00016841F470010160704700BFA5
:1002900088ED00E0EFF30980BFF36F8F134B1A680E
:1002A0001EF0100F08BF20ED108A20E9F04F1060FB
:1002B00009B44FF0500080F31188BFF34F8FBFF3A4
:1002C0006F8F03F0DBF94FF0000080F3118809BC59
:1002D00019680868B0E8F04F1EF0100F08BFB0ECC6
:1002E000108A80F30988BFF36F8F704714000020D5
:1002F000EFF3058070470000094880470948004730
:10030000FEE7FEE7FEE7FEE7FEE7FEE7FEE7FEE7C5
:10031000FEE7FEE704480549054A064B7047000022
:10032000DD23000899010008204B00202051002007
:10033000204D0020204D002053EA020C00F069807F
:100340002DE9F04B4FF00006002B1FBFB3FA83F5E9
:1003500003FA05F424FA05F65E4012BF1643B2FA1A
:1003600082F502FA05F4C5F120051EBF22FA05FC4C
:1003700044EA0C04203556EA044C4FEA144418BFF2
:10038000641C4FF000084FF00009904271EB030C21
:1003900039D3002919BFB1FA81F701FA07F6B0FA8B
:1003A00080F700FA07F6C7F120071EBF20FA07FC06
:1003B00046EA0C062037B6FBF4FCA7EB0507103F16
:1003C00007F01F0BCBF120060CFA0BFB2CFA06F6FC
:1003D00044BFB3460026202FA4BF5E464FF0000B5B
:1003E0005BEA060C08BF4FF0010B19EB0B09ABFBE6
:1003F000027C48EB0608C01B06FB02CC0BFB03CCBF
:1004000071EB0C01C1E70B46024641464846BDE888
:10041000F08B13B54FF000004FF00001AFF30080F8
:10042000BDE81C407047032A40F2308010F0030CF6
:1004300000F0158011F8013BBCF1020F624498BF37
:1004400011F801CB00F8013B38BF11F8013BA2F1D4
:10045000040298BF00F801CB38BF00F8013B11F04F
:10046000030300F05780083AC0F0088051F8043BBD
:10047000083A51F804CBA0E80810F5E7121D5CBF5C
:1004800051F8043B40F8043BAFF30080D20724BF8F
:1004900011F8013B11F801CB48BF11F8012B24BF23
:1004A00000F8013B00F801CB48BF00F8012B704772
:1004B00002F0FF0343EA032242EA024200F05EB880
:1004C0004FF0000200B5134694469646203922BFED
:1004D000A0E80C50A0E80C50B1F12001BFF4F7AF38
:1004E000090728BFA0E80C5048BF0CC05DF804EB1A
:1004F000890028BF40F8042B08BF704748BF20F888
:10050000022B11F0804F18BF00F8012B7047704785
:100510007047704710B5203AC0F00B80B1E8185012
:10052000203AA0E81850B1E81850A0E81850BFF4DD
:10053000F5AF5FEA027C24BFB1E81850A0E818507C
:1005400044BF18C918C0BDE810405FEA827C24BFD0
:1005500051F8043B40F8043B08BF7047D20728BF5E
:1005600031F8023B48BF11F8012B28BF20F8023BAD
:1005700048BF00F8012B70474FF000020429C0F07B
:10058000128010F0030C3FF49DAFCCF1040CBCF1D1
:10059000020F18BF00F8012BA8BF20F8022BA1EB17
:1005A0000C01FFF78FBF5FEAC17C24BF00F8012B6D
:1005B00000F8012B48BF00F8012B7047754600F08A
:1005C0002BF8AE4605006946534620F007008546E5
:1005D00018B020B5FFF79EFEBDE820404FF00006A2
:1005E0004FF000074FF000084FF0000B21F007011B
:1005F000AC46ACE8C009ACE8C009ACE8C009ACE85E
:10060000C0098D46704710B50446AFF30080204600
:10061000BDE81040FFF709BE00487047C04A0020FF
:1006200001491820ABBEFEE726000200704700001B
:1006300010B5174802F06AF8282002F039F800F0E7
:10064000E3F8134802F0FCF87021114802F0BDF8FD
:100650000F4802F02DF9BE210D4802F0B6F80C4803
:1006600002F026F908210A4802F0AFF8084802F023
:100670001FF90021064802F0A8F8054802F018F911
:10068000034802F0F9F80A2002F012F8002010BD29
:10069000940000202DE9F04782462DED028B89461B
:1006A0000A24504802F0CCF870214E4802F08DF830
:1006B0004C4802F0FDF8AC214A4802F086F849485F
:1006C00002F0F6F83321474802F07FF8454802F07F
:1006D000EFF80021434802F078F8424802F0E8F8C9
:1006E000502001F0E5FF06E0052001F0E1FF641E67
:1006F00014F0FF0474D000F087F8000601D5002C38
:10070000F2D1384802F09CF87121364802F05DF8C9
:10071000344802F0CDF8334802F016F8314802F0C0
:100720003CF8304802F010F880462E4802F035F8C8
:100730002C4802F009F804462A4802F02EF829480D
:1007400002F002F80746274802F027F8254801F092
:10075000FBFF0646234802F020F8224801F0F4FF90
:100760000546204802F054F81E4802F085F84FEA8A
:10077000083000EB041000EB171003F087FD9FED2D
:100780001A1B53EC112B03F095FD9FED198B53ECC5
:10079000182B03F08FFD03F09FFCC9F80000380709
:1007A000000B00EB0620284403F070FD9FED121BA8
:1007B00053EC112B03F07EFD53EC182B03F07AFD64
:1007C0009FED0F1B53EC112B03F072FE03F084FC22
:1007D000CAF800000020BDEC028BBDE8F087FFE7FF
:1007E0000120F8E7940000200000000000005940BC
:1007F000000000000000B03E000000000000694062
:10080000000000000000494010B50B4802F018F845
:100810007121094801F0D9FF074802F049F806485C
:1008200001F092FF0446044801F0F2FF024802F092
:1008300023F8204610BD000094000020FEE70000D1
:10084000014800F045B80000FC00002001681823B2
:10085000CAB2103AB2FBF3F2054B6FF30901032A57
:100860009B5CC36500D9091D81650846704700007F
:10087000BC46000810B5014600208B698A6A4FF01B
:10088000C07453B1B3F5005F15D072B1012A0CD01A
:10089000022A0AD0032A09D104E01AB1012A06D09B
:1008A000022A03D1C96AC90100D5012010BDC96A55
:1008B000A142FAD010BD002AF7D0012AF2D0022AB4
:1008C000F3D0032AF3D010BD704772B6FEE70000E4
:1008D0002DE9F84304464FF00009CDF80090634835
:1008E0004FF41651A56D0068B0FBF1F72E6894F82F
:1008F0005C10082000FA01F131420FD021680A682B
:1009000052070BD50A6822F004020A6094F85C10C2
:100910008840A860606D40F00100606594F85C104C
:100920004FF0010808FA01F0304208D02168496907
:10093000090604D5A860606D40F00200606594F877
:100940005C1004208840304208D02168096889077B
:1009500004D5A860606D40F00400606594F85C10F8
:1009600010208840304218D021680968090714D542
:10097000A86020680168490304D50068000308D511
:10098000A16C07E00168C90503D4016821F00801E2
:100990000160216C09B12046884794F85C10202042
:1009A0008840304231D021680968C9062DD5A86039
:1009B00094F8350005282068016806D0490347D51A
:1009C000006800031DD4616C1CE021F01601016079
:1009D0002068416921F080014161206C08B9A06C58
:1009E00020B12068016821F00801016094F85C10D2
:1009F0003F208840A86084F8358084F83490216DC9
:100A00001FE0E16B09B120468847606D00282BD0BC
:100A1000606DC00714D0052084F835002068016897
:100A200021F0010101600098401C0090B84203D8F9
:100A300020680068C007F6D184F8358084F83490C7
:100A4000E16C002910D001B02046BDE8F043084712
:100A50000168C905D5D4016821F01001016084F84E
:100A6000358084F83490CCE7BDE8F883100000208E
:100A70002DE9F041044600F05FF906465CB1022022
:100A800084F83500002584F834502068016821F08E
:100A9000010101600DE00120BDE8F08100F04CF99A
:100AA000801B052805D920206065032084F83500C7
:100AB000F2E720680068C007F0D12268116820487A
:100AC0000140D4E901031843D4E903363343184302
:100AD00063691843A3691843E3691843236A1843F9
:100AE0000843616A042903D1D4E90B13194308436D
:100AF000106020684069666A20F0070130460E43A6
:100B0000012704280CD1A06A0643E06A40B12046C0
:100B1000FFF7B0FE20B14020606584F83570BAE779
:100B2000206846612046FFF791FE94F85C203F2143
:100B300091408160656584F835700020ACE7000065
:100B40003F8010F02DE9F84FDFF8B8A10022012412
:100B500003254FF00F090AF1040BAAF1040E00BFA0
:100B60000B6804FA02F63340B34273D10F7907F0F1
:100B70000307012F01D0022F16D187684FEA4208E0
:100B800005FA08FC27EA0C07D1F80CC00CFA08FC9F
:100B90004CEA070CC0F808C04768B7430E79C6F3A3
:100BA000001696403E4346600E79F643B6070DD0D8
:100BB000C768560005FA06FC27EA0C07D1F808C0FA
:100BC0000CFA06FC4CEA070CC0F80CC00E7906F0D3
:100BD0000306022E10D1D60800EB8608D8F8206054
:100BE00057074FEAD76C09FA0CF7BE430F6907FAAB
:100BF0000CF73743C8F8207006684FEA420C05FA34
:100C00000CF7BE430F7907F0030707FA0CF73743D9
:100C100007604E6816F4403F6DD03B4E376847F48E
:100C200080473760366822F0030706F48046009656
:100C3000364E07EB060CDCF8086897073F0F09FAF9
:100C400007F826EA0806DFF8C880404503D14FF0D0
:100C500000081EE04FE0DFF8BC80404502D14FF0B5
:100C6000010816E0DFF8B080404502D14FF00208DD
:100C70000FE0DFF8A880404502D14FF0030808E0FC
:100C8000DFF89C80404502D14FF0040801E04FF0AE
:100C9000070808FA07F848EA0608CCF80888DAF8DE
:100CA00000605746D1F804C09E435FEACC2C00D5C3
:100CB0001E433E60DBF800605F46D1F804C09E43EF
:100CC0005FEA8C2C00D51E433E60DEF8006077465C
:100CD000D1F804C09E435FEA8C3C00D51E433E60C1
:100CE000084F083F3E68D1F804C09E435FEACC3C01
:100CF00000D51E433E60521C102AFFF431AFBDE800
:100D0000F88F0000083C01404438024000300140A8
:100D1000000002400004024000080240000C0240B3
:100D2000001002400069084000D0012070470AB15D
:100D3000816170470904FBE7014880687047000043
:100D400004000020024881680278114481607047E5
:100D5000040000200B4810B5016841F400710160E7
:100D6000016841F480610160016841F480710160B3
:100D7000032000F099F80F2000F006F800F04AF880
:100D8000002010BD003C024030B505461C4887B02D
:100D90000024016841F001010160006806A900F02B
:100DA0000100009001A800F02BF900F049F9154965
:100DB000154AB0FBF1F11548491E026040F2E732D6
:100DC000C0E90324C0E90114846100F0F3FC0400CD
:100DD00012D10E4800F030FD04000DD1192000F0B2
:100DE00035F8102D07D200222946192000F03CF8D2
:100DF0000748056000E0012407B0204630BD000030
:100E00004438024040420F0000000140A40100208D
:100E1000080000200C4882B0016841F48041016064
:100E2000006800F4804000900748001F016841F00E
:100E3000805101600068002200F0805000900F2176
:100E4000901E02B000F010B844380240002809DBC0
:100E500000F01F02012191404009800000F1E020D4
:100E6000C0F8001170470000F0B40E4B1B680C4630
:100E7000C3F30223C3F10705042D00D90425191D6E
:100E8000072901D2002300E0DB1E012606FA05F146
:100E9000491E214099409E40761E16403143F0BCC9
:100EA00001F0E0BB0CED00E0064900F00702086825
:100EB0004FF6FF03184040EA0220034A104308603F
:100EC000704700000CED00E00000FA052DE9F04746
:100ED0000E46050065D0DFF81481D8F80000F7B29F
:100EE00000F00700B04207D288F80070D8F8000080
:100EF00000F00700B04254D128683D4C810712D55C
:100F0000400703D5206840F4E050206028780007AF
:100F100003D5206840F4604020602068A96820F074
:100F2000F000084320602878C0072DD03049686859
:100F30000839012812D0022813D0032811D00968DB
:100F4000890700292DDA216821F00301014321607E
:100F5000FFF7F2FE814641F2883A0EE00968890304
:100F6000EFE709688901ECE7FFF7E6FEA0EB09016E
:100F7000514502D90320BDE8F0872068696800F078
:100F80000C00B0EB810FEFD1D8F80010404601F013
:100F90000701B14207D90770006800F00700B042AE
:100FA00001D00120E7E72878400705D52068E968E7
:100FB00020F4E050084320602878000706D5206818
:100FC000296920F4604040EAC100206000F048F840
:100FD0002168084AC1F30311515CC8400649086002
:100FE00006480068FFF7D0FE0020C4E7003C02403E
:100FF00008380240C4460008100000200800002005
:101000000F2202600C4A136803F003034360136865
:1010100003F0F0038360136803F4E053C3601268C5
:101020004FF4E05303EAD20202610448006800F082
:10103000070008607047000008380240003C02408A
:101040000448054900680968044AC1F34231515C0B
:10105000C84070471000002008380240D4460008FD
:10106000154810B5006810F00C02144813D014494C
:10107000042A0FD0082A0ED10F4C241F226823689F
:1010800002F03F025B0207D52068C0F38810A0FB86
:10109000010106E0084610BD2168C1F38811A1FBDB
:1010A00000010023FFF748F92168C1F30141491C01
:1010B0004900B0FBF1F010BD083802400024F400F4
:1010C00040787D012DE9F84F04006ED02078DFF8DC
:1010D0004C93C007A9F104054AD009F10400016846
:1010E000C1F38101012908D00068C0F38100022802
:1010F0000AD1D9F80000400206D52868800337D508
:1011000060680028E1D033E06068B0F5803F10D01F
:10111000B0F5A02F286810D020F48030286028680F
:1011200020F4802028606068A8B1FFF705FE06461D
:101130000DE0286840F48030F4E740F48020286017
:10114000F7E700BFFFF7F8FD801B642873D8286815
:101150008003F7D50CE0FFF7EFFD064605E000BF82
:10116000FFF7EAFD801B6428F0D828688003F7D4D5
:101170002078DFF8AC8280074FF0000A3ED5A74800
:10118000001D016811F00C0F08D00068C0F3810049
:1011900002280BD1D9F80000400207D42868800744
:1011A00016D5E068012800D112E033E1E068B8B15B
:1011B0000120C8F80000FFF7BFFD064605E000BFAC
:1011C000FFF7BAFD801B0228C0D828688007F7D532
:1011D0002868216920F0F80040EAC10028600DE08D
:1011E000C8F800A0FFF7A8FD064604E0FFF7A4FD3D
:1011F000801B02281FD828688007F7D420780007B2
:1012000022D5864F87486169703771B1012101602D
:10121000FFF792FD064604E0FFF78EFD801B0228D3
:1012200009D838688007F7D50EE0C0F800A0FFF7AE
:1012300083FD064605E082E0FFF77EFD801B022865
:101240007DD838688007F7D42078400768D5DFF864
:10125000CCB100270BF13C0BDBF80000C0000BD435
:10126000DBF8001041F08051CBF80010DBF80000F3
:10127000012700F0805000906B4E3068C00510D4FC
:10128000306840F480703060FFF756FD009005E054
:10129000FFF752FD0099401A022850D83068C00567
:1012A000F6D55E4EA0686C3601280FD00528306850
:1012B00010D020F001003060306820F00400306071
:1012C000A068B8B1FFF738FD00900FE0306840F03B
:1012D0000100F4E740F004003060F7E7FFF72CFD71
:1012E0000099411A41F28830814266D830688007FF
:1012F000F4D50EE0FFF720FD009007E0FFF71CFD9E
:101300000099411A41F28830814256D830688007EE
:10131000F4D42FB1DBF8001021F08051CBF800108D
:10132000A069C8B33D49091D0968C1F381010229BB
:101330004AD00228504607D0C8F8600000E03CE0E0
:10134000FFF7FAFC04463BE04746C8F86000FFF7A9
:10135000F3FC064605E000BFFFF7EEFC801B022809
:101360002BD828688001F7D4D4E907010843A16A83
:101370002E4A490802EB0141626A41EA82110843A0
:1013800094F82C1040EA0161C9F800100120386679
:10139000FFF7D2FC044606E03EE000BFFFF7CCFCBE
:1013A000001B022809D828688001F7D534E000BF67
:1013B000FFF7C2FC001B022802D90320BDE8F88F0A
:1013C00028688001F4D427E00128F7D0D9F800007C
:1013D000E26900F4800191421CD1226A00F03F01D1
:1013E000914217D147F6C071626A0140B1EB821F8A
:1013F00010D1A26A4FF0FF3300F4403103EB5202E8
:10140000B1EB024F06D194F82C1000F07060B0EBF5
:10141000016F01D00120D1E70020CFE7043802405E
:1014200000004742800E4742007000400000FFFF6E
:1014300070B5040009D0606A002540B1256165617E
:10144000A56294F8510040B10CE0012070BD6068C5
:10145000B0F5827FF4D0E561F2E784F85050204681
:1014600000F044F8022084F851002068016821F05F
:1014700040010160A088218900F4827001F40441D8
:101480000843A18901F400610843217C01F00201B5
:101490000843217D01F001010843218B01F4007113
:1014A0000843217F01F03801084394F8201001F02F
:1014B00080010843218D01F4005108432168086030
:1014C000A069042101EA104094F8241001F01001F1
:1014D0000843216848602068C16921F40061C16146
:1014E0006565012084F85100002070BD70B586B09C
:1014F000064614216846FEF7E3FF1F49306888421C
:1015000038D11E480025016841F48051016000680F
:1015100000F48050059019481438016841F0020128
:1015200001600068694600F00200059028200090E4
:101530000220CDE901050320039005200490104806
:10154000FFF700FB104C0F4820604FF08060606098
:101550004020C4E902050001C4E90405A561E56174
:10156000256220466562FFF783FA08B1FFF7ADF9FF
:10157000B464A66306B070BD003001404438024038
:101580000004024040640240FC0000202DE9F84FB6
:10159000984616468A460446FFF7CEFB814694F8E5
:1015A000510001281ED1BAF1000F73D0002E71D066
:1015B00094F85000012815D0012784F850700320BA
:1015C00084F8510000256565C4F830A0A686E6863B
:1015D000A563A587E58765642564A068B0F5004F1D
:1015E00003D00CE00220BDE8F88F2068016821F0EC
:1015F000400101602068016841F480410160206879
:101600000168490603D4016841F040010160E068C7
:10161000B0F5006F606803D048B3012E27D047E0D3
:1016200008B1012E1FD1206B21680088C86006E038
:1016300020688168890709D5216B0988C160206B02
:10164000801C2063E08E401EE0860CE0FFF774FBF8
:10165000A0EB0901414503D3B8F1FF3F03D035E0CA
:10166000B8F1000F32D0E08E0028E1D123E0206BEA
:1016700021680078087306E02068816889070AD528
:10168000216B09780173206B401C2063E08E401EA3
:10169000E0860DE02BE0FFF74FFBA0EB0901414591
:1016A00003D3B8F1FF3F03D010E0B8F1000F0DD025
:1016B000E08E0028E0D14A464146204600F084FDF5
:1016C00008B120206065A06830B109E084F851704D
:1016D00084F85050032086E72068C1688068009035
:1016E00084F8517004F8505F60680028F3D001203E
:1016F00079E74FF0E0210428086903D020F00400C6
:101700000861704740F00400FAE710B5401EB0F1E0
:10171000807F01D3012010BD4FF0E02460610F21D4
:10172000601700F09FFF0020A061072020610020CB
:1017300010BD70477047000070B590F83C20012A3A
:101740002CD0012480F83C40022280F83D20036820
:101750005A689D6822F070060A6832435A60104B3E
:1017600002689A420ED0B2F1804F0BD00D4B9A42D4
:1017700008D00D4B9A4205D00C4B9A4202D00C4B2C
:101780009A4204D1496825F080031943916080F89A
:101790003D40002180F83C10084670BD022070BD1D
:1017A000000001400004004000080040000C004020
:1017B0000040014010B5040003D094F83D0010B182
:1017C00007E0012010BD002084F83C00204600F016
:1017D0001FF8022084F83D00211D206800F00CFE57
:1017E000012084F8460084F83E0084F83F0084F825
:1017F000400084F8410084F8420084F8430084F8F3
:10180000440084F8450084F83D00002010BD00002D
:1018100008B500680649884208D10648016841F0C9
:1018200002010160006800F00200009008BD0000A5
:10183000000400404038024090F83D10012901D0DA
:1018400001207047022180F83D100168CA6842F00B
:101850000102CA6000680E4988420ED0B0F1804F84
:101860000BD00C49884208D00B49884205D00B495F
:10187000884202D00A49884204D1816801F00701F8
:10188000062903D0016841F0010101600020704782
:10189000000001400004004000080040000C00402F
:1018A0000040014070B5044690F83C000025012836
:1018B00017D0012684F83C60022084F83D0020689F
:1018C000826822F0770222F47F4282600868502802
:1018D00038D00DDC20284FD005DC90B3102811D172
:1018E0004AE0022070BD302846D040280AD13BE0B3
:1018F00060282FD070280DD0B0F5805F03D0B0F5F0
:10190000005F12D0012584F83D60002084F83C007F
:10191000284670BDCB68D1E90121206800F0C9FDDF
:101920002068816841F0770109E0CB68D1E90121A5
:10193000206800F0BEFD2068816841F4804181602C
:10194000E1E719E0CA684968206800F067FE5021A5
:10195000206806E0CA684968206800F070FE6021CF
:10196000206800F0B0FDCEE7CA684968206800F042
:1019700055FE40212068F4E7226801461046F0E752
:1019800070472DE9F04104460068C66805694FF0CC
:101990000007A90713D5B10711D5F91E0161012070
:1019A0002077206880698007204602D0FFF7E8FF93
:1019B00004E000F0A7F8204600F039F9277768071F
:1019C00016D5700714D521686FF004000861022055
:1019D00020772068806910F4407F204602D0FFF70E
:1019E000CFFF04E000F08EF8204600F020F92777C2
:1019F000280715D5300713D521686FF00800086156
:101A0000042020772068C0698007204602D0FFF7B5
:101A1000B7FF04E000F076F8204600F008F92777D9
:101A2000E80616D5F00614D521686FF0100008619D
:101A3000082020772068C06910F4407F204602D03B
:101A4000FFF79EFF04E000F05DF8204600F0EFF89D
:101A50002777E80708D0F00706D021686FF001006B
:101A60000861204600F03CF9280608D5300606D566
:101A700021686FF0800008612046FFF75AFE680673
:101A800008D5700606D521686FF040000861204631
:101A900000F030F9A8060AD5B00608D521686FF025
:101AA000200008612046BDE8F041FFF743BEBDE8D5
:101AB000F081000010B586B0044614216846FEF798
:101AC000FFFC0D492068884214D10C4800210268AF
:101AD00042F002020260006800F00200059001205E
:101AE00000900220CDE90101CDE9031069460448C8
:101AF000FFF728F806B010BD00040040303802405F
:101B000000040240704770B5044690F83C0000267F
:101B10000D4601280FD0012084F83C006AB1042A48
:101B20001DD0082A2FD00C2A3FD00126002084F88F
:101B30003C00304670BD022070BD206800F0CCFC37
:101B40002068816941F0080181612068816921F084
:101B500004018161206881692A69114311E02068CC
:101B600000F0E2FC2068816941F400618161206835
:101B7000816921F480618161206881692A6941EA73
:101B800002218161D2E7206800F0FAFC2068C16977
:101B900041F00801C1612068C16921F00401C161FF
:101BA0002068C1692A69114311E0206800F014FD22
:101BB0002068C16941F40061C1612068C16921F4F4
:101BC0008061C1612068C1692A6941EA0221C1615D
:101BD000ACE710B5040003D094F83D0010B107E065
:101BE000012010BD002084F83C00204600F01EF8C3
:101BF000022084F83D00211D206800F0FDFB01203B
:101C000084F8460084F83E0084F83F0084F84000E1
:101C100084F8410084F8420084F8430084F84400CA
:101C200084F8450084F83D00002010BD70477047DF
:101C300010B50446022249B104290ED0082913D058
:101C400094F84100012816D0012010BD94F83E0000
:101C50000128F9D184F83E200FE094F83F000128D4
:101C6000F2D184F83F2008E094F840000128EBD13D
:101C700084F8402001E084F841200122206800F02F
:101C80000BFC12492068884203D1426C42F40042A6
:101C90004264206888420ED0B0F1804F0BD00C49CE
:101CA000884208D00B49884205D00B49884202D0AF
:101CB0000A49884204D1816801F00701062903D04E
:101CC000016841F001010160002010BD00000140E9
:101CD0000004004000080040000C004000400140AB
:101CE00000680349884201D1FFF72CB87047000013
:101CF000000001407047FEE72DE9F04107461C4611
:101D000015460E462A2000F065F9380A00F084F9DD
:101D1000F8B200F081F9280A00F07EF9E8B200F08C
:101D20007BF92B2000F056F9300A00F075F9F0B27B
:101D300000F072F9200A00F06FF9E0B200F06CF9DF
:101D4000BDE8F0412C2000F045B92DE9F047804670
:101D50001F4603F1130083B21646501E82B20C4692
:101D600001F1140081B24046DDF82090FFF7C4FF76
:101D70000AE0454604E0484600F03CF96D1CADB26F
:101D8000B542F8D3641CA4B2BC42F2D3BDE8F087DC
:101D900030B587B014216846FEF792FB7A48016897
:101DA00041F00201016000684FF4607400F002002D
:101DB00005900120CDE9004002900220734D039070
:101DC00069462846FEF7BEFE012221462846FEF758
:101DD000AEFF0022A9152846FEF7A9FF00228021A8
:101DE0002846FEF7A4FF642000F062FC0122802157
:101DF0002846FEF79CFF642000F05AFC112000F0FA
:101E0000E9F8782000F054FCB22000F0E3F80C2050
:101E100000F002F90C2000F0FFF8002000F0FCF8C0
:101E2000332000F0F9F8332000F0F6F8352000F008
:101E3000D1F8002000F0F0F8362000F0CBF80020B8
:101E400000F0EAF83A2000F0C5F8052000F0E4F8C8
:101E5000B72000F0BFF8352000F0DEF8BB2000F01E
:101E6000B9F82D2000F0D8F8C02000F0B3F82C20ED
:101E700000F0D2F8C22000F0ADF8012000F0CCF85C
:101E8000C32000F0A7F8152000F0C6F8C42000F029
:101E9000A1F8202000F0C0F8C62000F09BF80F2029
:101EA00000F0BAF8D02000F095F8A42000F0B4F8C3
:101EB000A12000F0B1F8D62000F08CF8A12000F0AD
:101EC000ABF8E02000F086F8702000F0A5F80520BF
:101ED00000F0A2F80A2000F09FF80B2000F09CF818
:101EE0000A2000F099F8272000F096F82F2000F043
:101EF00093F8442000F090F8472000F08DF8372048
:101F000000F08AF8142000F087F8142000F084F81C
:101F1000292000F081F82F2000F07EF8E12000F069
:101F200059F8702000F078F8072000F075F80C20C0
:101F300000F072F8082000F06FF8082000F06CF84C
:101F4000042000F069F82F2000F066F8332000F03C
:101F500063F8462000F060F8182000F05DF81520C6
:101F600000F05AF8152000F057F82B2000F054F834
:101F70002D2000F051F8212000F02CF807B0292086
:101F8000BDE8304000F026B830380240000402407E
:101F900008210148FFF74CBE5C010020411F5F296A
:101FA00008D800EB800080016421B0FBF1F0024909
:101FB0000968C863704700005C01002001B54FF05C
:101FC000FF33012269460248FFF7E0FA08BD00002E
:101FD000A400002010B5044600224FF4007104480C
:101FE000FEF7A5FE2046BDE81040FFF7E7BF000062
:101FF0000004024010B50446012251020548FEF7D4
:1020000096FE200AFFF7DAFFE0B2BDE81040FFF7C6
:10201000D5BF00000004024010B504460122510261
:102020000348FEF784FE2046BDE81040FFF7C6BF18
:1020300000040240094808B5016841F480010160CC
:102040000068002200F48000009005213A20FEF78D
:102050000BFFBDE808403A20FEF7F8BE30380240DA
:1020600010B5044A0021044800F08CFC03490860C4
:1020700010BD000098460008F12200080000002072
:102080000D4808B5016841F004010160016801F0E4
:1020900004010091016841F002010160016801F052
:1020A00002010091016841F001010160006800F047
:1020B0000100009008BD0000303802400F4810B504
:1020C0000D4901604FF48271416000218160C1605F
:1020D0004FF400720161C0E90512C1610162416201
:1020E00081620A21C162FFF7A3F9002803D0BDE88D
:1020F0001040FEF7EABB10BD00300140A4000020F4
:1021000010B58EB000240794089409940A940B9497
:102110001C2168460C94FEF7D3F91E481C49016047
:1021200040F23F11C0E901146321C0E90314846146
:10213000FFF740FB08B1FEF7C8FB4FF48050079053
:1021400007A91448FFF7AEFB08B1FEF7BEFB114824
:10215000FFF73FFD08B1FEF7B8FB0B940BA90D4844
:102160000C94FFF7E9FA08B1FEF7AFFB6020CDE968
:10217000000402940822694606480494FFF7C3FC51
:1021800008B1FEF7A2FB0348FFF794FC0EB010BDA8
:10219000000400405C010020FEE7FEE7C2684068E2
:1021A00009B182617047110481617047018900683B
:1021B00089B2FEF7B7BD8268006809B182617047D5
:1021C0001104816170470000F8B515460E460B46B4
:1021D000009204460122022100F02CF8A0B9134815
:1021E00013490068B0FBF1F04FF47A714843009056
:1021F0006068B0F5827F0DD13346002280212046F1
:10220000009500F017F870B1606D40F02000606537
:102210000320F8BD009830B1401E0090206880680F
:10222000C0430006F6D50020F8BD000010000020D5
:1022300000366E012DE9F8431E4691468846044655
:10224000089DFEF779FD401B351AFEF775FD074620
:1022500026480068C0F3CB3068430AE0701C09D000
:10226000FEF76AFDC01BA8420FD275B10098B8B343
:10227000401E00902068816838EA010033D00021B8
:102280004945EBD10020BDE8F8832068416821F082
:10229000E00141606068B0F5827F0BD1A068B0F5C5
:1022A000004F02D0B0F5806F04D12068016821F0A2
:1022B00040010160A06AB0F5005F09D120680168A3
:1022C00021F4005101602068016841F4005101606F
:1022D000012084F85100002084F850000320D2E748
:1022E000FFE70025C6E70121CAE700001000002033
:1022F0000EB500F0C7F9FEF79BF9FFF749FD4FF661
:10230000FF70002100904FF48C73F0220846FFF715
:102310001CFDFFF73DFE0A20FFF740FE4FF47A74E4
:1023200002A901A8FEF7B6F9204600F0F0FAF7E797
:1023300010B54FF0E020006901F018FD012803D02E
:10234000BDE8104001F046BA10BD000030B593B0B2
:1023500030216846FEF7B4F814210CA8FEF7B0F857
:102360001C480024016841F080510160006800F0C1
:10237000805011901848016841F4404101600068A4
:10238000022500F440401190012003901020049099
:10239000009506950820CDE907406420CDE90905A0
:1023A00004200B906846FEF78DFE08B172B6FEE77A
:1023B0000F20CDE90C054FF48050CDE90E400321EC
:1023C0000CA81094FEF782FD002801D072B6FEE73B
:1023D00013B030BD40380240007000400248016830
:1023E00041F470010160704788ED00E00148FFF79B
:1023F000C8BA0000A4010020F0B502681F4B204CB1
:10240000204D214E4FF0804C984207D0604505D0BA
:10241000A04203D0A84201D0B04203D122F07007FD
:102420004A683A43984210D060450ED0A0420CD082
:10243000A8420AD0B04208D0144CA04205D0144C97
:10244000A04202D0134CA04203D122F44074CA68C7
:1024500022434C6922F0800222438C68C4620C68DB
:102460008462984201D109690163016841F0040165
:102470000160012141610260F0BD000000000140E7
:102480000004004000080040000C004000400140F3
:10249000004401400048014010B501F01F03012134
:1024A000046A99408C430462016A9A4011430162B4
:1024B00010BD10B5846842EA032224F47F440A4325
:1024C0002243826010BD826822F070020A4342F00B
:1024D000070181607047000030B5036A026A22F08C
:1024E000010202624268846924F073050C682C437F
:1024F00023F002058B682B430A4DA8420BD123F031
:102500000805CB6822F440722B434D6923F0040385
:1025100015438A692A4342608461496841630362C2
:1025200030BD00000000014030B5026A036A23F0AC
:1025300010030362436884690D6824F4E64444EAA6
:1025400005248D6822F0200242EA05120B4DA842B4
:102550000ED1CD6822F0800242EA05124D6923F4C3
:10256000406343EA85038D6922F0400243EA850314
:102570004360846149688163026230BD00000140AC
:1025800030B5036A026A22F4807202624268C4694A
:1025900023F4007324F073050C682C438D6843EA20
:1025A00005230C4DA8420ED1CD6823F4006343EA05
:1025B00005234D6922F4405242EA05128D6923F445
:1025C000806342EA05124260C4614968C1630362E4
:1025D00030BD00000000014030B5046A026A22F4F8
:1025E000805202624268C3690D6823F4E64343EAFD
:1025F00005238D6824F4005444EA0534064DA842AE
:1026000004D14D6922F4804242EA85124260C361DE
:1026100049680164046230BD0000014010B5036ADE
:10262000046A24F001040462846924F0F00444EA9A
:10263000021423F00A020A438461026210BD10B53D
:10264000036A046A24F010040462846923F0A0037E
:1026500024F4704444EA023243EA011182610162C7
:1026600010BDFEE70907090E002804DB00F1E02099
:1026700080F80014704700F00F0000F1E02080F8AF
:10268000141D704710B50420FFF733F806484FF4C7
:102690007A710078B1FBF0F004490968BDE8104098
:1026A000B1FBF0F0FFF731B804000020100000206B
:1026B00070B5054600244FF47A7603E0304600F00A
:1026C00005F8641CAC42F9D370BD000030B54FF082
:1026D000E024002365690B490B4A0968B1FBF2F15C
:1026E0004843A2690BE0A169914208D003D2A2EB52
:1026F0000102134402E0A5EB010313440A4683429E
:10270000F1D330BD1000002040420F000D4900B54C
:102710000A6887B042F002020A60096801F002010B
:102720000591D0E90221114300911121019101216C
:1027300002910221039140686946FEF703FA07B04F
:1027400000BD0000303802402DE9F041074600246A
:102750000121FFF730FD0025802600213846FFF7D4
:102760001DFD0220FFF7B2FF01213846FFF716FDDD
:102770003846FFF71BFD10B126FA05F0044300218F
:102780003846FFF70BFD0220FFF7A0FF6D1CEDB2EE
:10279000082DE2D32046BDE8F08110B504460021A3
:1027A000FFF709FD0220FFF791FF01212046FFF707
:1027B000F5FC0220FFF78AFF00212046FFF7EEFC20
:1027C000BDE810400220FFF781BF2DE9F041002451
:1027D0000E460746802525FA04F131403846FFF7BA
:1027E000EAFC0220FFF772FF01213846FFF7D6FC12
:1027F0000220FFF76BFF00213846FFF7CFFC0220D5
:10280000FFF764FF641CE4B2082CE4D3BDE8F08158
:1028100010B504460121FFF7CEFC0220FFF756FF5A
:1028200001212046FFF7BAFC0220FFF74FFF0021ED
:102830002046FFF7B3FCBDE810400220FFF746BF7B
:1028400010B504460121FFF7B6FC01212046FFF731
:10285000A5FC0220FFF73AFF00212046FFF7ABFC62
:102860000220FFF733FF00212046FFF797FCBDE869
:1028700010400220FFF72ABF10B504460021FFF7E1
:102880008DFC00212046FFF796FC0220FFF71EFF7B
:1028900001212046FFF782FC0220FFF717FF0121EC
:1028A0002046FFF788FCBDE810400220FFF70EBF6E
:1028B00070B505460121FFF77EFC0220FFF706FFF9
:1028C00001212846FFF76AFC0220FFF7FFFE284699
:1028D000FFF76CFC044600212846FFF75FFC02204E
:1028E000FFF7F4FE204670BDFEF734FAFFF72EFD29
:1028F000FFF7C6FBFFF79EFBFFF7E0FBFFF700FCCF
:1029000000F012F8FFF7ACFB00F020F8FEE710B57E
:10291000EFF3058111B16FF0050403E0002408B165
:1029200000F0F8FD204610BDEFF3058010B16FF008
:10293000050070470448016811B14FF0FF3070473F
:1029400001210160002070476400002010B5EFF302
:10295000058010B16FF0050010BD0848016801291D
:1029600002D04FF0FF3010BD054A002182F8141D3F
:102970000221016000F036FE002010BD640000203E
:102980000BE000E02DE9FF414FEA01034FF00005A5
:10299000EFF30581039549BB40B38027182100243C
:1029A0004AB3166806B1344696691EB13146761EA2
:1029B000382E02D21679F60703D0002004B0BDE805
:1029C000F081566906B1B708D2F808C0BCF1000F13
:1029D0000DD0D5685C2D18D312693AB136B18DE8A7
:1029E00006103A46214601F096F903900DE0D668AC
:1029F0005EB912694AB903AACDE90012BAB22146FA
:102A000001F05CF9012800D003950398D6E7000097
:102A10002DE9F041134C0F460546E6682068001D7D
:102A200000F044FC681C07D137B12168BDE8F041D3
:102A30000D48091D00F08ABC20683544B542456048
:102A4000216805D2A06BBDE8F041091D00F066BC0D
:102A5000606B091D00F062FCA06A854200D2A5628D
:102A6000BDE8F08114000020DC0600202DE9F041D3
:102A7000054600F077FC2D4CA068401CA060206843
:102A80002B4F10B1606930B32BE02560A06801289E
:102A900027D1002606EB860007EB800000F030FC13
:102AA000761C382EF6D3234800F02AFC2148143037
:102AB00000F026FC1F48283000F022FC1D483C3066
:102AC00000F01EFC1B48503000F01AFC19486063EF
:102AD0001430A06305E02068E96AC06A884200D823
:102AE0002560606A401C60626864E86A2169884207
:102AF00000D9206100EB800007EB8000291D00F069
:102B000025FC00F04FFC606900280CD02068E96AC1
:102B1000C06A884207D208494FF080500860BFF36E
:102B20004F8FBFF36F8FBDE8F081000014000020CD
:102B30002C0200208C06002004ED00E038B500F0E7
:102B400011FC104C2068C8B90F4800F0D9FB0E48A2
:102B5000143000F0D5FB0C48E060143020610A4BC3
:102B60000020F03B009003F1500210210A2000F0F9
:102B700047FE206010B105A100F096FCBDE838408A
:102B800000F010BC50000020E0070020546D72518E
:102B90000000000030B4026C0B46002A0BD0C16864
:102BA0001144C1608468A14201D30168C16030BC96
:102BB0001846FDF738BC30BC70472DE9F041856BF5
:102BC000174604460026026C82B1C7B1E068FDF7E3
:102BD0002AFCE168206C091AE1602268914202D265
:102BE000A168081AE060022F16D017E02068A8B983
:102BF000A06801F033F906460020A0600EE060688E
:102C0000FDF711FC216C606808446060A16888428F
:102C100004D32068606001E005B16D1E6D1CA563E2
:102C20003046BDE8F08110B5044690F8590058B11F
:102C300001280CD002280FD0502080F31188BFF358
:102C40004F8FBFF36F8FFEE7206B00F0BFFB204676
:102C5000BDE8104000F0BABB10BD000010484FF4B2
:102C60007051420706D0C01D0D4920F00700411ADF
:102C7000C1F570510B4A00230144C2E90003083931
:102C8000183A21F0070111604B600B600B1AC0E984
:102C9000001393604FF00040536050617047000094
:102CA000C00E002080000020144E154CA6F29C4758
:102CB0004FF08058DFF84C9012E000BF00F052FB5C
:102CC000F068C568281D00F0F1FAA068401EA060F9
:102CD0006068401E606000F065FB2846FFF7A3FFB8
:102CE00060680028EAD138680128F9D9C9F800805D
:102CF000BFF34F8FBFF36F8FF2E70000C8060020CD
:102D00001400002004ED00E070B51D46049C51B194
:102D1000C4F80020C4E90F010121204600F0A4FD01
:102D200084F84C5070BD2460F4E700002DE9F05F9A
:102D30008846DDE90B941546834691009A460A9E23
:102D4000A522206BFDF7B4FB6FF00301206B01EBB4
:102D50008501084420F00707780707D0502080F34A
:102D60001188BFF34F8FBFF36F8FFEE70025B8F1D7
:102D7000000F0FD05FF00000221818F8001082F842
:102D8000341018F8001011B1401C1028F4D384F846
:102D9000435001E084F83450382E00D33726E662E1
:102DA000C4E91365201D00F0B6FA04F1180000F024
:102DB000B2FA2461C6F138006462A061656584F8E6
:102DC000585052465946384600F05AFA2060B9F138
:102DD000000F01D0C9F80040BDE8F09F30B511499F
:102DE00000E011460A688242FBD34B685C188442BB
:102DF00003D1406818444860084643681C18944250
:102E000009D1084C183C2468A24209D052681A44DF
:102E100042600A6812680260814200D0086030BDDA
:102E20000460F9E78000002070B5002441600B4D7C
:102E30000061914206D8D11A8269914206D2011DE1
:102E4000286907E09A4203D2994201D3012403E0A2
:102E5000011DE86800F062FA204670BD50000020B5
:102E600010B5044600F07EFAA06B28B15FF00004B4
:102E700000F098FA204610BD0124F9E730B589B07A
:102E80003C4D6EE00498002806DADDE90601059A5B
:102E900090470498002864DB069C606910B1201DEF
:102EA00000F004FA03A800F0D7F8024604980A28B4
:102EB00057D2DFE800F00505052D334A05052D330F
:102EC00094F8280040F0010084F828000599A069D2
:102ED000059B01442046FFF7A7FF68B3216A2046FF
:102EE000884794F8280040073BD5002000900598BB
:102EF000A169002342181946204601F0B9F8D8B953
:102F0000502080F31188BFF34F8FBFF36F8FFEE720
:102F100014F8280F20F00100207022E094F8280017
:102F200040F0010084F828000598A06128B18118BC
:102F300013462046FFF778FF13E0502080F31188F6
:102F4000BFF34F8FBFF36F8FFEE794F82800810720
:102F500003D4204600F03AFA03E020F0010084F8A0
:102F60002800002204A9286800F0D2FD002889D199
:102F700009B030BD500000202DE9FC410F46054648
:102F800000F074FB01A800F067F80446019818B13E
:102F900000F0DCFFBDE8FC81254EAFB13069006870
:102FA000D0B30027291B3A46306800F091FA00F0B0
:102FB000CDFF0028EED11F494FF080500860BFF3CD
:102FC0004F8FBFF36F8FE5E7A542EBD800F0BEFF50
:102FD000F0682746C068C468201D00F067F994F8BF
:102FE0002800410719D5A0692B4641193A462046C9
:102FF000FFF71AFFA8B100200346014600902A46B9
:10300000204601F035F860B9502080F31188BFF3F5
:103010004F8FBFF36F8FFEE707E020F0010084F8C9
:103020002800216A20468847B4E70127BAE7000054
:103030005000002004ED00E00648416B096829B10A
:10304000416BC968C9684968816270474FF0FF31B8
:10305000FAE700001400002070B5054600F094FE69
:10306000064E0446B068844203D200F009F80120FD
:1030700000E0002028602046B46070BD50000020B1
:10308000F8B5194D20E0C068C4680668201D00F03E
:103090000DF9216A2046884794F82800400713D587
:1030A000A0693044B04206D924616060211DE868FF
:1030B00000F034F908E00020034601460090324653
:1030C000204600F0D5FF38B1E86801680029DAD160
:1030D0002969C5E90310F8BD502080F31188BFF3BA
:1030E0004F8FBFF36F8FFEE7500000200848406805
:1030F000401C4FF0500080F3118804D0BFF34F8F75
:10310000BFF36F8FFEE7BFF34F8FBFF36F8FFEE705
:1031100088000020074CE068016841B1C0680021C8
:10312000D0F80000FFF728FFFFF7A8FEF3E7012122
:103130000020F7E7500000202DE9F041044600F0A0
:1031400011F994F9455004F1240609E0606A48B188
:10315000304600F0C3FE08B100F00AFA6D1E6DB2F1
:10316000002DF3DC4FF0FF3684F8456000F01AF9CB
:1031700000F0F8F894F9445004F1100709E02069D0
:1031800048B1384600F0AAFE08B100F0F1F96D1E12
:103190006DB2002DF3DC84F84460BDE8F04100F02E
:1031A00001B900002DE9F0410546002700F05EFA64
:1031B000324E306808B9FFF751FD706905424ED1B3
:1031C000C5B3083568070ED005F00700C0F1080048
:1031D0000544680707D0502080F31188BFF34F8F54
:1031E000BFF36F8FFEE72DB37068854237D8234851
:1031F000183001460C6801E020460C466168A9427F
:1032000002D221680029F7D131688C4227D00768A3
:103210002168016060680837411B10290FD96019C7
:10322000420708D0502080F31188BFF34F8FBFF3BF
:103230006F8FFEE713E041606560FFF7CFFD6168C7
:103240007068401A7060B268904200D2B0607069D5
:1032500001430020C4E90001F068401CF06000F068
:1032600075FE780707D0502080F31188BFF34F8F89
:10327000BFF36F8FFEE73846BDE8F081680000209D
:1032800010B5031F4FF080741C601B1F21F001015B
:103290001960191F044B0B6014390A60091F6FF085
:1032A000020244380A6010BDED300008D0E9013256
:1032B00001699A60D0E901235A604A68824201D1CB
:1032C00082684A60002202610868401E086008683F
:1032D00070470000034B036003F15C00086080202E
:1032E0001060704708080020044B036003F15C0085
:1032F00008604FF48070106070470000640A00207E
:1033000000F108014FF0FF32C0E90112C160016114
:1033100000210160704700210161704730B50B68E2
:103320005A1C02D000F1080202E0026904E02246C1
:10333000546825689D42FAD953684B6099608A6049
:10334000516008610168491C016030BD42684A60F3
:1033500093688B6093685960916008610168491CAB
:1033600001607047502080F31188BFF34F8FBFF387
:103370006F8F0A494868401C486001280CD10848F2
:10338000006810F0FF0F07D0502080F31188BFF3C2
:103390004F8FBFF36F8FFEE770470000880000205B
:1033A00004ED00E00849486828B1401E486001D19A
:1033B00080F311887047502080F31188BFF34F8F3E
:1033C000BFF36F8FFEE700008800002070B5002873
:1033D0002AD0164DA0F1080460686969084207D137
:1033E000502080F31188BFF34F8FBFF36F8FFEE73C
:1033F00022683AB1502080F31188BFF34F8FBFF39A
:103400006F8FFEE78843606000F030F9606869689C
:10341000084468602046FFF7E1FC2869401C2861E9
:10342000BDE8704000F092BD70BD00006800002053
:103430004FF0E02000210161816105494FF47A726B
:103440000968B1FBF2F1491E416107210161704732
:103450001000002010B5FCF74BFF114910280ED3C7
:1034600000F1E02090F8F0030A78904207D2502053
:1034700080F31188BFF34F8FBFF36F8FFEE70948CA
:103480000068896800F4E060884207D9502080F322
:103490001188BFF34F8FBFF36F8FFEE710BD0000A1
:1034A000880000200CED00E010B5084B002200BFA2
:1034B00053F832401CB1521C082AF9D310BD43F80E
:1034C000321003EBC201486010BD0000EC01002087
:1034D00070B515460E460446FFF744FF94F94410B4
:1034E0000020491C01D184F8440094F94510491C7E
:1034F00001D184F84500FFF755FFA06B28B92A4693
:10350000314604F1240000F051F82046BDE8704037
:10351000FFF712BE10B5020014D00F48006B38B18F
:10352000502080F31188BFF34F8FBFF36F8FFEE7FA
:1035300000F09CF800211046FFF76AFA00F006FD43
:10354000002807D105494FF080500860BFF34F8F26
:10355000BFF36F8F10BD00001400002004ED00E0E9
:1035600002490A6A0260C96841607047140000207D
:1035700001490120C86170471400002010B50C46B5
:1035800050B1094909681831FFF7C8FE2046BDE867
:1035900010400121FFF73CBA502080F31188BFF39F
:1035A0004F8FBFF36F8FFEE71400002070B51446F5
:1035B0000D4668B10A4909681831FFF7C7FE0CB11A
:1035C0004FF0FF3521462846BDE87040FFF720BA8E
:1035D000502080F31188BFF34F8FBFF36F8FFEE74A
:1035E0001400002030B587B00024039405AA04A974
:1035F00003A80494FFF76EFEDDE903010094CDE912
:103600000110002315A11748059A00F084FB164D00
:103610000028E8621FD000F0FBFC012809D0401C04
:1036200019D1502080F31188BFF34F8FBFF36F8FF4
:10363000FEE7502080F31188BFF34F8FBFF36F8FE9
:103640004FF0FF30A86201206861EC6007B0BDE870
:10365000304000F045B807B030BD000049444C454B
:1036600000000000A92C0008140000200248016B93
:10367000491C01637047000014000020164810B573
:10368000016B11B10121C16110BD0021C16101694E
:10369000124A01E0B9B1491E01EB810352F823300F
:1036A000002BF7D001EB810302EB830202F1080447
:1036B00053685B685360A34201D15B685360DA686A
:1036C0000260016110BD502080F31188BFF34F8F5D
:1036D000BFF36F8FFEE70000140000202C020020D3
:1036E0001CB537480168374A914207D1502080F312
:1036F0001188BFF34F8FBFF36F8FFEE7006831492A
:10370000491E884207D1502080F31188BFF34F8FA4
:10371000BFF36F8FFEE72C4908780190FF200870F7
:1037200008788DF800009DF800009DF8002000F05A
:10373000F000904207D0502080F31188BFF34F8FE4
:10374000BFF36F8FFEE79DF80000204C00F05000A3
:1037500020700720A06005E09DF8002052008DF841
:103760000020401E9DF800201206F5D4A06003281A
:1037700007D0502080F31188BFF34F8FBFF36F8FB6
:10378000FEE74FF44070A060019808700C482030AC
:10379000016841F470010160016841F0704101600D
:1037A000FFF746FE00206060FCF76AFD08480168EC
:1037B00041F040410160FCF74FFD00201CBD0000BE
:1037C00000ED00E071C20F4100E400E0880000203D
:1037D00034EF00E010B5502080F31188BFF34F8F15
:1037E000BFF36F8F00F0D6FA18B104494FF0805044
:1037F0000860002080F3118810BD000004ED00E097
:1038000038B5049D18B153B1CAB181B120E0502040
:1038100080F31188BFF34F8FBFF36F8FFEE7502007
:1038200080F31188BFF34F8FBFF36F8FFEE75020F7
:1038300080F31188BFF34F8FBFF36F8FFEE739B16D
:10384000502080F31188BFF34F8FBFF36F8FFEE7D7
:1038500050241C46012384F846302B460094FFF781
:1038600053FA204638BD000070B50D46040025D03F
:10387000FFF778FDD4E90F20216802FB0011A16059
:103880000021A163216861600A46D4E90F01401E4E
:1038900000FB0121E16021464FF0FF3001F8440FA9
:1038A000487004F110008DB1FFF72AFD04F12400E7
:1038B000FFF726FDFFF776FD012070BD502080F355
:1038C0001188BFF34F8FBFF36F8FFEE72169002987
:1038D000F0D000F003FB0028ECD004494FF08050FA
:1038E0000860BFF34F8FBFF36F8FE3E704ED00E095
:1038F0002DE9FF4782B01D468A464FF000080400BC
:1039000003D0BAF1000F08D011E0502080F31188E5
:10391000BFF34F8FBFF36F8FFEE7206C38B150209D
:1039200080F31188BFF34F8FBFF36F8FFEE7022D37
:103930000AD1E06B012807D0502080F31188BFF333
:103940004F8FBFF36F8FFEE700F010FA3F4F4FF03D
:1039500000094FF0805648B9049838B1502080F3E0
:103960001188BFF34F8FBFF36F8FFEE7FFF7FAFCAD
:10397000A06BE16B884207D3022D05D00498D0B12B
:10398000B8F1000F1AD01EE02A4651462046FFF734
:1039900014F9616A19B104F1240000F09FFA20B112
:1039A0003E60BFF34F8FBFF36F8FFFF7FBFC01202B
:1039B00006B0BDE8F087FFF7F5FC22E06846FFF7A8
:1039C000CFFD4FF00108FFF7EDFCFFF74FFEFFF7CB
:1039D000C9FC94F94400401C01D184F8449094F946
:1039E0004500401C01D184F84590FFF7DBFC04A999
:1039F000684600F029F930B12046FFF79DFB00F042
:103A0000A5FA0020D4E7FFF7ADFCA06BE16B88427C
:103A100013D1FFF7C7FC04F110000499FFF7AEFDC6
:103A20002046FFF789FB00F091FA00289ED13E6006
:103A3000BFF34F8FBFF36F8F98E7FFF7B3FC2046BC
:103A4000FFF77AFB00F082FA90E7000004ED00E057
:103A50002DE9F0471F4690468946040003D0B9F18E
:103A6000000F08D011E0502080F31188BFF34F8F72
:103A7000BFF36F8FFEE7206C38B1502080F31188C0
:103A8000BFF34F8FBFF36F8FFEE7022F0AD1E06BBA
:103A9000012807D0502080F31188BFF34F8FBFF368
:103AA0006F8FFEE7FFF7D6FC5020EFF3118680F30F
:103AB0001188BFF34F8FBFF36F8FA06BE16B88420C
:103AC00006D3022F04D0002086F31188BDE8F087CA
:103AD00094F94550A06B3A4649462046FFF76DF8E9
:103AE000681C04D06D1C84F845500120ECE7606A26
:103AF0000028FAD004F1240000F0F0F90028F4D0F6
:103B0000B8F1000FF1D00121C8F80010EDE7000076
:103B10002DE9F747002683B08A46040003D0BAF1A6
:103B2000000F08D011E0502080F31188BFF34F8FB1
:103B3000BFF36F8FFEE7206C38B1502080F31188FF
:103B4000BFF34F8FBFF36F8FFEE700F00FF9DFF881
:103B5000F4804FF000094FF0805748B9059838B10C
:103B6000502080F31188BFF34F8FBFF36F8FFEE7B4
:103B7000FFF7F8FBA56BC5B151462046FFF70AF8E1
:103B80006D1EA563206950B104F1100000F0A6F984
:103B900028B1C8F80070BFF34F8FBFF36F8FFFF7E6
:103BA00001FC012006B0BDE8F087059808B11EB100
:103BB00006E0FFF7F7FB27E06846FFF7D1FC012698
:103BC000FFF7F0FBFFF752FDFFF7CCFB94F9440041
:103BD000401C01D184F8449094F94500401C01D167
:103BE00084F84590FFF7DEFB05A9684600F02CF845
:103BF000002820460AD0FFF79FFA00F0A7F92046D8
:103C0000FFF72EF90028B3D00020CBE7FFF728F903
:103C100090B104F124000599FFF7B0FC2046FFF7AE
:103C20008BFA00F093F90028A2D1C8F80070BFF316
:103C30004F8FBFF36F8F9BE72046FFF77DFA00F0B1
:103C400085F995E704ED00E02DE9F0410C4605000B
:103C500011D0C4B1FFF786FB174BDA686E68206895
:103C6000911B471C17D02F681B6A9F4219D09642A0
:103C700017D8012410E0502080F31188BFF34F8F34
:103C8000BFF36F8FFEE7502080F31188BFF34F8F93
:103C9000BFF36F8FFEE70024FFF784FB2046BDE8EB
:103CA000F081884205D9401A20602846FFF758FC69
:103CB000F1E700202060DCE7140000202DE9FF5F21
:103CC0008346DDE90E87994616468A469000FFF73F
:103CD00069FA05001CD05C20FFF764FA040014D0D8
:103CE0000020256384F85900CDE90240CDE9008722
:103CF0004B46324651465846FFF718F82046FEF725
:103D0000B5FE012004B0BDE8F09F2846FFF75EFB3A
:103D10004FF0FF30F6E7F0B585B0DDE90B640A9DA2
:103D2000A6B1DCB15C2700972663022684F85960AF
:103D3000002604AFCDE90246CDE90057FEF7F6FFB5
:103D40002046FEF793FE049805B0F0BD502080F3A6
:103D50001188BFF34F8FBFF36F8FFEE7502080F3C2
:103D60001188BFF34F8FBFF36F8FFEE7054841699E
:103D700019B1006B18B10020704701207047022074
:103D800070470000140000200148C0687047000020
:103D9000140000202DE9F0412E4C0027206B28B1A3
:103DA000A069401CA0613846BDE8F081E668761C39
:103DB000E66013D1606B006838B1502080F3118841
:103DC000BFF34F8FBFF36F8FFEE7606BA16B616333
:103DD000A063206A401C2062FFF72EF9A06ADFF87A
:103DE0007880864209D3606B0068A0B1606BC068C0
:103DF000C5686868864211D2A0622068C06A00EB7C
:103E0000800158F82100012800D90127E069002825
:103E1000C9D00127C7E74FF0FF30EDE7281DFFF7B6
:103E200045FAA86A18B105F11800FFF73FFAE86AE9
:103E30002169884200D9206100EB800108EB8100F4
:103E4000291DFFF783FAE86A2168C96A8842CAD344
:103E50000127C8E7140000202C02002070B50400E0
:103E60004FF0000133D01B4D2868844207D050200A
:103E700080F31188BFF34F8FBFF36F8FFEE7206D84
:103E800038B1401E2065E36CE26A9A421FD040B10F
:103E90001DE0502080F31188BFF34F8FBFF36F8F69
:103EA000FEE7201DFFF702FAE06CE062C0F1380087
:103EB000A061E06A2969884200D92861064900EBBF
:103EC000800001EB8000211DFFF740FA0121084628
:103ED00070BD0000140000202C02002070B5C068E6
:103EE000C46854B104F118000646FFF7DFF9144D19
:103EF000286B50B13146134815E0502080F31188EB
:103F0000BFF34F8FBFF36F8FFEE7201DFFF7CEF992
:103F1000E06A2969884200D928610B4900EB8000DA
:103F200001EB8000211DFFF711FAE06A2968C96AD8
:103F3000884202D90120E86170BD002070BD0000F8
:103F400014000020B40600202C0200202DE9F047C8
:103F50002C4D00242746286B38B1FFF703FA286B55
:103F6000401E2863286B40B146E0502080F3118842
:103F7000BFF34F8FBFF36F8FFEE7A968224E01207A
:103F8000D1B3A6F5916980463068E0B1F068C468A5
:103F900004F11800FFF78AF9201DFFF787F9E06A9E
:103FA0002969884200D9286100EB800109EB810072
:103FB000211DFFF7CBF9E06A2968C96A8842E3D37B
:103FC000C5F81C80E0E70CB1FFF736F8AC694CB1DE
:103FD0004FEA0806FFF7DEFE00B1EE61641EF9D17C
:103FE0000020A861E86938B108490127380708604E
:103FF000BFF34F8FBFF36F8FFFF7D4F93846BDE89B
:10400000F087000014000020B406002004ED00E05A
:1040100010B586B0FEF792FD114C2068B8B10020B3
:104020000390049005AA04A903A8FFF75DF9DDE950
:10403000032102208DE8070000230AA10B48059AFE
:10404000FFF769FE606010B106B0012010BD50207E
:1040500080F31188BFF34F8FBFF36F8FFEE700002F
:1040600050000020546D7220537663001531000813
:104070002DE9FF411E46134602000A9D4FF0000045
:1040800016D0144C2768002F0FD0CDE900130292F0
:10409000062917DAFFF76AFE02284FF000030FD057
:1040A000002269462068FFF723FC04B0BDE8F081D8
:1040B000502080F31188BFF34F8FBFF36F8FFEE75F
:1040C0002A46EEE70023324669463846FFF7C0FC31
:1040D000EBE700005000002021F00042A2F1605206
:1040E000B2F5801F01F0004328BFD2F17F6C0BD9DD
:1040F0005FEA001C43EAC20242EB507018BF7047EF
:1041000028BF20F001007047B2F5801FBCBF1846E1
:1041100070474FEA410C1CF5001F02D2084600F020
:10412000B6BA70B500F070F900000089FFF7F6BF6D
:104130004FF00040A0F580007047000010B591EAF4
:10414000030F48BF83F0004300F1BA81841A71EB7A
:10415000030C05D2121943EB0C03001B61EB0C019D
:10416000DFF824E14FEA1154A4EB135C1EEA430F7D
:1041700018BF9EEA445F73D023EA0E03DCF1200EE1
:1041800021EA045143F4801332D322FA0CFE10EBDF
:104190000E0023FA0CFE41EB0E01CCF1200E03FAC7
:1041A0000EFE10EB0E0051F10001B1F5801FCCF1B5
:1041B000200E32D201EB045112FA0EF2BDE810408B
:1041C00058BF7047401C38BF5FEA420218BF7047B3
:1041D000002814BF20F0010041F100014FEA410323
:1041E00013F5001F38BF7047A1F1C04100F05AB964
:1041F000012A43EB0302ACF1200CDCF11F0E32BFAD
:104200004FF0000E23FA0CF310EB030041EB0451C6
:10421000B4EB115FD0D0A1EB045101F58011490836
:104220005FEA300001EB04510ED350F1000038BFBB
:1042300012FA0EFE08D1BDE81040C9E7401C38BF95
:104240005FEA4202CAD1C3E7BDE810404FEA41032A
:1042500013F5001F38BF7047A1F1C04100F022B92B
:104260009EEA445F08D011EA5E0FBDE8104004BF2B
:1042700001F0004100207047BDE8104070B500F02B
:10428000C3F800BF64FBBE3E0000E0FFB0FA80F35D
:1042900010FA03F10AD0C3F11D0303F580634FEA5E
:1042A00041504FEA035202EBD12170474FF000001A
:1042B00070470000DFF848C170B51CEA111E1EBF30
:1042C0001CEA13159EEA0C0F95EA0C0F00F06F80A4
:1042D00081EA030423EA4C134EEAD47E21EA4C110E
:1042E00041F4801143F48013AE44A1FB024CA0FBC7
:1042F0000365AEF17F7E361955EB0C05A1FB034C2F
:104300004CF10003A0FB021C16EB0C06654153F1B7
:104310000003094218BF46F0010613F4007F0BD1D9
:104320004FEA03314FEA0530340341EA155140EAC0
:1043300016506FF003020AE04FEAC3214FEAC5208E
:10434000F40241EA555140EA56506FF0020202EB86
:104350002E4201EB025585EACE710AD05FEA440C89
:1043600018BF24F0004450F1000041F1000120EAA0
:10437000D47040F2FE7C624500D270BDA84214BFEA
:104380004FF080444FF04044002E08BF0024BEF19F
:10439000806FA8BFA1F1C041BDE8704080F282806B
:1043A0004FF0000001F1C04101F0004170479EEA6A
:1043B0000C0F0CEA131518BF95EA0C0F06D04FF03E
:1043C000000081EA030E0EF0004170BD00F01CF801
:1043D0008900013E00F007B800F009B84FEA430C2D
:1043E0005FEA5C5C08D081EA030100F05BB84FEA49
:1043F000410C5FEA5C5CF6D14FF000000149704768
:104400000000FF070000F87F0EF1020E2EF0030EF1
:104410005EF8046B364205D4012A43EB030515F51B
:10442000001F12D8012841EB010C1CF5001F0CD80D
:104430000ED14FEAD17C15F5001F0CEB4C0C0CF1A2
:10444000020C08BF4CEBD37C04E04FF0080C01E0F9
:104450004FEAD37C0CEB4C0526FA05F606F007066E
:10446000B6F1040C06D20EEB860CBDE870404CF0A1
:10447000010C6047DFE80CF0090B02024FF000412D
:104480004FF00000A1F5002170BD1946104601282B
:1044900051EB010418BFD4F5001484BF002001F0D3
:1044A000004170BD0808A0F500114FEA31017047C6
:1044B00010B591EA030F48BF83F000433FF546AEC5
:1044C000841A71EB030C07D212198CF0004C43EBE9
:1044D0000C03001B61EB0C01DFF8A4E14FEA11545F
:1044E000A4EB135C1EEA430F18BF9EEA445F00F082
:1044F000B08023EA6E03524221EA0451C3EB6E03FB
:1045000038BF5B1EDCF1200E25D322FA0CFE10EB27
:104510000E0043FA0CFE41EB0E01CCF1200E03FA23
:104520000EFE10EB0E0051F10001CCF1200E29D44B
:1045300012FA0EF201EB0451BDE8104058BF70476B
:10454000401C1CBFB2F1004F704700280CBF491C33
:1045500020F00100704712EB020E43EB030218BF7C
:104560004FF0010E4EEA4202ACF1200CDCF11E0EBF
:1045700054D943FA0CFE10EB0E0051F1FF31CCF18F
:104580001E0ED5D50EF1010E12FA0EFE404141EB82
:10459000010101EB445C5FEA5C5C10D910EBDE705A
:1045A00001EB045138BFBEF1004FBDE8104018BF09
:1045B000704700280CBF491C20F00100704730D222
:1045C0004FEAD42C11F5001124F400641BD0B1FA89
:1045D00081F20B3AA41AA41ED2F12003914030FAC2
:1045E00003F31943904001EBCC71002C01EB045113
:1045F000BDE81040A8BF704701F1C0414FF0000076
:1046000001F000417047B0FA80F310FA03F100D1D5
:1046100010BDE41A173C4805C90AE4E701EB045150
:1046200010BD491001EB0451BDE810404FEA3000C5
:1046300002E04FF0000170474A0008BF0042F8D086
:10464000B2F5001F28BF704701F000414FF0000095
:1046500070479EEA445F07D011EA5E0FBDE8104044
:1046600004BF002100207047BDE8104070B5FFF77F
:10467000CBFE00BF40DFF63E83F00041104670479E
:104680000000E0FF4FF04070E1EE100A7047FF219C
:1046900041EAD050C0057047DC4600080000000029
:1046A0000000000000000000000000000002000008
:1046B00018000000000000000000000000061016B6
:1046C00000061016000000000000000001020304B4
:1046D0000607080900000000010203046465666122
:1046E000756C745461736B0008470008000000206B
:1046F000A4000000D4010008AC470008A40000207A
:104700007C500000F00100080000000001000000E3
:1047100010000000000000000024F4000000000071
:104720000000000000000000000000000000000089
:104730000000000000000000000000000000000079
:104740000000000000000000000000000000000069
:104750000000000000000000000000000000000059
:104760000000000000000000000000000000000049
:104770000000000000000000000000000000000039
:104780000000000000000000000000000000000029
:1047900000000000AAAAAAAA00000000000402402B
:0C47A00000040240002000000040000067
:040000050800019955
:00000001FF
