:020000040800F2
:10000000F8BD01203903000863240008FB1E000826
:1000100061240008B70600088729000800000000D6
:10002000000000000000000000000000790200084D
:100030006109000800000000D502000855260008EC
:100040005303000853030008530300085303000838
:100050005303000853030008530300085303000828
:100060005303000853030008530300085303000818
:100070005303000853030008530300085303000808
:100080005303000853030008530300080000000056
:100090000000000000000000000000005303000802
:1000A00053030008112700085303000853030008F6
:1000B00053030008530300085303000853030008C8
:1000C00053030008530300085303000853030008B8
:1000D0005303000853030008530300080000000006
:1000E00053030008530300085303000800000000F6
:1000F00000000000000000000000000053030008A2
:1001000000000000530300085303000853030008D5
:1001100000000000000000000000000000000000DF
:100120005303000853030008B108000853030008F4
:100130005303000800000000000000000000000061
:100140000000000000000000000000005303000851
:100150005303000853030008530300085303000827
:1001600053030008530300080000000000000000D3
:10017000000000000000000000000000000000007F
:100180000000000053030008000000000000000011
:10019000530300085303000800F002F800F05CF875
:1001A0000AA090E8000C82448344AAF10107DA45D2
:1001B00001D100F051F8AFF2090EBAE80F0013F0C8
:1001C000010F18BFFB1A43F00103184740D5040084
:1001D00060D504000A444FF0000C10F8013B13F006
:1001E000070408BF10F8014B1D1108BF10F8015B90
:1001F000641E05D010F8016B641E01F8016BF9D183
:1002000013F0080F1EBF10F8014BAD1C0C1B09D1D9
:100210006D1E58BF01F801CBFAD505E014F8016B4B
:1002200001F8016B6D1EF9D59142D6D370470000DD
:100230000023002400250026103A28BF78C1FBD8EF
:10024000520728BF30C148BF0B6070471FB533F05D
:100250004CFD1FBD10B510BD00F0F4F91146FFF7BD
:10026000F5FF26F088FF00F012FA03B4FFF7F2FF63
:1002700003BC00F019FA00002C4B19680868B0E8BC
:10028000F04F80F30988BFF36F8F4FF0000080F3C9
:10029000118870470000000008480068006880F37B
:1002A00008884FF0000080F3148862B661B6BFF38F
:1002B0004F8FBFF36F8F00DF00BF00BF08ED00E07E
:1002C000DFF80C00016841F470010160704700BF65
:1002D00088ED00E0EFF30980BFF36F8F134B1A68CE
:1002E0001EF0100F08BF20ED108A20E9F04F1060BB
:1002F00009B44FF0500080F31188BFF34F8FBFF364
:100300006F8F32F0C7FC4FF0000080F3118809BCFA
:1003100019680868B0E8F04F1EF0100F08BFB0EC85
:10032000108A80F30988BFF36F8F70473C0100206B
:10033000EFF30580704700000948804709480047EF
:10034000FEE7FEE7FEE7FEE7FEE7FEE7FEE7FEE785
:10035000FEE7FEE704480549054A064B70470000E2
:100360000127000899010008F8B70120F8BD012015
:10037000F8B90120F8B9012053EA020C00F06980B5
:100380002DE9F04B4FF00006002B1FBFB3FA83F5A9
:1003900003FA05F424FA05F65E4012BF1643B2FADA
:1003A00082F502FA05F4C5F120051EBF22FA05FC0C
:1003B00044EA0C04203556EA044C4FEA144418BFB2
:1003C000641C4FF000084FF00009904271EB030CE1
:1003D00039D3002919BFB1FA81F701FA07F6B0FA4B
:1003E00080F700FA07F6C7F120071EBF20FA07FCC6
:1003F00046EA0C062037B6FBF4FCA7EB0507103FD6
:1004000007F01F0BCBF120060CFA0BFB2CFA06F6BB
:1004100044BFB3460026202FA4BF5E464FF0000B1A
:100420005BEA060C08BF4FF0010B19EB0B09ABFBA5
:10043000027C48EB0608C01B06FB02CC0BFB03CC7E
:1004400071EB0C01C1E70B46024641464846BDE848
:10045000F08B13B54FF000004FF00001AFF30080B8
:10046000BDE81C40704710B54C1084EA530404D515
:100470004042C1F1000138BF491E1B4204D552421F
:10048000C3F1000338BF5B1EFFF776FF14F0804F07
:1004900004D04042C1F1000138BF491E14F0004FA2
:1004A00004D05242C3F1000338BF5B1E10BD032AC3
:1004B00040F2308010F0030C00F0158011F8013B81
:1004C000BCF1020F624498BF11F801CB00F8013B68
:1004D00038BF11F8013BA2F1040298BF00F801CB2C
:1004E00038BF00F8013B11F0030300F02580083A03
:1004F000C0F0088051F8043B083A51F804CBA0E85A
:100500000810F5E7121D5CBF51F8043B40F8043BAE
:10051000AFF30080D20724BF11F8013B11F801CBE3
:1005200048BF11F8012B24BF00F8013B00F801CBB4
:1005300048BF00F8012B704710B5203AC0F00B807F
:10054000B1E81850203AA0E81850B1E81850A0E8D7
:100550001850BFF4F5AF5FEA027C24BFB1E8185031
:10056000A0E8185044BF18C918C0BDE810405FEAA1
:10057000827C24BF51F8043B40F8043B08BF70471D
:10058000D20728BF31F8023B48BF11F8012B28BF22
:1005900020F8023B48BF00F8012B704702F0FF0330
:1005A00043EA032242EA024200F02CB84FF0000274
:1005B00000B5134694469646203922BFA0E80C5059
:1005C000A0E80C50B1F12001BFF4F7AF090728BF34
:1005D000A0E80C5048BF0CC05DF804EB890028BFB0
:1005E00040F8042B08BF704748BF20F8022B11F0D9
:1005F000804F18BF00F8012B704770477047704755
:100600004FF000020429C0F0128010F0030C3FF4F8
:10061000CFAFCCF1040CBCF1020F18BF00F8012BD6
:10062000A8BF20F8022BA1EB0C01FFF7C1BF5FEAC6
:10063000C17C24BF00F8012B00F8012B48BF00F853
:10064000012B7047754600F02BF8AE460500694651
:10065000534620F00700854618B020B5FFF77AFE14
:10066000BDE820404FF000064FF000074FF00008B3
:100670004FF0000B21F00701AC46ACE8C009ACE834
:10068000C009ACE8C009ACE8C0098D46704710B598
:100690000446AFF300802046BDE81040FFF7E5BDFB
:1006A0000048704798B7012001491820ABBEFEE70B
:1006B000260002007047FEE70146F92000F0D6B898
:1006C00030B5144887B0016841F00101016001684C
:1006D00001F001010591016841F00201016000682B
:1006E0004FF4004400F0020005900120CDE90040E5
:1006F00002900220084D03906946284600F0A6FAB1
:1007000001222146284600F096FB04480DF074FCB7
:1007100007B030BD30380240000002401400002015
:10072000022000F05FB8000008B5042269460320EB
:1007300000F01EF89DF800109DF8010001F00F0177
:1007400040EA0121054801609DF802209DF8031050
:1007500002F00F0241EA0221416008BD0C000020B6
:1007600010B5FFF7ADFFBDE810400520FFF7A4BFAF
:100770002DE9F041044615460E4619480DF0D6FC09
:100780002A2117480DF097FC15480DF007FD21466A
:1007900013480DF090FC12480DF000FD10480DF0CC
:1007A000C5FC2B210E480DF086FC0D480DF0F6FC23
:1007B00000246F1E09E000BF0DF03CFC3055BC4228
:1007C00002DA07480DF05FFC641C0548AC42F3DB1D
:1007D0000DF094FCBDE8F04101480DF0C3BC0000F1
:1007E0001400002010B5044613480DF09FFC2A2188
:1007F00011480DF060FC10480DF0D0FC21460E4869
:100800000DF059FC0C480DF0C9FC0B480DF08EFCA6
:100810002B2109480DF04FFC07480DF0BFFC06489E
:100820000DF008FC044604480DF068FC02480DF089
:1008300099FC204610BD00001400002070B50A4D40
:100840004FF4004400222146284600F0F4FA0A2022
:1008500007F088FD01222146284600F0ECFABDE8A9
:100860007040642007F07EBD0000024070B5044671
:100870000D460E480DF05AFC2A210C480DF01BFCC9
:100880000A480DF08BFC214608480DF014FC07487F
:100890000DF084FC294605480DF00DFC03480DF0D1
:1008A0007DFCBDE8704001480DF05CBC14000020E8
:1008B000014800F059B80000900200200168182398
:1008C000CAB2103AB2FBF3F2054B6FF30901032AE7
:1008D0009B5CC36500D9091D81650846704700000F
:1008E000A8D1040810B5014600208B698A6A4FF030
:1008F000C07453B1B3F5005F15D072B1012A0CD0AA
:10090000022A0AD0032A09D104E01AB1012A06D02A
:10091000022A03D1C96AC90100D5012010BDC96AE4
:10092000A142FAD010BD002AF7D0012AF2D0022A43
:10093000F3D0032AF3D010BD30B50468256825F440
:1009400080252560046863608368402B036803D0BA
:1009500099600068C26030BD9A600068C16030BDB7
:10096000704772B6FEE700002DE9F84304464FF0E9
:100970000009CDF8009063484FF41651A56D00684A
:10098000B0FBF1F72E6894F85C10082000FA01F132
:1009900031420FD021680A6852070BD50A6822F04D
:1009A00004020A6094F85C108840A860606D40F012
:1009B0000100606594F85C104FF0010808FA01F03E
:1009C000304208D021684969090604D5A860606DE5
:1009D00040F00200606594F85C10042088403042CA
:1009E00008D021680968890704D5A860606D40F0C7
:1009F0000400606594F85C1010208840304218D0E4
:100A000021680968090714D5A860206801684903AE
:100A100004D50068000308D5A16C07E00168C9058A
:100A200003D4016821F008010160216C09B120465E
:100A3000884794F85C1020208840304231D02168EB
:100A40000968C9062DD5A86094F8350005282068E6
:100A5000016806D0490347D5006800031DD4616CC6
:100A60001CE021F0160101602068416921F080013D
:100A70004161206C08B9A06C20B12068016821F0A8
:100A80000801016094F85C103F208840A86084F859
:100A9000358084F83490216D1FE0E16B09B1204668
:100AA0008847606D00282BD0606DC00714D00520EA
:100AB00084F835002068016821F001010160009888
:100AC000401C0090B84203D820680068C007F6D1E7
:100AD00084F8358084F83490E16C002910D001B09E
:100AE0002046BDE8F04308470168C905D5D4016830
:100AF00021F01001016084F8358084F83490CCE74F
:100B0000BDE8F883280200202DE9F041044600F0FA
:100B100097F906465CB1022084F83500002584F878
:100B200034502068016821F0010101600DE00120CE
:100B3000BDE8F08100F084F9801B052805D920204C
:100B40006065032084F83500F2E720680068C0077C
:100B5000F0D12268116820480140D4E9010318430C
:100B6000D4E903363343184363691843A369184330
:100B7000E3691843236A18430843616A042903D1CF
:100B8000D4E90B1319430843106020684069666A72
:100B900020F0070130460E43012704280CD1A06A3B
:100BA0000643E06A40B12046FFF79CFE20B140209A
:100BB000606584F83570BAE7206846612046FFF723
:100BC0007DFE94F85C203F2191408160656584F84A
:100BD00035700020ACE700003F8010F02DE9F041B7
:100BE0000446866D90F83400002501280DD00120C0
:100BF00084F8340094F835700020012F07D084F871
:100C0000340002252846BDE8F0810220FBE70227D8
:100C100084F8357060652046FFF78EFE94F85C100E
:100C20003F208840B0602068016841F016010160F3
:100C3000206C20B12068016841F008010160206843
:100C4000016841F001010160DCE700002DE9F84F87
:100C5000DFF8B8A10022012403254FF00F090AF1A3
:100C6000040BAAF1040E00BF0B6804FA02F633402D
:100C7000B34273D10F7907F00307012F01D0022F80
:100C800016D187684FEA420805FA08FC27EA0C07E4
:100C9000D1F80CC00CFA08FC4CEA070CC0F808C0EC
:100CA0004768B7430E79C6F3001696403E43466048
:100CB0000E79F643B6070DD0C768560005FA06FC54
:100CC00027EA0C07D1F808C00CFA06FC4CEA070C1E
:100CD000C0F80CC00E7906F00306022E10D1D6081B
:100CE00000EB8608D8F8206057074FEAD76C09FA5E
:100CF0000CF7BE430F6907FA0CF73743C8F82070AA
:100D000006684FEA420C05FA0CF7BE430F7907F06C
:100D1000030707FA0CF7374307604E6816F4403FA5
:100D20006DD03B4E376847F480473760366822F015
:100D3000030706F480460096364E07EB060CDCF8F7
:100D4000086897073F0F09FA07F826EA0806DFF850
:100D5000C880404503D14FF000081EE04FE0DFF8A7
:100D6000BC80404502D14FF0010816E0DFF8B080AA
:100D7000404502D14FF002080FE0DFF8A88040455F
:100D800002D14FF0030808E0DFF89C80404502D113
:100D90004FF0040801E04FF0070808FA07F848EAA6
:100DA0000608CCF80888DAF800605746D1F804C085
:100DB0009E435FEACC2C00D51E433E60DBF800600A
:100DC0005F46D1F804C09E435FEA8C2C00D51E43D9
:100DD0003E60DEF800607746D1F804C09E435FEACB
:100DE0008C3C00D51E433E60084F083F3E68D1F85A
:100DF00004C09E435FEACC3C00D51E433E60521CBB
:100E0000102AFFF431AFBDE8F88F0000083C014024
:100E1000443802400030014000000240000402401B
:100E200000080240000C0240001002400069084027
:100E300000D0012070470AB1816170470904FBE7C7
:100E400001488068704700002C0200200248816839
:100E500002781144816070472C0200200B4810B5C5
:100E6000016841F400710160016841F48061016032
:100E7000016841F480710160032000F099F80F20AF
:100E800000F006F800F04AF8002010BD003C0240D7
:100E900030B505461C4887B00024016841F00101C7
:100EA0000160006806A900F00100009001A800F0B0
:100EB0002BF900F049F91549154AB0FBF1F1154835
:100EC000491E026040F2E732C0E90324C0E9011480
:100ED000846100F071FD040012D10E4800F0AEFDF7
:100EE00004000DD1192000F035F8102D07D2002292
:100EF0002946192000F03CF80748056000E001246D
:100F000007B0204630BD00004438024040420F0088
:100F10000000014038030020300200200C4882B05D
:100F2000016841F480410160006800F48040009055
:100F30000748001F016841F08051016000680022ED
:100F400000F0805000900F21901E02B000F010B809
:100F500044380240002809DB00F01F0201219140C3
:100F60004009800000F1E020C0F800117047000047
:100F7000F0B40E4B1B680C46C3F30223C3F1070504
:100F8000042D00D90425191D072901D2002300E0F2
:100F9000DB1E012606FA05F1491E214099409E40BC
:100FA000761E16403143F0BC01F006BD0CED00E0AA
:100FB000064900F0070208684FF6FF03184040EAB0
:100FC0000220034A10430860704700000CED00E067
:100FD0000000FA052DE9F0470E46050065D0DFF860
:100FE0001481D8F80000F7B200F00700B04207D231
:100FF00088F80070D8F8000000F00700B04254D123
:1010000028683D4C810712D5400703D5206840F47D
:10101000E05020602878000703D5206840F4604045
:1010200020602068A96820F0F0000843206028783C
:10103000C0072DD0304968680839012812D002282D
:1010400013D0032811D00968890700292DDA2168F7
:1010500021F0030101432160FFF7F2FE814641F2D6
:10106000883A0EE009688903EFE709688901ECE72F
:10107000FFF7E6FEA0EB0901514502D90320BDE8C8
:10108000F0872068696800F00C00B0EB810FEFD1A9
:10109000D8F80010404601F00701B14207D90770A7
:1010A000006800F00700B04201D00120E7E728788F
:1010B000400705D52068E96820F4E0500843206027
:1010C0002878000706D52068296920F4604040EAA6
:1010D000C100206000F048F82168084AC1F30311FC
:1010E000515CC8400649086006480068FFF7D0FE1A
:1010F0000020C4E7003C02400838024090D10408B8
:1011000028020020300200200F2202600C4A1368DF
:1011100003F003034360136803F0F0038360136874
:1011200003F4E053C36012684FF4E05303EAD202C1
:1011300002610448006800F0070008607047000082
:1011400008380240003C024004480549006809682C
:10115000044AC1F34231515CC84070472802002064
:1011600008380240A0D10408154810B5006810F0F6
:101170000C02144813D01449042A0FD0082A0ED1A7
:101180000F4C241F2268236802F03F025B0207D540
:101190002068C0F38810A0FB010106E0084610BDDE
:1011A0002168C1F38811A1FB00010023FFF7E4F8D7
:1011B0002168C1F30141491C4900B0FBF1F010BDA9
:1011C000083802400024F40040787D012DE9F84FF2
:1011D00004006ED02078DFF84C93C007A9F1040515
:1011E0004AD009F104000168C1F38101012908D046
:1011F0000068C0F3810002280AD1D9F8000040023B
:1012000006D52868800337D560680028E1D033E030
:101210006068B0F5803F10D0B0F5A02F286810D0DE
:1012200020F480302860286820F4802028606068DE
:10123000A8B1FFF705FE06460DE0286840F48030AF
:10124000F4E740F480202860F7E700BFFFF7F8FDDF
:10125000801B642873D828688003F7D50CE0FFF75B
:10126000EFFD064605E000BFFFF7EAFD801B64289E
:10127000F0D828688003F7D42078DFF8AC828007A4
:101280004FF0000A3ED5A748001D016811F00C0F71
:1012900008D00068C0F3810002280BD1D9F8000003
:1012A000400207D42868800716D5E068012800D1DD
:1012B00012E033E1E068B8B10120C8F80000FFF7A0
:1012C000BFFD064605E000BFFFF7BAFD801B022800
:1012D000C0D828688007F7D52868216920F0F80071
:1012E00040EAC10028600DE0C8F800A0FFF7A8FDA3
:1012F000064604E0FFF7A4FD801B02281FD82868DB
:101300008007F7D42078000722D5864F8748616987
:10131000703771B101210160FFF792FD064604E0CC
:10132000FFF78EFD801B022809D838688007F7D5A3
:101330000EE0C0F800A0FFF783FD064605E082E05E
:10134000FFF77EFD801B02287DD838688007F7D420
:101350002078400768D5DFF8CCB100270BF13C0BB3
:10136000DBF80000C0000BD4DBF8001041F0805126
:10137000CBF80010DBF80000012700F0805000904F
:101380006B4E3068C00510D4306840F48070306017
:10139000FFF756FD009005E0FFF752FD0099401A57
:1013A000022850D83068C005F6D55E4EA0686C366D
:1013B00001280FD00528306810D020F001003060DF
:1013C000306820F004003060A068B8B1FFF738FD45
:1013D00000900FE0306840F00100F4E740F00400B6
:1013E0003060F7E7FFF72CFD0099411A41F2883091
:1013F000814266D830688007F4D50EE0FFF720FD03
:10140000009007E0FFF71CFD0099411A41F2883077
:10141000814256D830688007F4D42FB1DBF8001031
:1014200021F08051CBF80010A069C8B33D49091DD7
:101430000968C1F3810102294AD00228504607D029
:10144000C8F8600000E03CE0FFF7FAFC04463BE02F
:101450004746C8F86000FFF7F3FC064605E000BF0A
:10146000FFF7EEFC801B02282BD828688001F7D4F8
:10147000D4E907010843A16A2E4A490802EB014159
:10148000626A41EA8211084394F82C1040EA016133
:10149000C9F8001001203866FFF7D2FC044606E0C8
:1014A0003EE000BFFFF7CCFC001B022809D82868EB
:1014B0008001F7D534E000BFFFF7C2FC001B022813
:1014C00002D90320BDE8F88F28688001F4D427E012
:1014D0000128F7D0D9F80000E26900F480019142B8
:1014E0001CD1226A00F03F01914217D147F6C0712A
:1014F000626A0140B1EB821F10D1A26A4FF0FF3344
:1015000000F4403103EB5202B1EB024F06D194F8E4
:101510002C1000F07060B0EB016F01D00120D1E71A
:101520000020CFE70438024000004742800E4742C7
:10153000007000400000FFFF704770B5040009D044
:10154000606A002540B125616561A56294F851008B
:1015500040B10CE0012070BD6068B0F5827FF4D02E
:10156000E561F2E784F85050204600F045F802208B
:1015700084F851002068016821F040010160A088D2
:10158000218900F4827001F404410843A18901F427
:1015900000610843217C01F002010843217D01F034
:1015A00001010843218B01F400710843217F01F000
:1015B0003801084394F8201001F080010843218D80
:1015C00001F40051084321680860A069042101EA80
:1015D000104094F8241001F010010843216848607D
:1015E0002068C16921F40061C1616565012084F84A
:1015F0005100002070BD000070B586B00646142171
:101600006846FEF7D3FF2049306888423AD11F4828
:101610000025016841F480510160006800F48050A9
:1016200005901A481438016841F002010160006811
:10163000694600F002000590282000900220CDE9C4
:10164000010503200390052004901148FFF7FEFADE
:10165000114C104820604FF0806060604020C4E969
:10166000020500012061400060618000C4E90605B8
:10167000256220466562FFF747FA08B1FFF771F966
:10168000B464A66306B070BD003001404438024027
:101690000004024040640240900200202DE9F84F0F
:1016A000984616468A460446FFF7CAFB814694F8D8
:1016B000510001281ED1BAF1000F73D0002E71D055
:1016C00094F85000012815D0012784F850700320A9
:1016D00084F8510000256565C4F830A0A686E6862A
:1016E000A563A587E58765642564A068B0F5004F0C
:1016F00003D00CE00220BDE8F88F2068016821F0DB
:10170000400101602068016841F480410160206867
:101710000168490603D4016841F040010160E068B6
:10172000B0F5006F606803D048B3012E27D047E0C2
:1017300008B1012E1FD1206B21680088C86006E027
:1017400020688168890709D5216B0988C160206BF1
:10175000801C2063E08E401EE0860CE0FFF770FBEB
:10176000A0EB0901414503D3B8F1FF3F03D035E0B9
:10177000B8F1000F32D0E08E0028E1D123E0206BD9
:1017800021680078087306E02068816889070AD517
:10179000216B09780173206B401C2063E08E401E92
:1017A000E0860DE02BE0FFF74BFBA0EB0901414584
:1017B00003D3B8F1FF3F03D010E0B8F1000F0DD014
:1017C000E08E0028E0D14A464146204600F0A8FEBF
:1017D00008B120206065A06830B109E084F851703C
:1017E00084F85050032086E72068C1688068009024
:1017F00084F8517004F8505F60680028F3D001202D
:1018000079E7000070B5044690F8510001281CD11A
:10181000C9B1C2B194F85000012816D0012084F853
:101820005000032084F85100002565652163A286DD
:10183000E286A56365642564A587E587A068B0F5A1
:10184000004F04D00DE0012070BD022070BD206863
:10185000016821F0400101602068016841F4804185
:101860000160A16C17480864A16C1748C863A16C9B
:101870001648C864A06C0565E38E2268216B0C32A3
:10188000A06CFFF7ABF930B1606D40F010006065FF
:1018900084F85050D7E720680168490603D40168EE
:1018A00041F04001016084F850502068416841F0E7
:1018B000200141602068416841F002014160002040
:1018C00070BD0000B1240008BB2400088F2400086C
:1018D000064910B5884208D1082000F09FFC044852
:1018E0000068BDE8104013F0ABB810BD380200200E
:1018F000C001002070474FF0E0210428086903D0A0
:1019000020F004000861704740F00400FAE710B5C9
:10191000401EB0F1807F01D3012010BD4FF0E024C4
:1019200060610F21601701F047F80020A0610720D7
:101930002061002010BD70477047000070B590F81E
:101940003C20012A2CD0012480F83C40022280F85F
:101950003D2003685A689D6822F070060A68324389
:101960005A60104B02689A420ED0B2F1804F0BD0F1
:101970000D4B9A4208D00D4B9A4205D00C4B9A421F
:1019800002D00C4B9A4204D1496825F080031943D8
:10199000916080F83D40002180F83C10084670BD01
:1019A000022070BD0000014000040040000800401B
:1019B000000C00400040014010B5040003D094F832
:1019C0003D0010B107E0012010BD002084F83C006C
:1019D000204600F01FF8022084F83D00211D2068F9
:1019E00000F09CFE012084F8460084F83E0084F854
:1019F0003F0084F8400084F8410084F8420084F8F5
:101A0000430084F8440084F8450084F83D00002039
:101A100010BD000008B500680649884208D1064894
:101A2000016841F002010160006800F002000090CE
:101A300008BD0000000400404038024090F83D100E
:101A4000012901D001207047022180F83D10016872
:101A5000CA6842F00102CA6000680E4988420ED08E
:101A6000B0F1804F0BD00C49884208D00B49884216
:101A700005D00B49884202D00A49884204D18168C6
:101A800001F00701062903D0016841F0010101605E
:101A900000207047000001400004004000080040A2
:101AA000000C00400040014070B5044690F83C0036
:101AB0000025012817D0012684F83C60022084F814
:101AC0003D002068826822F0770222F47F42826023
:101AD0000868502838D00DDC20284FD005DC90B3A2
:101AE000102811D14AE0022070BD302846D040288D
:101AF0000AD13BE060282FD070280DD0B0F5805F70
:101B000003D0B0F5005F12D0012584F83D600020BD
:101B100084F83C00284670BDCB68D1E901212068DB
:101B200000F059FE2068816841F0770109E0CB6838
:101B3000D1E90121206800F04EFE2068816841F45F
:101B400080418160E1E719E0CA684968206800F0D7
:101B5000F7FE5021206806E0CA684968206800F056
:101B600000FF6021206800F040FECEE7CA684968A7
:101B7000206800F0E5FE40212068F4E72268014675
:101B80001046F0E770472DE9F04104460068C6684A
:101B900005694FF00007A90713D5B10711D5F91E44
:101BA000016101202077206880698007204602D0EB
:101BB000FFF7E8FF04E000F0A7F8204600F039F94D
:101BC0002777680716D5700714D521686FF00400D1
:101BD0000861022020772068806910F4407F204649
:101BE00002D0FFF7CFFF04E000F08EF8204600F0AF
:101BF00020F92777280715D5300713D521686FF00E
:101C000008000861042020772068C069800720460A
:101C100002D0FFF7B7FF04E000F076F8204600F0AE
:101C200008F92777E80616D5F00614D521686FF075
:101C300010000861082020772068C06910F4407FF8
:101C4000204602D0FFF79EFF04E000F05DF820463A
:101C500000F0EFF82777E80708D0F00706D02168F2
:101C60006FF001000861204600F03CF9280608D515
:101C7000300606D521686FF0800008612046FFF726
:101C80005AFE680608D5700606D521686FF0400038
:101C90000861204600F030F9A8060AD5B00608D53C
:101CA00021686FF0200008612046BDE8F041FFF791
:101CB00043BEBDE8F081000010B586B00446142193
:101CC0006846FEF773FC0D492068884214D10C4821
:101CD0000021026842F002020260006800F0020087
:101CE0000590012000900220CDE90101CDE903100B
:101CF00069460448FEF7AAFF06B010BD0004004084
:101D00003038024000040240704770B5044690F835
:101D10003C0000260D4601280FD0012084F83C002D
:101D20006AB1042A1DD0082A2FD00C2A3FD00126E0
:101D3000002084F83C00304670BD022070BD206851
:101D400000F05CFD2068816941F008018161206834
:101D5000816921F004018161206881692A69114348
:101D600011E0206800F072FD2068816941F4006193
:101D700081612068816921F48061816120688169C5
:101D80002A6941EA02218161D2E7206800F08AFDD8
:101D90002068C16941F00801C1612068C16921F072
:101DA0000401C1612068C1692A69114311E02068FA
:101DB00000F0A4FD2068C16941F40061C1612068A0
:101DC000C16921F48061C1612068C1692A6941EA61
:101DD0000221C161ACE710B5040003D094F83D00C6
:101DE00010B107E0012010BD002084F83C0020461F
:101DF00000F01EF8022084F83D00211D206800F04C
:101E00008DFC012084F8460084F83E0084F83F00F1
:101E100084F8400084F8410084F8420084F84300CC
:101E200084F8440084F8450084F83D00002010BD8B
:101E30007047704710B50446022249B104290ED0FC
:101E4000082913D094F84100012816D0012010BDB4
:101E500094F83E000128F9D184F83E200FE094F870
:101E60003F000128F2D184F83F2008E094F84000B8
:101E70000128EBD184F8402001E084F841200122C0
:101E8000206800F09BFC12492068884203D1426C14
:101E900042F400424264206888420ED0B0F1804F84
:101EA0000BD00C49884208D00B49884205D00B4919
:101EB000884202D00A49884204D1816801F00701B2
:101EC000062903D0016841F001010160002010BD26
:101ED000000001400004004000080040000C0040E9
:101EE0000040014000680349884201D1FEF7AEBFBF
:101EF00070470000000001407047FEE708B506F09B
:101F00001BFA00F085F800204FF48C73F022014694
:101F1000009000F040F800F07BF9322000F094F9D6
:101F2000FEF71EFCFEF78AFC1BF0B8FB21F016FE44
:101F300021F030FE2FF0FAFF42F21074204625F017
:101F40008EFBFBE72DE9F04107461C4615460E4681
:101F50002A2000F095F9380A00F0BAF9F8B200F03A
:101F6000B7F9280A00F0B4F9E8B200F0B1F92B2073
:101F700000F086F9300A00F0ABF9F0B200F0A8F9F1
:101F8000200A00F0A5F9E0B200F0A2F9BDE8F041A6
:101F90002C2000F075B92DE9F04780461F4603F16B
:101FA000130083B21646501E82B20C4601F1140093
:101FB00081B24046DDF82090FFF7C4FF0AE04546B5
:101FC00004E0484600F072F96D1CADB2B542F8D39A
:101FD000641CA4B2BC42F2D3BDE8F08770B55E1AAF
:101FE000141A641C761C1433143174439BB289B2E6
:101FF000049DFFF7A7FF102000F010F9A2B22946B8
:10200000BDE870400148FFF7FDBB0000380200202A
:1020100030B587B014216846FEF7C8FA7A480168DF
:1020200041F00201016000684FF4607400F00200AA
:1020300005900120CDE9004002900220734D0390ED
:1020400069462846FEF702FE012221462846FEF791
:10205000F2FE0022A9152846FEF7EDFE002280219F
:102060002846FEF7E8FE642006F07CF90122802174
:102070002846FEF7E0FE642006F074F9112000F017
:10208000FFF8782006F06EF9B22000F0F9F80C2085
:1020900000F01EF90C2000F01BF9002000F018F9E8
:1020A000332000F015F9332000F012F9352000F04C
:1020B000E7F8002000F00CF9362000F0E1F80020ED
:1020C00000F006F93A2000F0DBF8052000F000F9F6
:1020D000B72000F0D5F8352000F0FAF8BB2000F06A
:1020E000CFF82D2000F0F4F8C02000F0C9F82C2023
:1020F00000F0EEF8C22000F0C3F8012000F0E8F88C
:10210000C32000F0BDF8152000F0E2F8C42000F074
:10211000B7F8202000F0DCF8C62000F0B1F80F205E
:1021200000F0D6F8D02000F0ABF8A42000F0D0F8F2
:10213000A12000F0CDF8D62000F0A2F8A12000F0F8
:10214000C7F8E02000F09CF8702000F0C1F80520EE
:1021500000F0BEF80A2000F0BBF80B2000F0B8F841
:102160000A2000F0B5F8272000F0B2F82F2000F088
:10217000AFF8442000F0ACF8472000F0A9F8372071
:1021800000F0A6F8142000F0A3F8142000F0A0F846
:10219000292000F09DF82F2000F09AF8E12000F0AF
:1021A0006FF8702000F094F8072000F091F80C20F0
:1021B00000F08EF8082000F08BF8082000F088F876
:1021C000042000F085F82F2000F082F8332000F082
:1021D0007FF8462000F07CF8182000F079F81520F0
:1021E00000F076F8152000F073F82B2000F070F85E
:1021F0002D2000F06DF8212000F042F807B02920D2
:10220000BDE8304000F03CB83038024000040240E5
:1022100008210148FFF70EBEF0020020094A0828F5
:10222000116808D0102805D1C001D060086840F4BA
:102230000060086070470020D060086820F40060EB
:10224000F7E7000038020020411F5F2908D800EBA3
:10225000800080016421B0FBF1F002490968C86385
:1022600070470000F002002001B54FF0FF3301225B
:1022700069460248FFF712FA08BD00003802002044
:1022800070B5094D06464FF40074002221462846D9
:10229000FEF7D1FD3046FFF7E7FF21462846BDE8AF
:1022A00070400122FEF7C7BD0004024010B504468D
:1022B000012251020548FEF7BEFD200AFFF7D4FFB8
:1022C000E0B2BDE81040FFF7CFBF000000040240BD
:1022D00010B50446012251020348FEF7ACFD20462A
:1022E000BDE81040FFF7C0BF0004024024F0DEFA52
:1022F000052025F0B4F9F9E7094808B5016841F46B
:10230000800101600068002200F480000090052137
:102310003A20FEF72DFEBDE808403A20FEF71ABE2F
:102320003038024010B500F02FFB044A0021044869
:1023300025F0D0F90349086010BD0000F43C030803
:1023400049260008000000200D4808B5016841F04A
:1023500004010160016801F004010091016841F08D
:1023600002010160016801F002010091016841F081
:1023700001010160006800F00100009008BD00004C
:10238000303802400F4810B50D4901604FF482719A
:10239000416000218160C1604FF400720161C0E9B9
:1023A0000512C1610162416281620A21C162FFF7C7
:1023B000C4F8002803D0BDE81040FEF7D2BA10BD23
:1023C000003001403802002010B58EB00024079480
:1023D000089409940A940B941C2168460C94FEF707
:1023E000E5F81E481C49016040F23F11C0E90114A4
:1023F0006321C0E903148461FFF7DEFA08B1FEF738
:10240000B0FA4FF48050079007A91448FFF74CFB2F
:1024100008B1FEF7A6FA1148FFF7DDFC08B1FEF798
:10242000A0FA0B940BA90D480C94FFF787FA08B19A
:10243000FEF797FA6020CDE900040294082269466D
:1024400006480494FFF761FC08B1FEF78AFA0348D6
:10245000FFF732FC0EB010BD00040040F002002077
:10246000FEE7FEE7C268406809B182617047110467
:10247000816170470189006889B2FEF7D7BC826824
:10248000006809B18261704711048161704710B51D
:10249000806B01684A6822F003024A60416D41F096
:1024A00010014165012180F85110FFF745F810BD7A
:1024B00010B5806BFFF71EFA10BD38B50546846B6A
:1024C000FEF7BEFC024628680068C00523D42068D9
:1024D000416821F0200141602068416821F002013B
:1024E00041606421204600F01BF818B1606D40F097
:1024F00020006065A068002118B92068C268806863
:102500000090E186012084F85100606D18B12046EA
:10251000FFF712F838BD2046FFF7DAF938BD0000A2
:10252000F8B515460E460B460092044601220221DC
:1025300000F02CF8A0B9134813490068B0FBF1F083
:102540004FF47A71484300906068B0F5827F0DD1F6
:102550003346002280212046009500F017F870B124
:10256000606D40F0200060650320F8BD009830B138
:10257000401E009020688068C0430006F6D5002009
:10258000F8BD00002802002000366E012DE9F84356
:102590001E46914688460446089DFEF751FC401BA6
:1025A000351AFEF74DFC074626480068C0F3CB30CD
:1025B00068430AE0701C09D0FEF742FCC01BA84229
:1025C0000FD275B10098B8B3401E009020688168A2
:1025D00038EA010033D000214945EBD10020BDE8A5
:1025E000F8832068416821F0E00141606068B0F53F
:1025F000827F0BD1A068B0F5004F02D0B0F5806F9C
:1026000004D12068016821F040010160A06AB0F5A2
:10261000005F09D12068016821F400510160206841
:10262000016841F400510160012084F8510000204C
:1026300084F850000320D2E7FFE70025C6E7012118
:10264000CAE700002802002042F21074204625F05C
:1026500006F8FBE710B54FF0E020006931F00EF905
:10266000012803D0BDE8104030F0A0BC10BD000030
:1026700030B593B030216846FDF798FF14210CA8BF
:10268000FDF794FF1C480024016841F0805101606F
:10269000006800F0805011901848016841F44041F2
:1026A00001600068022500F4404011900120039071
:1026B00010200490009506950820CDE9074064207D
:1026C000CDE9090504200B906846FEF77FFD08B1AF
:1026D00072B6FEE70F20CDE90C054FF48050CDE92E
:1026E0000E4003210CA81094FEF774FC002801D0C2
:1026F00072B6FEE713B030BD4038024000700040B3
:102700000248016841F470010160704788ED00E003
:102710000148FFF738BA000038030020F0B502681E
:102720001F4B204C204D214E4FF0804C984207D03B
:10273000604505D0A04203D0A84201D0B04203D1E9
:1027400022F070074A683A43984210D060450ED094
:10275000A0420CD0A8420AD0B04208D0144CA042EB
:1027600005D0144CA04202D0134CA04203D122F455
:102770004074CA6822434C6922F0800222438C686C
:10278000C4620C688462984201D1096901630168DE
:1027900041F004010160012141610260F0BD0000CF
:1027A000000001400004004000080040000C004010
:1027B00000400140004401400048014010B501F0D4
:1027C0001F030121046A99408C430462016A9A4004
:1027D0001143016210BD10B5846842EA032224F45B
:1027E0007F440A432243826010BD826822F0700257
:1027F0000A4342F0070181607047000030B5036A68
:10280000026A22F0010202624268846924F07305C0
:102810000C682C4323F002058B682B430A4DA84219
:102820000BD123F00805CB6822F440722B434D698D
:1028300023F0040315438A692A434260846149688E
:102840004163036230BD00000000014030B5026A00
:10285000036A23F010030362436884690D6824F45B
:10286000E64444EA05248D6822F0200242EA05127B
:102870000B4DA8420ED1CD6822F0800242EA05122B
:102880004D6923F4406343EA85038D6922F04002D9
:1028900043EA85034360846149688163026230BD15
:1028A0000000014030B5036A026A22F480720262BD
:1028B0004268C46923F4007324F073050C682C4348
:1028C0008D6843EA05230C4DA8420ED1CD6823F450
:1028D000006343EA05234D6922F4405242EA05129F
:1028E0008D6923F4806342EA05124260C46149683D
:1028F000C163036230BD00000000014030B5046ACE
:10290000026A22F4805202624268C3690D6823F4AD
:10291000E64343EA05238D6824F4005444EA053471
:10292000064DA84204D14D6922F4804242EA851244
:102930004260C36149680164046230BD0000014027
:1029400010B5036A046A24F001040462846924F067
:10295000F00444EA021423F00A020A43846102628A
:1029600010BD10B5036A046A24F01004046284697F
:1029700023F0A00324F4704444EA023243EA011134
:102980008261016210BDFEE710B5074A00210748C9
:1029900024F0A0FE064C044A0021206024320548A1
:1029A00024F098FE606010BD183D0308FD1E00086D
:1029B00004000020ED2200080907090E002804DBAE
:1029C00000F1E02080F80014704700F00F0000F1E3
:1029D000E02080F8141D704770B5044600256FF0A4
:1029E0002F0608E02068411C2160007805EB850176
:1029F00006EB410145182068007800F02CF800280B
:102A0000F0D1284670BD70B514460D461BB911466D
:102A100013F0CCF8034603FB05F0142C0ED0E11F95
:102A200003290AD8072C0DD0082C0DD0092C0DD065
:102A30000A2C0DD0002100EB810070BD590801FB6C
:102A4000050070BD0221F6E70421F4E71021F2E74A
:102A50004FF48071EFE73038092801D80120704722
:102A6000002070472DE9FC5F9B460CAB8A468146EF
:102A7000DDE9116093E81210DDE90F575FEA807815
:102A80004FF030031AD45EB15FEAC07808D000F08E
:102A90000C0858EA0C0803D0761E01E00B55641CA4
:102AA000BC4204D2202CF9D301E00B55641C5FEA30
:102AB000C07803D0B44201D2202CF6D35FEAC068BC
:102AC00025D55FEA40580AD44CB1BC4201D0B4428B
:102AD00005D1641E03D0102D03D1641E04E0102D17
:102AE00002D0022D0AD00EE0850603D4202C1ED27F
:102AF000782506E0202C1AD2582502E0202C16D288
:102B000062250D55641C202C11D20B55641C202C01
:102B10000DD2BCF1000F01D02D2306E0430701D5F3
:102B20002B2302E0030702D520230B55641CCDE9BB
:102B300000BAC846154681468B46AA46800714D17E
:102B4000274607E02A46DDE900316D1C2020C446F7
:102B5000E0477F1CB742F5D307E02A466D1C641E90
:102B6000DDE900311BF80400C047002CF5D15FEA15
:102B7000897006D409E02A46DDE900316D1C202069
:102B8000C047A5EB0A00B042F5D32846BDE8FC9F3C
:102B90002DE9F04F8FB099468B46DDE91818DDE935
:102BA0001C63DDE91A4792468646002209B923F0E4
:102BB0001003580507AD00D5C9B1B1FBF4F004FB13
:102BC0001010C0B20A2801D2303009E05FEA836CED
:102BD00002D54FF0410C01E04FF0610C60440A381F
:102BE000B1FBF4F1A854521C09B1202AE5D3CDF869
:102BF0000880CDE90563CDE90052CDE903474B4696
:102C0000524659467046FFF72DFF0FB0BDE8F08FD2
:102C10002DE9FF4F8FB01CACDDE9239594E8030844
:102C200020AC94E8C004002450EA010201D125F050
:102C300010056A050DF11C0802D550EA010217D0F3
:102C400032463B46FDF798FBD2B20A2A01D2303217
:102C500006E0AB0601D5412300E061231A440A3A9D
:102C600008F80420641C50EA010201D0202CE7D3AC
:102C7000CDE90084CDF808B0CDE90595CDE9036A2A
:102C80000FAF97E80F00FFF7EDFE13B0BDE8F08F30
:102C90009A4200D288547047704770B516460D4668
:102CA000040001D10FF012FD0DB90FF00FFD201E31
:102CB00013D095B13246294601F085F800280BD093
:102CC0006168006910F0FCFD0646216C28468847C3
:102CD000E1680844E060304670BD002070BD2DE919
:102CE000FF4114460E4605460A461F4621466846E1
:102CF000DDF828800FF01CFB00281BD001986168CC
:102D00002268411A08FB01500099891A0D18009891
:102D100031683844441A68460FF0F8FA002107E099
:102D2000625C6B5C1A44FF2A00D9FF226254491C82
:102D30008142F5D3BDE8FF812DE9F041002680B145
:102D40004F1E04460D46394201D00FF0BFFC2C4403
:102D5000641EBC43B4F5803F03D20C2C00D80C2475
:102D600026463046BDE8F0812DE9F04F064691B089
:102D7000D6E90170804696F821B03568F0680F906A
:102D8000D6E906400E90D6E904A009900AA811F0F1
:102D900002FC96F8220008B10020C9E0BAF1000F49
:102DA00005D0BBF1FD0F4FF0000066D28DE0BBF106
:102DB000FD0F4FF0000017D21CE000260CE000BF12
:102DC00004EB460005EB46010088ADF804000AAAB2
:102DD000019811F053F8761CBE42F1DB0F980544C0
:102DE0000E98044409F1010081464045E5DB11B02D
:102DF000BDE8F08F81464045F9DA002613E000BFB8
:102E000004EB46000088ADF804009DF8051011FBA6
:102E10000BF0000A8DF8050005EB46010AAA01989F
:102E200011F02CF8761CBE42EADB0F9805440E9890
:102E3000044409F10100DDE7002614E004EB46003C
:102E40000088ADF808009DF809101AF8060011FB7B
:102E500000F0000A8DF8090005EB46010AAA029865
:102E600011F00CF8761CBE42E8DB0F980999054476
:102E70000E988A44044409F1010081464045DBDB99
:102E8000B5E7002617E000BF04EB46000088ADF868
:102E900008009DF809101AF8060011FB00F101FB6B
:102EA0000BF1080C8DF8090005EB46010AAA0298FF
:102EB00010F0E4FF761CBE42E6DB0F98099905444A
:102EC0000E988A44044409F1010081464045D8DB4C
:102ED0008DE700201EE000BF04EB4900BAF1000FAF
:102EE0000088ADF8080027D09DF809201AF80900DD
:102EF00012FB00F101FB0BF15FEA11408DF80900B4
:102F000096F8222005EB49000AAB029903F09CFCDD
:102F100009F101008146B842DEDBBAF1000F01D0B1
:102F200009998A440F9805440E9804440398401C5C
:102F300003904045CDDB5AE79DF8091011FB0BF0DB
:102F4000000ADBE72DE9F04F064695B0D6E901709F
:102F5000804696F821B03568F0680E90D6E90640B4
:102F60000C90D6E904900A9096F8220020B110A89F
:102F700011F025FB0020D0E0B9F1000F05D0BBF126
:102F8000FD0F4FF0000064D289E0BBF1FD0F4FF060
:102F9000000019D21EE000BF4FF000094E460BE0C2
:102FA00004EB460005EB8901427814F8160011F095
:102FB00080F909F10109761CBE42F1DB0E98054447
:102FC0000C9804440AF1010082464045E4DB15B048
:102FD000BDE8F08F82464045F9DA4FF000094E46D1
:102FE0000FE000BF04EB4600417811FB0BF0020A32
:102FF00005EB890114F8160011F05BF909F10109DC
:10300000761CBE42EEDB0E9805440C9804440AF18F
:103010000100DFE74FF0000A564610E004EB4600DF
:10302000417819F8060011FB00F0020A05EB8A014D
:1030300014F8160011F03DF90AF1010A761CBE429F
:10304000ECDB0E980A9905440C98894404440BF172
:10305000010083464045DDDBB9E700BF4FF0000AC1
:10306000564612E004EB4600417819F8060011FBC1
:1030700000F000FB0BF0020C05EB8A0114F81600BF
:1030800011F017F90AF1010A761CBE42EADB0E982C
:103090000A9905440C98894404440598401C0590FD
:1030A0004045DBDB93E70020039028E014F81A107A
:1030B0000298B9F1000F61F3174061F30F2061F33B
:1030C000070004EB4A012CD0039A4B7819F8021040
:1030D00013FB01F101FB0BF15FEA114161F31F608A
:1030E0000290039896F8222005EB800010AB02991D
:1030F00003F0DAFB0398401C03900AF101008246BA
:10310000B842D3DBB9F1000F01D00A9881440E9880
:1031100005440C9804440598401C05904045C2DBCA
:1031200055E74A7812FB0BF1090AD7E72DE9F04F72
:10313000054687B0D5E9016790F821B00068009096
:10314000E8680290D5E906400390D5E90490049020
:10315000686AC11700EB517121F00701A0EB010A69
:1031600095F8220008B1002029E1B9F1000F05D03F
:10317000BBF1FD0F4FF0000070D2E2E0BBF1FD0F9C
:103180004FF000002ED233E04FF0000845461FE01C
:1031900008EB0A018B46009808F0E5FDC0EB002023
:1031A0008DF8040004EB450001A9427814F81500DD
:1031B00011F09CF89DF8040059467F28009802D928
:1031C0002AF0A8F801E004F031FF08F101086D1CB5
:1031D000B542DDDB0299009808440090039804444E
:1031E00009F101008146B842CEDB07B0BDE8F08F9F
:1031F0008146B842F9DA4FF00008454623E000BFA7
:1032000008EB0A010191009808F0ADFDC0EB002029
:103210008DF8100004EB4500417811FB0BF0020A19
:1032200014F8150004A911F061F89DF810007F282A
:10323000DDE9000102D92AF06DF801E004F0F6FEA4
:1032400008F101086D1CB542DADB009902980844C8
:1032500000900398044409F10100C9E735E000BF7C
:103260004FF00008454624E008EB0A010191009860
:1032700008F079FDC0EB00208DF8140004EB450048
:10328000417819F8050011FB00F0020A14F8150046
:1032900005A911F02BF89DF814007F28DDE9000145
:1032A00002D92AF037F801E004F0C0FE08F1010865
:1032B0006D1CB542D8DB0299009808440090039831
:1032C0000499044489440BF101008346B842C7DBEA
:1032D0008BE700BF4FF00008454626E008EB0A01E7
:1032E0000191009808F03FFDC0EB00208DF814001C
:1032F00004EB4500417819F8050011FB00F101FBD2
:103300000BF10A0C14F8150005A910F0EFFF9DF859
:1033100014007F28DDE9000102D929F0FBFF01E05C
:1033200004F084FE08F101086D1CB542D6DB029959
:10333000009808440090039804990444069889442E
:10334000401C0690B842C5DB4FE70020059026E000
:1033500014F818100198B9F1000F61F3174061F3E8
:103360000F2061F3070004EB48012CD04B7819F8CB
:10337000081013FB01F101FB0BF1090C61F31F6055
:103380000190059895F8223000EB0A01DDE9000272
:1033900003F0F8FA0598401C059008F101008046FA
:1033A000B042D5DBB9F1000F01D0049989440099EE
:1033B000029808440090039804440698401C069024
:1033C000B842C2DB11E74A7812FB0BF1090AD5E7D4
:1033D0002DE9F04F064691B0D6E90170804696F887
:1033E00021B03568F0680F90D6E906400D90D6E917
:1033F00004900B9096F8220008B10020C7E0B9F1C4
:10340000000F05D0BBF1FD0F4FF0000063D288E044
:10341000BBF1FD0F4FF0000018D21DE04FF0000986
:103420004E460BE004EB460005EB0901427814F828
:10343000160010F069FF09F10109761CBE42F1DBAC
:103440000F9805440D9804440AF101008246404556
:10345000E4DB11B0BDE8F08F82464045F9DA4FF069
:1034600000094E460FE000BF04EB4600417811FB17
:103470000BF0020A05EB090114F8160010F044FFE6
:1034800009F10109761CBE42EEDB0F9805440D9848
:1034900004440AF10100DFE74FF0000A564610E04D
:1034A00004EB4600417819F8060011FB00F0020A0F
:1034B00005EB0A0114F8160010F026FF0AF1010AC4
:1034C000761CBE42ECDB0F980B9905440D9889449D
:1034D00004440BF1010083464045DDDBB9E700BF42
:1034E0004FF0000A564612E004EB4600417819F806
:1034F000060011FB00F101FB0BF10A0C05EB0A01C0
:1035000014F8160010F000FF0AF1010A761CBE4202
:10351000EADB0F980B9905440D98894404440498FC
:10352000401C04904045DBDB93E70020039020E043
:1035300014F81A100098B9F1000F61F3174061F305
:103540000F2061F3070026D0039A19F8022012FB1E
:103550000BF1090A61F31F600090039896F822208E
:103560002844009903F04FFA0398401C03900AF195
:1035700001008246B842DBDBB9F1000F01D00B98A5
:1035800081440F9805440D9804440498401C04900D
:103590004045CADB5DE76BF31F60DDE72DE9F04FC7
:1035A000804687B0D8E90170814698F821B0D8F8F4
:1035B0000040D8F80C000290D8E906500190D8E9F4
:1035C00004A0039098F8220008B1002058E1BAF155
:1035D000000F05D0BBF1FD0F4FF0000067D28CE06B
:1035E000BBF1FD0F4FF000001AD21FE00026B046DD
:1035F0000EE000BF05EB480034F81610427815F8CD
:10360000180010F0DBFD24F8160008F10108761C04
:10361000BE42EFDB02980444019805440AF1010020
:1036200082464845E2DB07B0BDE8F08F8246484558
:10363000F9DA0026B04610E005EB4800417811FBAE
:103640000BF0020A34F8161015F8180010F0B6FD49
:1036500024F8160008F10108761CBE42ECDB029843
:103660000444019805440AF10100DFE70026B04652
:1036700013E000BF05EB480041781AF8060011FB83
:1036800000F0020A34F8161015F8180010F096FD34
:1036900024F8160008F10108761CBE42EADB029805
:1036A0000399044401988A4405440BF101008346C0
:1036B0004845DBDBB7E70026B04614E005EB4800E1
:1036C00041781AF8060011FB00F101FB0BF10A0C1E
:1036D00034F8161015F8180010F070FD24F81600D4
:1036E00008F10108761CBE42E8DB02980444019808
:1036F0000544039882440098401C00904845DADB5A
:1037000091E70026304600960494ABE015F81000CF
:1037100098F822104FEAD00E8008012927D00229FC
:1037200042D0032971D00429C4D1049931F816304C
:10373000CEEBD321002901DCAEEBD3214FF6FF7293
:1037400002EAC122C3F3451CACEB0001002901DCF5
:10375000A0EB0C0102EB411082B203F01F01A1EBC0
:103760000E00002801DCAEEB0100104439E00499A2
:1037700031F816100EEBD1221F2A00D31F224FF66C
:10378000FF7303EAC222C1F3451318443F2800D354
:103790003F2001F01F0102EB4010714480B21F294D
:1037A00000D31F2108441CE0049931F81610CEEB19
:1037B000D122002A00DC00224FF6FF7303EAC22266
:1037C000C1F34513181A002800DC002002EB40105A
:1037D00082B201F01F01A1EB0E000028C5DC002021
:1037E000C3E780B2BAF1000F28D01AF80620BBF167
:1037F000FD0F2DD2009905EB4101497812FB01F133
:1038000001FB0BF10A0C23E0FFE7049931F81610D5
:10381000CB0A13FB0EF253094FF6FF7202EAC322E2
:10382000C1F3451313FB00F0800902EB401001F0D7
:103830001F0212FB0EF100EB5110D2E70099BBF111
:10384000FD0F05EB41014A7802D212FB0BF10A0A87
:1038500034F8161010F0F4FA24F816000098001D41
:10386000761C0090BE42FFF651AF0298BAF1000FED
:1038700004440198054401D003998A440598401CEA
:1038800005904845FFF63DAFCDE600002DE9F04F2D
:10389000804687B0D8E90170814698F821B0D8F801
:1038A0000040D8F80C000290D8E906500190D8E901
:1038B00004A0039098F8220008B100206BE1BAF14F
:1038C000000F05D0BBF1FD0F4FF0000076D2A2E053
:1038D000BBF1FD0F4FF000001FD224E00026B046E0
:1038E00013E000BF34F8160010F0DAFE014605EBD5
:1038F0004800427815F8180010F090FC10F0D0FE47
:1039000024F8160008F10108761CBE42EADB029892
:103910000444019805440AF1010082464845DDDB74
:1039200007B0BDE8F08F82464845F9DA0026B04678
:1039300016E000BF34F8160010F0B2FE014605EBA9
:103940004800427812FB0BF0020A15F8180010F03C
:1039500065FC10F0A5FE24F8160008F10108761C9D
:10396000BE42E7DB02980444019805440AF10100D5
:10397000D9E70026B04617E034F8160010F090FEA4
:10398000014605EB480042781AF8060012FB00F0E9
:10399000020A15F8180010F041FC10F081FE24F81E
:1039A000160008F10108761CBE42E5DB0298039977
:1039B000044401988A4405440BF1010083464845BC
:1039C000D7DBADE70026B0461BE000BF34F8160099
:1039D00010F066FE05EB48014A781AF8061012FB53
:1039E00001F101FB0BF10A0C15F8183001461846DD
:1039F00010F014FC10F054FE24F8160008F1010831
:103A0000761CBE42E2DB02980399044401988A4482
:103A100005440098401C00904845D3DB80E73946B8
:103A20002046049416F08CFC002630460096A4E054
:103A300015F8100098F822104FEAD00E80080129DE
:103A400027D0022943D0032968D00429B9D1049989
:103A500031F81620CEEBD221002901DCAEEBD221C9
:103A60004FF6FF7303EAC123C2F3451CACEB000120
:103A7000002901DCA0EB0C0103EB411081B202F044
:103A80001F02A2EB0E00002801DCAEEB020008448E
:103A90003AE0049931F816100EEBD1221F2A00D318
:103AA0001F224FF6FF7303EAC222C1F345131844E5
:103AB0003F2800D33F2002EB401082B201F01F01EB
:103AC00001EB0E001F2800D31F2010441CE00499B6
:103AD00031F81610CEEBD122002A00DC00224FF67E
:103AE000FF7303EAC222C1F34513181A002800DC51
:103AF000002002EB401001F01F02A2EB0E0180B289
:103B0000002900DC0021084480B2BAF1000F1ED069
:103B1000BBF1FD0F44D31AF8062022E0049931F8D6
:103B20001610CB0A13FB0EF253094FF6FF7202EA8E
:103B3000C322C1F3451313FB00F0800902EB4010D0
:103B400001F01F0212FB0EF100EB5110DCE70099AF
:103B5000BBF1FD0F05EB41014A7802D212FB0BF1DC
:103B60000A0A34F8161010F06BF910F099FD24F8D9
:103B700016000098001D761C0090BE42FFF658AF5C
:103B80000298BAF1000F04440198054401D003984B
:103B900082440598401C05904845FFF640AFBFE6BB
:103BA000009A1AF8061005EB4202527811FB02F156
:103BB00001FB0BF10A0CD4E72DE9F34F064685B063
:103BC000D6E90170804696F821B03568F06801901A
:103BD000D6E906400090D6E90490039096F82200BA
:103BE00008B10020CAE0B9F1000F05D0BBF1FD0F0C
:103BF0004FF0000063D288E0BBF1FD0F4FF00000F2
:103C000018D21DE04FF000094E460BE004EB4600D1
:103C100005EB0901427814F8160010F02FFB069806
:103C2000761C8144BE42F1DB0198054400980444AF
:103C30000AF1010082464045E4DB07B0BDE8F08FA1
:103C400082464045F9DA4FF000094E460FE000BFCA
:103C500004EB4600417811FB0BF0020A05EB090169
:103C600014F8160010F00AFB0698761C8144BE4238
:103C7000EEDB01980544009804440AF10100DFE7F7
:103C80004FF0000A564610E004EB4600417819F860
:103C9000060011FB00F0020A05EB0A0114F81600F9
:103CA00010F0ECFA0698761C8244BE42ECDB0198D8
:103CB000039905440098894404440BF101008346AC
:103CC0004045DDDBB9E700BF4FF0000A564612E081
:103CD00004EB4600417819F8060011FB00F000FBE8
:103CE0000BF0020C05EB0A0114F8160010F0C6FAEE
:103CF0000699761C8A44BE42EADB01980399054482
:103D00000098894404440298401C02904045DBDB43
:103D100093E70020029023E014F81A00B9F1000F95
:103D200060F3070160F30F2160F3174104EB4A00D1
:103D300029D04378029819F8000013FB00F000FB2B
:103D40000BF0000C60F31F61029896F822202844C3
:103D500002F088FE06990298084402900AF10100D8
:103D60008246B842D8DBB9F1000F01D003998944EB
:103D700001980544009804440498401C01460490AE
:103D80004045C6DB59E7427812FB0BF0000AD9E741
:103D900010B544184A1E641E9443114201D00EF01F
:103DA00095FC204610BD10B544201AF0BBFD040060
:103DB00005D0442200211AF0F8FE204610BD0EF076
:103DC00085FC002010BD2DE9FC410D46040001D109
:103DD0000EF07CFC0DB90EF079FC5CB355B304F128
:103DE0002800294680461FF058FF009008B3076955
:103DF000616838460FF064FD064629463846626819
:103E00001AF018FE04F134001AF0ADFC0190A0B1D4
:103E1000042269461AF00EFE2046009908F00FFCB5
:103E2000042201A91AF006FE2146304662680FF00E
:103E300061FD08E00020BDE8FC81404600991FF0CC
:103E4000E7FE002000900098F5E700002DE9F04122
:103E50000F460121002504462E46C16309E01C4996
:103E600020F0ACFE08B16D1C02E0E06B401CE0638A
:103E7000761C57F8260010B101780029EFD1A06B0D
:103E8000A84223D0206B002610B117F04FFE266306
:103E9000606B10B117F04AFE666328011AF042FD0C
:103EA000206308B90EF012FC68001AF03BFD606355
:103EB00008B90EF00BFC206B08B1606B00B900254F
:103EC0006A000021606B1AF070FEA563BDE8F08106
:103ED0007C35010870B5C07A00F00F00062808D2C2
:103EE000DFE800F00705030303030C4602E0144675
:103EF00000E0402404EB4400C01C20F00305E01C5B
:103F000020F0030028440C301AF00CFD38B100F109
:103F10000C01016029180C31C0E9011470BD0EF0CC
:103F2000D5FB002070BD000070B5044690F85C1011
:103F3000E26B8807606C04D420B1431C18D0401E8B
:103F40006064A8B90AB1880712D5214619481AF049
:103F5000AFFC00F031F8216909B12046884761695A
:103F600009B1204688472046BDE8704017F0DEBD05
:103F700021F0080084F85C00D4E90C1500238D4280
:103F800000DD6B1A256C5B1B6363002A10D083076E
:103F900002D4A36B5B42636343105B1C63F3410079
:103FA00084F85C00E36A606A6362E163C4E90B025F
:103FB00070BD000024B6002070B5174C012504F137
:103FC000AC0084F8A4501AF0A9FB0028D4F8A8008B
:103FD00004D0A8B1BDE8704022F006BD18B1BDE81C
:103FE000704022F0EBBC94F8A600002807D0002215
:103FF0000A49104610F0A6FF002084F8A60070BD04
:1040000094F8A6000028FAD100220449104610F0C6
:1040100077FE84F8A65070BD78B500207D41000879
:104020002DE9F047544D95F8A50038B15FF0000038
:1040300085F8A5005048AC30814690E00120F7E7B4
:10404000206D22F07FFB94F85C10C9071ED0606DD4
:1040500022F078FB0146A06D421C1AD0884218D885
:10406000091A94F85C0020F0010084F85C00626B8F
:104070001144616395F8A51029B120F0040000BF38
:1040800084F85C0005E040F00400F9E7616B084447
:10409000606322F05DFB2065002085F8A40094F8A1
:1040A0005C00C10762D195F8A510C0F380028A4276
:1040B0005CD061F3820084F85C0001071ED4616B60
:1040C000002948DBC00609D4A16939B120468847D8
:1040D000616A01446162E16A0844E062204625F0B9
:1040E0004FFCE16809B12046884794F85C0040F035
:1040F000080084F85C00204625F06CFB606B00280B
:1041000029DB216B8046884200DD6163216A2046FD
:10411000676B88470646A06AB0420DD0A662626807
:1041200012B131462068904795F8A400B0B9A26852
:104130002AB131462046904795F8A40070B9606BCB
:10414000B84202D14046C4F83480216B884202DB79
:104150002046FFF7E9FE95F8A40038B148461AF06A
:10416000DDFA04007FF46CAFBDE8F08721464846D5
:104170001AF0E6FAF5E7000078B500200020FFF716
:104180004FBF00002DE9F043C469ADB00546816E14
:10419000266800220AA818F0C1F901280AD115984A
:1041A00000287DD00088C0F307200E2806D00628FE
:1041B00076D103E001202DB0BDE8F0831598583585
:1041C00025AF01891FFA81F92ECD87E82E004068BE
:1041D0000022010C491E83B20091114606A85B1E05
:1041E0000EF0F8F900252B46092206A925A800950E
:1041F0000DF0D7FE04F114000FC887E80F0025AAC0
:1042000006A921A80EF094F8002859D01D951E95F6
:104210001F95209520682699808880B2401E1F90A7
:104220002298401A401E20901DA9206811F0B9F96B
:1042300026992498401A401C1E902068691E4068E8
:1042400001EB104020901DA9206811F0AAF92599D2
:1042500021981E95401A401E1D951F901DA920688B
:1042600011F09FF923992598081A401C1D90206889
:104270001DA9808880B2401E1F90206811F091F91E
:10428000229926980A1A25992198411A304611F048
:1042900021FB064607992298421A0699219800E0C8
:1042A0002DE0411A159811F015FB054621A80EF0D6
:1042B0001EF8074621A80EF029F8024600211CE04E
:1042C0000AA818F0C7F8002075E700200DE000BF2D
:1042D00006EB800315F800C093F803801CFB08FC74
:1042E0004FEA1C2C83F803C0401C9042F0DB20688E
:1042F000806816FA80F64D44491CB942E5DB0AA8ED
:1043000018F0A8F856E770B5044640680D4608B1A5
:10431000FFF7F9FF2268002A04D029462046BDE8AD
:104320007040104770BD70B50D6806460C46286891
:1043300038B1296AC90204D5206021463046FFF70A
:10434000F2FF214630462560BDE87040FFF7DBBF35
:104350000DF066BD0DF0D3BD2DE9F04F064691B0CE
:10436000D6E90170814696F8210008903568F0681A
:104370000F90D6E906400E90D6E904B00A900BA83B
:1043800010F009F996F8220008B10020DFE0089843
:10439000BBF1000F04D0FD284FF0000076D29FE063
:1043A000FD284FF0000021D226E000BF4FF00008AA
:1043B00014E000BF04EB880BDBF800000FF021FDD8
:1043C00060F307069BF80310304661F30F2005EBFE
:1043D00048010BAA0FF052FD08F10108B845E9DBCE
:1043E0000F9805440E9804440AF10100824648459E
:1043F000DCDB11B0BDE8F08F82464845F9DA0026D3
:1044000017E000BF04EB860BDBF800000FF0F9FCAF
:1044100060F307089BF80310089811FB00F0010AED
:10442000404661F30F2005EB46010BAA0FF026FD75
:10443000761CBE42E6DB0F9805440E9804440AF150
:104440000100D9E7002617E004EB86010791086810
:104450000FF0D7FC079960F307084046CA781BF8AD
:10446000061012FB01F1090A61F30F2005EB46016A
:104470000BAA0FF003FD761CBE42E5DB0F980A99EC
:1044800005440E988B4404440AF1010082464845D5
:10449000D8DBAEE7002619E004EB86000790006841
:1044A0000FF0AFFC60F307080798C1781BF806000F
:1044B00011FB00F008990BAA4843010C404661F338
:1044C0000F2005EB46010FF0D9FC761CBE42E3DB62
:1044D0000F980A9905440E988B4404440AF1010090
:1044E00082464845D6DB84E7002022E004EB8A00C0
:1044F000029000680FF085FC414660F307010298C6
:10450000BBF1000FC07860F30F2124D01BF80A2004
:1045100010FB02F0089A50435FEA104060F30F214D
:1045200096F8222005EB4A000BAB02F08DF90AF158
:1045300001008246B842D9DBBBF1000F01D00A99D5
:104540008B440F9805440E9804440398401C039034
:104550004845C9DB4DE7089A10FB02F0000ADDE789
:104560002DE9F04F064693B0D6E90170804696F8E3
:1045700021B03568F0681190D6E906401090D6E970
:1045800004A00B900CA810F01AF896F8220008B1BD
:104590000020C4E0BAF1000F05D0BBF1FD0F4FF0D1
:1045A000000066D28DE0BBF1FD0F4FF0000018D285
:1045B0001DE000260DE000BF05EB860A04EB860037
:1045C000DAF8001000680CAA0FF052FDCAF80000DB
:1045D000761CBE42F0DB119805441098044409F1A2
:1045E000010081464045E4DB13B0BDE8F08F814611
:1045F0004045F9DA002612E004EB86000068020E5E
:1046000012FB0BF1090A05EB860A61F31F60DAF869
:1046100000100CAA0FF02CFDCAF80000761CBE4258
:10462000EADB119805441098044409F10100DEE723
:10463000002614E004EB86001AF806100068020E4B
:1046400012FB01F1090A05EB860B61F31F60DBF831
:1046500000100CAA0FF00CFDCBF80000761CBE4237
:10466000E8DB11980B99054410988A44044409F139
:10467000010081464045DBDBB6E7002617E000BFBE
:1046800004EB86001AF806100068020E12FB01F116
:1046900001FB0BF1090C61F31F6005EB860107912B
:1046A00009680CAA0FF0E4FC0799761C0860BE426A
:1046B000E6DB11980B99054410988A44044409F1EB
:1046C000010081464045D8DB8EE7002019E000BF9D
:1046D00004EB8900BAF1000F016824D01AF8090030
:1046E0000B0E13FB00F202FB0BF2100C60F31F61C8
:1046F00096F8222005EB89000CAB02F0D5F809F101
:1047000001008146B842E3DBBAF1000F01D00B99FA
:104710008A4411980544109804440398401C03905F
:104720004045D2DB60E70A0E12FB0BF0000ADDE722
:104730002DE9F04F064695B0D6E90170804696F80F
:1047400021B03468F0681290D6E906501190D6E98D
:1047500004A00C900DA80FF047FF96F8220008B1B6
:104760000020A3E1BAF1000F05D0BBF1FD0F4FF01F
:1047700000007DD258E1BBF1FD0F4FF000004CD29C
:1047800051E0002641E000BF05EB86000068010E05
:10479000FD2906D3FF2161F31F6004EB8601086049
:1047A00032E0022930D904EB860AC0F307429AF8B6
:1047B000023093420FD19AF80130C0F3072C6345C1
:1047C00009D114F8263000F0FF0C634503D19AF8A4
:1047D00003308B4218D012FB01F2120A62F3174029
:1047E000C0F3072212FB01F2120A62F30F20C2B2D9
:1047F00012FB01F1090A61F30700DAF800100DAAB3
:104800000FF081FCCAF80000761CBE42BCDB129897
:1048100004441198054409F1010081464045B0DB8C
:1048200015B0BDE8F08F81464045F9DA002645E035
:1048300005EB86000068020E12FB0BF1090AFD2948
:1048400006D3FF2161F31F6004EB8601086034E0AA
:10485000022932D904EB860AC0F3074E9AF802C047
:10486000F44511D19AF80130C0F3072C634500E0FC
:1048700082E009D114F8263000F0FF0C634503D123
:104880009AF80330934218D00EFB01F261F31F60D7
:10489000120A62F31740C0F307224A43120A62F376
:1048A0000F20C2B24A43110A61F30700DAF8001080
:1048B0000DAA0FF028FCCAF80000761CBE42B7DB38
:1048C000129804441198054409F10100ABE7002651
:1048D00048E000BF05EB86001AF806100068020EDB
:1048E00012FB01F1090AFD2906D3FF2161F31F60C4
:1048F00004EB8601086034E0022932D904EB860B10
:10490000C0F3074E9BF802C0F4450FD19BF801306D
:10491000C0F3072C634509D114F8263000F0FF0CD2
:10492000634503D19BF8033093421AD061F31F60B3
:104930001EFB01F2120A62F31740C0F3072212FBBA
:1049400001F2120A62F30F20C2B212FB01F1090A4E
:1049500061F30700DBF800100DAA0FF0D4FBCBF8D1
:104960000000761CBE42B5DB12980C9904441198E5
:104970008A44054409F1010081464045A7DB4FE721
:10498000002647E005EB86001AF806100068020EC4
:1049900012FB01F303FB0BF3190CFD2905D3FF21D7
:1049A00061F31F6004EB860132E0022931D904EB88
:1049B0008603089393F802C0C0F3074EF4450FD165
:1049C000089BC0F3072C5B78634509D114F82630A7
:1049D00000F0FF0C634503D1089BDB78934218D0AD
:1049E0000EFB01F261F31F60120A62F31740C0F37D
:1049F00007224A43120A62F30F20C2B24A43110A45
:104A000061F3070008990DAA09680FF07CFB08996B
:104A10000860761CBE42B5DB12980C9904441198CC
:104A20008A44054409F1010081464045A8DBF7E6C8
:104A300000202DE005EB8900BAF1000F016839D0A4
:104A40001AF809000B0E13FB00F202FB0BF2100C1C
:104A500060F31F61C1F30742080E12FB00F2120A55
:104A600062F31741C1F3072212FB00F2120A62F34C
:104A70000F21CAB212FB00F0000A60F3070196F89A
:104A8000222004EB89000DAB02F053F809F101007C
:104A90008146B842CEDBBAF1000F01D00C998A44AE
:104AA00012980444119805440498401C0490404511
:104AB000BEDBB5E60A0E12FB0BF0000AC8E72DE9D3
:104AC000F04F054689B0D5E9016790F821B000683C
:104AD0000090E8680290D5E906400390D5E904907B
:104AE0000490686AC11700EB517121F00701A0EB37
:104AF000010A95F8220008B100201BE1B9F1000F6E
:104B000005D0BBF1FD0F4FF0000071D2E3E0BBF127
:104B1000FD0F4FF000002FD234E0002522E004EB1F
:104B2000850BDBF800000FF06CF905EB0A0104902F
:104B30008946009807F017F9C0EB00208DF80400B3
:104B40009BF8032001A904980FF0D0FB9DF8040006
:104B500049467F28009802D928F0DCFB01E003F0E9
:104B600065FA6D1CB542DADB0099029808440090A2
:104B70000398044408F101008046B842CDDB09B037
:104B8000BDE8F08F8046B842F9DA002525E004EB55
:104B90008500059000680FF034F905EB0A010490D8
:104BA0008946009807F0DFF8C0EB00208DF804007C
:104BB0000598C17811FB0BF0020A01A904980FF0C7
:104BC00095FB9DF8040049467F28009802D928F0FB
:104BD000A1FB01E003F02AFA6D1CB542D7DB029974
:104BE0000098084400900398044408F10100C9E7C4
:104BF00035E0002527E004EB8500069000680FF003
:104C000000F905EB0A0105908B46009807F0ABF818
:104C1000C0EB00208DF80400069819F80510C07844
:104C200011FB00F0020A01A905980FF05FFB9DF847
:104C3000040059467F28009802D928F06BFB01E058
:104C400003F0F4F96D1CB542D5DB029900980844D5
:104C50000090039804990444894408F101008046B7
:104C6000B842C6DB8BE7002529E004EB85000790FE
:104C700000680FF0C6F805EB0A0101910690009854
:104C800007F071F8C0EB00208DF81400079819F8B0
:104C90000510C07811FB00F000FB0BF0020C05A919
:104CA00006980FF023FB9DF814007F28DDE9000132
:104CB00002D928F02FFB01E003F0B8F96D1CB542D2
:104CC000D3DB0299009808440090039804990444A7
:104CD000894408F101008046B842C4DB4FE7002058
:104CE00018E004EB8800B9F1000F026826D019F82B
:104CF0000800130E13FB00F000FB0BF0000C60F338
:104D00001F6295F8223008EB0A01009801F03AFE84
:104D100008F101008046B042E3DBB9F1000F01D099
:104D20000499894402990098084400900398044427
:104D30000198401C0190B842D1DB20E7110E11FB15
:104D40000BF0000ADBE700002DE9F04F06468FB0BC
:104D5000D6E90170804696F821B03568F0680D906C
:104D6000D6E906400C90D6E904A0089096F82200F7
:104D700008B10020B6E0BAF1000F05D0BBF1FD0F7D
:104D80004FF000005DD280E0BBF1FD0F4FF000005E
:104D900016D21BE000260BE004EB860ADAF80000CE
:104DA0000FF02FF89AF80320A9190FF0ADFA761C2E
:104DB000BE42F1DB0D9805440C98044409F1010052
:104DC00081464045E6DB0FB0BDE8F08F81464045A7
:104DD000F9DA00260FE000BF04EB860ADAF80000DB
:104DE0000FF00FF89AF8032012FB0BF10A0AA91929
:104DF0000FF08AFA761CBE42EEDB0D9805440C9843
:104E0000044409F10100E1E7002610E004EB860B01
:104E1000DBF800000EF0F5FF9BF803201AF80610EF
:104E200012FB01F10A0AA9190FF06EFA761CBE42B4
:104E3000ECDB0D98089905440C988A44044409F168
:104E4000010081464045DFDBBDE7002613E000BFDF
:104E500004EB8601069108680EF0D3FF0699CA7824
:104E60001AF8061012FB01F101FB0BF10A0CA9194B
:104E70000FF04AFA761CBE42EADB0D980899054409
:104E80000C988A44044409F1010081464045DCDB6A
:104E900099E7002018E000BF04EB8900BAF1000F89
:104EA000016823D01AF809000B0E13FB00F000FB79
:104EB0000BF0000C60F31F6196F8222005EB09004F
:104EC00001F0A1FD09F101008146B842E4DBBAF12D
:104ED000000F01D008998A440D9805440C980444A9
:104EE0000298401C02904045D3DB6CE70A0E12FB8F
:104EF0000BF0000ADEE700002DE9F04F814693B089
:104F0000D9E90170824699F821000E90D9F8004045
:104F1000D9F80C000F90D9E906500C90D9E904B0EB
:104F20000D9099F8220008B1002067E10E98BBF1BE
:104F3000000F04D0FD284FF0000060D283E0FD2870
:104F40004FF0000018D21DE00026B0460CE000BF74
:104F500005EB080034F81610C2780EF0F1FF24F8C3
:104F6000160008F10408761CBE42F1DB0F980444D9
:104F70000C98054409F1010081465045E4DB13B06B
:104F8000BDE8F08F81465045F9DA0026B0460FE0C3
:104F900005EB08000E99C27812FB01F10A0A34F8F9
:104FA00016100EF0CDFF24F8160008F10408761C48
:104FB000BE42EDDB0F9804440C98054409F1010052
:104FC000E0E70026B04610E005EB08001BF80610ED
:104FD000C27812FB01F10A0A34F816100EF0B0FF85
:104FE00024F8160008F10408761CBE42ECDB0F988A
:104FF0000D9904440C988B44054409F10100814645
:105000005045DEDBBBE70026B04612E005EB0800AA
:105010001BF80620C17811FB02F20E994A43120CCC
:1050200034F816100EF08CFF24F8160008F104086E
:10503000761CBE42EADB0F9804440C9805440D9898
:10504000834409F1010081465045DCDB97E70026E7
:1050500003960694C4E000BF99F8220001282FD0DF
:10506000022864D003287DD0042888D10698039AAA
:10507000AB1830F816109A78C80AA0EBD2000028B6
:1050800002DCD008A0EBD1204FF6FF7202EAC02C60
:105090005A78C1F34518A8EB9200002801DCC8EB50
:1050A00092000CEB401082B2039801F01F012B5CC0
:1050B000A1EBD300002801DCC1EBD300104424E0B5
:1050C000069803996A1830F816009178C30A03EB22
:1050D000D1011F2900D31F214FF6FF7303EAC1231B
:1050E0005278C0F3451101EB92013F2900D33F21D3
:1050F00000F01F02039803EB411189B2285C02EB18
:10510000D0001F2800D31F2008440E9980B2BBF1A5
:10511000000F52D01BF80620FD2957D203992944CD
:10512000C97812FB01F10E9A51430A0C4EE0069821
:1051300003996A1830F816009178C30AA3EBD101DD
:10514000002900DC00214FF6FF7303EAC1235278E7
:10515000C0F34511A1EB9201002900DC002103EB13
:10516000411100E00AE000F01F02039889B2285CB8
:10517000A2EBD0000028C7DC0020C5E7069830F875
:1051800016100398CA0A28448378DB0812FB03F23E
:1051900052094078D202C1F34513800813FB00F096
:1051A000800902EB401001F01F020399695CC908F5
:1051B00012FB01F100EB5110A7E7FD2903992944E7
:1051C000CA7803D20E9912FB01F10A0A34F81610BC
:1051D0000EF036FE24F816000398001D761C03908E
:1051E000BE42FFF639AF0F98BBF1000F04440C9894
:1051F000054401D00D998B440598401C05905045FD
:10520000FFF625AFBBE600002DE9F04F804687B0E2
:10521000D8E90170814698F821B0D8F80040D8F854
:105220000C000290D8E906500190D8E904A0039040
:1052300098F8220008B1002082E1BAF1000F05D0F1
:10524000BBF1FD0F4FF0000070D299E0BBF1FD0FF4
:105250004FF000001DD222E00026B04611E000BF52
:1052600034F816000FF01CFA014605EB0800C2786E
:105270000EF09FFE0FF014FA24F8160008F104084F
:10528000761CBE42ECDB02980444019805440AF106
:10529000010082464845DFDB07B0BDE8F08F82465B
:1052A0004845F9DA0026B04614E000BF34F816008D
:1052B0000FF0F6F9014605EB0800C37813FB0BF27B
:1052C000120A0EF076FE0FF0EBF924F8160008F142
:1052D0000408761CBE42E9DB0298044401980544A8
:1052E0000AF10100DBE70026B04615E034F81600AD
:1052F0000FF0D6F9014605EB08001AF80620C3782E
:1053000013FB02F2120A0EF054FE0FF0C9F924F852
:10531000160008F10408761CBE42E7DB02980399E8
:10532000044401988A4405440BF101008346484532
:10533000D9DBB1E70026B04618E000BF34F816000C
:105340000FF0AEF9014605EB08001AF80620C37805
:1053500013FB02F202FB0BF2120C0EF02AFE0FF00E
:105360009FF924F8160008F10408761CBE42E5DB1C
:1053700002980399044401988A4405440098401C0B
:1053800000904845D6DB87E739462046049414F060
:10539000D7FF00260096C5E098F8220001282FD0FC
:1053A000022853D0032876D00428C2D1049830F8BC
:1053B00016300098D90A2A189078A1EBD00100295C
:1053C00002DCC008A0EBD3214FF6FF7000EAC12C2D
:1053D0005278C3F34510A0EB9201002901DCC0EB29
:1053E00092010CEB411082B2009803F01F03295C7C
:1053F000A3EBD100002801DCC3EBD10010444BE04B
:10540000049830F816100098CB0A2A18907803EB0D
:10541000D0001F2800D31F204FF6FF7303EAC023DC
:105420005278C1F3451000EB92003F2800D33F2093
:1054300001F01F02009903EB401080B2695C02EB9F
:10544000D1011F2900D31F21084425E0049830F81A
:1054500016100098CA0A28448378A2EBD303002BC5
:1054600000DC00234FF6FF7202EAC3224078C1F34A
:105470004513A3EB9000002800DC002002EB401055
:1054800082B2009801F01F01285CA1EBD000002837
:10549000B4DC0020B2E711E080B2BAF1000F2CD0EA
:1054A0001AF80620BBF1FD0F30D200992944C978C3
:1054B00012FB01F101FB0BF10A0C27E004980099A3
:1054C000294430F816008B78C20ADB0812FB03F27D
:1054D00052094978D202C0F34513890813FB01F140
:1054E000890902EB411100F01F020098285CC008F6
:1054F00012FB00F001EB5010CEE70099BBF1FD0F5D
:105500002944CA7802D212FB0BF10A0A34F81610A9
:105510000EF096FC0FF0C4F824F816000098001D59
:10552000761C0090BE42FFF637AF0298BAF1000F2A
:1055300004440198054401D003998A440598401C0D
:1055400005904845FFF620AFA6E600002DE9F34F91
:10555000064685B0D6E90170804696F821B03568D8
:10556000F0680190D6E906400090D6E904900390D7
:1055700096F8220008B10020BCE0B9F1000F05D078
:10558000BBF1FD0F4FF000005DD280E0BBF1FD0FDD
:105590004FF0000016D21BE04FF000094E4609E024
:1055A00004EB860005EB0901C2780EF03BFD06997D
:1055B000761C8944BE42F3DB0198054400980444FC
:1055C0000AF1010082464045E6DB07B0BDE8F08FF6
:1055D00082464045F9DA4FF000094E460DE000BF23
:1055E00004EB8600C27812FB0BF10A0A05EB0901F5
:1055F0000EF018FD0699761C8944BE42F0DB019836
:105600000544009804440AF10100E1E74FF0000A64
:1056100056460EE004EB860019F80610C27812FB1D
:1056200001F10A0A05EB0A010EF0FCFC0699761C52
:105630008A44BE42EEDB01980399054400988944F0
:1056400004440BF1010083464045DFDBBDE700BFAA
:105650004FF0000A564610E004EB860019F80610D9
:10566000C27812FB01F101FB0BF10A0C05EB0A01F8
:105670000EF0D8FC0699761C8A44BE42ECDB0198F9
:10568000039905440098894404440298401C029000
:105690004045DDDB99E7002002901DE004EB8A0025
:1056A000B9F1000F016829D0029A0B0E19F8020017
:1056B00013FB00F000FB0BF05FEA104060F31F618A
:1056C000029896F82220284401F0CCF90699029815
:1056D000084402900AF101008246B842DEDBB9F1CB
:1056E000000F01D0039989440198054400980444AF
:1056F0000498401C04904045CDDB66E70A0E12FB7F
:105700000BF0000ADAE700002DE9F04F064693B0EF
:10571000D6E90170804696F821B03568F06812909D
:10572000D6E906401190D6E904A007900DA80EF026
:1057300046FF96F8220008B1002036E1BAF1000FCA
:1057400005D0BBF1FD0F4FF0000073D2E9E0BBF1D3
:10575000FD0F4FF000002FD234E0002624E000BF00
:1057600004EB86000068010E1DD04FF47F42B2FBAF
:10577000F1F1C0F307424A43120A62F31740C0F343
:1057800007224A43120A62F30F20C2B24A43110AA7
:1057900005EB860A61F30700DAF800100DAA0EF097
:1057A00067FCCAF80000761CBE42D9DB129805449B
:1057B0001198044409F1010081464045CDDB13B046
:1057C000BDE8F08F81464045F9DA002629E000BFA8
:1057D00004EB86000068010E19D04FF47F42B2FB43
:1057E000F1F2C0F3074353431B0A63F31740C0F3BE
:1057F000072353431B0A63F30F20C3B253431A0A10
:1058000062F3070011FB0BF1090A61F31F6005EB5E
:10581000860A0DAADAF800100EF02AFCCAF8000079
:10582000761CBE42D4DB129805441198044409F159
:105830000100C7E737E000262BE000BF04EB86003D
:105840000068010E1BD04FF47F42B2FBF1F2C0F3AF
:10585000074353431B0A63F31740C0F30723534323
:105860001B0A63F30F20C3B253431A0A62F3070003
:105870001AF8062011FB02F1090A61F31F6005EB1B
:10588000860B0DAADBF800100EF0F2FBCBF800003F
:10589000761CBE42D2DB12980799054411988A44BF
:1058A000044409F1010081464045C4DB87E7002636
:1058B0002DE000BF04EB86000068020E1DD04FF4FF
:1058C0007F41B1FBF2F1C0F307434B431B0A63F383
:1058D0001740C0F307234B431B0A63F30F20C3B2E7
:1058E0004B43190A61F307001AF8061012FB01F284
:1058F00002FB0BF2110C61F31F6005EB86010491B2
:1059000009680DAA0EF0B4FB0499761C0860BE422B
:10591000D0DB12980799054411988A44044409F190
:10592000010081464045C2DB49E700202FE000BF6F
:1059300004EB89000168080E14D04FF47F42B2FBDB
:10594000F0F2C1F3074353431B0A63F31741C1F35A
:10595000072353431B0A63F30F21CBB253431A0AA5
:1059600062F30701BAF1000F23D01AF8092010FBE7
:1059700002F000FB0BF0000C60F31F6196F8222090
:1059800005EB89000DAB00F08FFF09F101008146A6
:10599000B842CDDBBAF1000F01D007998A441298C2
:1059A0000544119804440B98401C0B904045BCDB07
:1059B00005E710FB0BF0000ADEE700002DE9F04FD1
:1059C000064693B0D6E90170804696F821B0356856
:1059D000F0681290D6E906401190D6E904A00C9028
:1059E0000DA80EF001FE96F8220008B1002063E138
:1059F000BAF1000F05D0BBF1FD0F4FF000006ED2E1
:105A000002E1BBF1FD0F4FF0000018D21DE00026AF
:105A10000DE000BF05EB860A04EB8600DAF8001003
:105A200000680DAA0EF06FFBCAF80000761CBE429B
:105A3000F0DB129805441198044409F101008146F5
:105A40004045E4DB13B0BDE8F08F81464045F9DA0C
:105A5000002639E004EB86000068020E14D04FF4F3
:105A60007F41B1FBF2F1C0F307434B431B0A63F3E1
:105A70001740C0F307234B431B0A63F30F20C3B245
:105A80004B43190A61F3070012FB0BF1090A61F39A
:105A90001F60C0F307424A43120A62F31740C0F383
:105AA00007224A43120A62F30F20C2B24A43110A84
:105AB00005EB860A61F30700DAF800100DAA0EF074
:105AC00022FBCAF80000761CBE42C3DB12980544D4
:105AD0001198044409F10100B7E700263CE045E0D5
